:1000000000600020D10400001D0500002105000053
:1000100000000000000000000000000000000000E0
:1000200000000000000000000000000025050000A6
:100030000000000000000000290500007509000014
:100040003105000035050000390500003D050000C0
:100050001905000019050000190500002508000019
:100060004105000045050000490500004D05000060
:10007000A108000045090000ED0800001905000076
:1000800019050000190500001905000019050000F8
:100090001905000019050000190500005D050000A4
:1000A00019050000190500001905000019050000D8
:1000B000710800001905000019050000190500006D
:10040000FFFFFFFFFFFFFFFFFFFFFFFFFE1FFFFFDD
:1004100010B5064C2378002B07D1054B002B02D0DA
:10042000044800E000BF0123237010BD64E0FF1FFB
:100430000000000088110000044B10B5002B03D011
:100440000349044800E000BF10BDC04600000000A2
:1004500068E0FF1F88110000164B002B00D1144BE1
:100460009D46402292029A1A924600218B460F46E0
:100470001348144A121A00F03BFE0F4B002B00D019
:1004800098470E4B002B00D0984700200021040015
:100490000D000D48002802D00C4800E000BF00F01D
:1004A00003FE2000290000F06FF900F0E7FDC046D0
:1004B00000000800006000200000000000000000B4
:1004C00064E0FF1F80E5FF1F000000000000000047
:1004D00072B60A480A4901600A6882F30888094826
:1004E00080470949094A0A4B9B1A03DD043BC85857
:1004F000D050FBDC62B607488047000008ED00E002
:100500000000000059100000B011000000E0FF1FC3
:1005100064E0FF1F590400001148004711480047DC
:10052000114800471148004711480047114800474B
:10053000114800471148004711480047114800473B
:10054000114800471148004711480047114800472B
:10055000114800471148004711480047114800471B
:10056000190500001D0500002105000025050000FB
:100570002905000075090000450A0000550A000021
:10058000650A0000750A0000110B0000290B00002D
:10059000150E0000250E0000490D0000650D00003D
:1005A000B90A0000810D0000002243088B4274D379
:1005B00003098B425FD3030A8B4244D3030B8B4264
:1005C00028D3030C8B420DD3FF22090212BA030C6D
:1005D0008B4202D31212090265D0030B8B4219D34E
:1005E00000E0090AC30B8B4201D3CB03C01A52416E
:1005F000830B8B4201D38B03C01A5241430B8B42B6
:1006000001D34B03C01A5241030B8B4201D30B039E
:10061000C01A5241C30A8B4201D3CB02C01A5241C5
:10062000830A8B4201D38B02C01A5241430A8B4288
:1006300001D34B02C01A5241030A8B4201D30B0271
:10064000C01A5241CDD2C3098B4201D3CB01C01A8B
:10065000524183098B4201D38B01C01A5241430995
:100660008B4201D34B01C01A524103098B4201D383
:100670000B01C01A5241C3088B4201D3CB00C01AF0
:10068000524183088B4201D38B00C01A5241430868
:100690008B4201D34B00C01A5241411A00D201468D
:1006A000524110467047FFE701B5002000F006F800
:1006B00002BDC0460029F7D076E770477047C046B4
:1006C000F0B585B000F09CF9264C0600200000F043
:1006D0002FFC9623E1229B012360012301AD12022E
:1006E0000192A371E371AB72EB721F4A1F4B20485A
:1006F000D158204F0840802149050143D150D1589D
:100700001D4808408021C9040143D15038003200FF
:10071000290000F025FA32002100184800F096FB6D
:100720002900E1238025164C3200AD015B02200038
:10073000019300F015FA2900380000F0D5FA802363
:10074000104E5B01336029000C4800F0FBFB802356
:10075000DB0133602900200000F0C6FA356005B0E7
:10076000F0BDC04654E3FF1F0070044004100000B9
:10077000FFFFFFCF00400540FFFFFFF300C0064032
:100780000050054000E100E0082370B51C4A917854
:100790000B43937080221B4B1A6000F005FC00F0A5
:1007A00001FC00F02DF91849FFF7FEFE174B186009
:1007B00000F026F9FA218900FFF7F6FE144B013804
:1007C00098420DD8C021134A090650601248036AA6
:1007D0001B021B0A0B430362002393600733136061
:1007E000FFF76EFFFA240D4A04210D4800F068F966
:1007F00010260B4DA400EE60200000F0C3F8FAE7CD
:1008000000D0074000E100E0581B00006CE3FF1F30
:10081000FFFFFF0010E000E000ED00E00411000029
:1008200000F00F4001220E4BD97911420DD00D4935
:100830000D480A7001680A43026080220B4908686B
:1008400002430A6001229A71704799791142F9D0E6
:1008500002200449087099790A439A71F2E7C04668
:1008600000C0074000E0FF1F388004400000044043
:100870008022084B19681143196019681142FCD194
:100880000823054A91780B4393708022034B92030F
:10089000DA6070470000044000D0074040F00F408D
:1008A00010B50D4C2021200000F02CFA80220B4BBB
:1008B000D203DA60E368D9B200290CD0084A094CA7
:1008C00010882354138801339BB213800D2902D161
:1008D0000122054B1A7010BD0040054040F00F404A
:1008E00084E0FF1F70E3FF1F86E0FF1F10B5104C70
:1008F0002021200000F038FB80220E4BD2030E494D
:10090000DA60E3790878DBB20C4A002806D1108857
:100910000B4C2354138801339BB21380F4231288A9
:10092000FF339A4202D9F33BFF3B0B7010BDC04628
:1009300000C0064040F00F4082E0FF1F80E0FF1F34
:10094000ECE0FF1F084A094BD96813881388C9B225
:1009500001339BB213800A2904D1054B0939197060
:10096000002313807047C04688E0FF1F00500540F9
:100970008AE0FF1F024A1368013313607047C046C4
:100980008CE0FF1F034B1A6880181A689042FCD84D
:100990007047C0468CE0FF1F0222084B18781040B9
:1009A00004D19A791207920F012A05D101225B78AE
:1009B0001340034A9B0098587047C04600400640C9
:1009C0000811000010B50B4CA3791B079B0F012BDE
:1009D00007D0002B0CD00020022B08D1064B186842
:1009E00005E0FFF7D9FF237A1B075B0FD84010BD46
:1009F0000248FCE70040064074E5FF1F006CDC0283
:100A000010B5FFF7DFFF044A044BD158090F01313D
:100A1000FFF7CAFD10BDC04600700440441000003E
:100A2000037902681B01D3188022FC33D968520471
:100A30000A4310B5DA608368002B01D0C16898477B
:100A400010BD000010B5024B1868FFF7E9FF10BD9C
:100A500090E0FF1F10B5024B5868FFF7E1FF10BD93
:100A600090E0FF1F10B5024B9868FFF7D9FF10BD4B
:100A700090E0FF1F10B5024BD868FFF7D1FF10BD03
:100A800090E0FF1F10B5094C2168002904D0084BE5
:100A9000084A1B68106898476168002904D0044B15
:100AA000044A5B685068984710BDC046A0E0FF1F2D
:100AB000A8E0FF1FB0E0FF1F10B5FFF7E3FF10BD78
:100AC00001238B401178002903D142699A43426186
:100AD00070475278002A04D183604269134343610E
:100AE000F6E74360F9E70000C37810B5DB0602D4EF
:100AF00083789B0605D5044B1B689847BFF34F8F3F
:100B000010BD024BF8E7C046C0E0FF1FC4E0FF1F66
:100B100010B5034B03481968FFF7E6FF10BDC04648
:100B2000B8E0FF1F0060064010B5034B034859684A
:100B3000FFF7DAFF10BDC046B8E0FF1F00700640A7
:100B4000054A0023904204D0044BC018431E98412C
:100B5000431C18007047C0460040054000B0FABF73
:100B6000F0B50F6889B0BB00049304230093002301
:100B700004000D00059203970293069304990598CB
:100B8000FFF712FD86B2002E00D1013600990598BC
:100B90007143FFF709FD0099C31B0193731C59436F
:100BA00005980793FFF700FD019B381A984202D27F
:100BB0006B469E8B0190019B039A934203D803934B
:100BC000009B06960293009B01330093049BDB1964
:100BD0000493009B212BD1D164213800FFF7E4FC62
:100BE00003235843039B98426AD32000FFF7A8FFD2
:100BF000344B8000C158344B0A0CD218012389B2FF
:100C00008B40106803431360A368304A1340029A74
:100C1000A360043A2368032A02D880229202134375
:100C2000F821E0202A4A49051A40029BC000013BF6
:100C30001B060B401343069A5B0BD204D20C5B03DA
:100C4000134323602368234A134023606B7AA2680E
:100C50001B02034020482979024004200A431A431A
:100C60002B7A9B0003401343002901D01022134329
:100C70008021A360EB7989015B0322680B4017494F
:100C80000A4013432360AB795A1E934180225B4292
:100C900092051340124A9B18626813436360AA7A54
:100CA000A368002A02D0802212031343EA7A002AA2
:100CB00002D08022D20213430020A36009B0F0BD0D
:100CC0000848FBE71011000000700440FFFFF3FF2D
:100CD000FFFFFFE0FFFFFFDFE8F8FFFFFFDFFFFFA1
:100CE00000C01FC02105000010B5C02402680B021F
:100CF000240223401343FF22036083689143194376
:100D0000816010BD4268CB0F52005208DB071343CD
:100D1000094A1A40094B0B401343094A1340C022A9
:100D200012020A401343436040680840411E884154
:100D30000449404208407047FFFFE0BF00001F40E9
:100D4000FF3FFFFF1A05000010B5034B034A1B6865
:100D500011680348984710BDD0E0FF1FC8E0FF1F8F
:100D60000040054010B5034B034A1B685168034817
:100D7000984710BDD0E0FF1FC8E0FF1F005005409E
:100D800010B5154C6168002910D0144BDA6F92032E
:100D900002D4DA6F520309D5DA6F920502D4DB6F01
:100DA0005B0503D50E4B0F481B6898472168002947
:100DB00010D00C4B1A68920302D41A68520309D55A
:100DC0001A68920502D41B685B0503D5064B0548DB
:100DD0001B68984710BDC04678E5FF1F04F002402D
:100DE000D4E0FF1F00F00240D8E0FF1F064AC3789E
:100DF000890010B58958DB0603D5044B1B6898475A
:100E000010BD034BFAE7C046DCE0FF1FE4E0FF1F24
:100E1000E8E0FF1F10B500210148FFF7E7FF10BD14
:100E20000060074010B501210148FFF7DFFF10BD4A
:100E300000700740031E04D0034BC018431E9841A6
:100E4000831C18007047C0460040F9BFF7B50E6814
:100E500004000F00100031010092FFF7A5FB85B2DE
:100E6000002D00D10135009B31005B00180000937C
:100E7000FFF79AFB6901401A83B2C91800980193E1
:100E8000FFF792FB331A0093864201D2831B009333
:100E900064213000FFF788FB03235843009B9842EE
:100EA0003ED32000FFF7C6FF1E4B8000C1581E4BEB
:100EB0000A0CD218012389B28B40106803431360D7
:100EC0000C22E3789343E3701F2321782A0A994385
:100ED0000A43EDB222706570A07A019A98431A40D5
:100EE000104317220421A072A37893437A799200C9
:100EF0000A4039791343002902D010220A431343D0
:100F0000A370E378BA79DBB2002A01D00822134338
:100F1000FA79002A01D0042213430020E370FEBDB9
:100F20000248FCE71811000000700440F5030000BF
:100F3000E1235B0203600023037143718371C3717A
:100F400070470000074B194003780A0A0B43DBB2D5
:100F50000370C378090C1343DBB2C3708379194360
:100F60008171704740F00F0010B5402442790B0AA0
:100F7000A2431343DBB243711723194201D0037913
:100F8000C3790B0701D50379C3790379407900024E
:100F900018430140481E814148420149084010BDA4
:100FA000EE030000704700008022244BD200196835
:100FB00010B50A431A608022196812010A431A60A8
:100FC0008022196852010A431A608022196892002F
:100FD0000A431A608022196892010A431A60C022EB
:100FE0001748184BC168920019401143C16001694C
:100FF000154C1940114301618021206949001840B6
:101000000843206160681840084360600F4C206806
:10101000184001430E4821608169194011438161E4
:10102000C16919401143C1610A48416C194011431B
:101030004164016C0B401A43026410BD38800440C7
:1010400000B00440FFF8FFFF0090044000A00440FF
:1010500000C0044000D004400823064A9178194299
:1010600002D091780B43937088230021024A5B01E0
:10107000D150704700D0074000700440084B10B5B5
:101080000400002B02D0002100E000BF054B1868CF
:10109000836A002B00D09847200000F031F8C0464A
:1010A000000000002411000070B500260C4D0D4C0E
:1010B000641BA410A64209D1002600F065F80A4D71
:1010C0000A4C641BA410A64205D170BDB300EB58B6
:1010D00098470136EEE7B300EB5898470136F2E740
:1010E000A8110000A8110000A8110000AC11000018
:1010F00003001218934200D1704719700133F9E7C9
:10110000FEE7C0460101000080841E0000127A0044
:101110001400381015003810000000000000000016
:101120000C00341004E0FF1F00000000000000006D
:1011300000000000000000000000000000000000AF
:10114000000000000000000000000000000000009F
:10115000000000000000000000000000000000008F
:10116000000000000000000000000000000000007F
:10117000000000000000000000000000000000006F
:101180000000000000000000F8B5C046F8BC08BC34
:101190009E467047F8B5C046F8BC08BC9E467047EE
:0811A000B8F2FF7F010000001E
:0411A8003904000006
:0411AC00110400002A
:1011B000020000000000000048110000681100005B
:1011C00028110000000000000000000000000000E6
:1011D000000000000000000000000000000000000F
:1011E00000000000000000000000000000000000FF
:1011F00000000000000000000000000000000000EF
:1012000000000000000000000000000000000000DE
:0412100000000000DA
:04000003000004D124
:00000001FF
