:1000000000600020D10400001D0500002105000053
:1000100000000000000000000000000000000000E0
:1000200000000000000000000000000025050000A6
:100030000000000000000000290500002516000057
:100040003105000035050000390500003D050000C0
:10005000190500001905000019050000C110000075
:100060004105000045050000490500004D05000060
:1000700039110000D11100008511000019050000A0
:1000800019050000190500001905000019050000F8
:100090001905000019050000190500005D050000A4
:1000A00019050000190500001905000019050000D8
:1000B00021110000190500001905000019050000B4
:10040000FFFFFFFFFFFFFFFFFFFFFFFFFE3FFFFFBD
:1004100010B5064C2378002B07D1054B002B02D0DA
:10042000044800E000BF0123237010BD08E2FF1F55
:10043000000000001C320000044B10B5002B03D05C
:100440000349044800E000BF10BDC04600000000A2
:100450000CE2FF1F1C320000164B002B00D1144B86
:100460009D46402292029A1A924600218B460F46E0
:100470001348144A121A01F08FFE0F4B002B00D0C4
:1004800098470E4B002B00D0984700200021040015
:100490000D000D48002802D00C4800E000BF01F01C
:1004A0003BFE2000290000F001FC01F01FFEC046C9
:1004B00000000800006000200000000000000000B4
:1004C00008E2FF1FC4E9FF1F000000000000000059
:1004D00072B60A480A4901600A6882F30888094826
:1004E00080470949094A0A4B9B1A03DD043BC85857
:1004F000D050FBDC62B607488047000008ED00E002
:1005000000000000BD2000004432000000E0FF1F9A
:1005100008E2FF1F59040000114800471148004736
:10052000114800471148004711480047114800474B
:10053000114800471148004711480047114800473B
:10054000114800471148004711480047114800472B
:10055000114800471148004711480047114800471B
:10056000190500001D0500002105000025050000FB
:100570002905000025160000C5180000D518000048
:10058000E5180000F5180000D91B0000F11B000061
:10059000F91F000009200000911E0000AD1E0000A0
:1005A00089190000C91E000002B4714649084900BB
:1005B000095C49008E4402BC7047C04600224308D3
:1005C0008B4274D303098B425FD3030A8B4244D31B
:1005D000030B8B4228D3030C8B420DD3FF2209025D
:1005E00012BA030C8B4202D31212090265D0030B1C
:1005F0008B4219D300E0090AC30B8B4201D3CB0312
:10060000C01A5241830B8B4201D38B03C01A524153
:10061000430B8B4201D34B03C01A5241030B8B4255
:1006200001D30B03C01A5241C30A8B4201D3CB0240
:10063000C01A5241830A8B4201D38B02C01A524125
:10064000430A8B4201D34B02C01A5241030A8B4228
:1006500001D30B02C01A5241CDD2C3098B4201D340
:10066000CB01C01A524183098B4201D38B01C01ABE
:10067000524143098B4201D34B01C01A5241030935
:100680008B4201D30B01C01A5241C3088B4201D3E4
:10069000CB00C01A524183088B4201D38B00C01A91
:1006A000524143088B4201D34B00C01A5241411AB8
:1006B00000D20146524110467047FFE701B50020C5
:1006C00000F006F802BDC0460029F7D076E7704773
:1006D0007047C0460023C25C0133002AFBD1581E7C
:1006E000704710B51D212A2000F0C2F903215B20BC
:1006F00000F0BEF910BD10B52D2000F0E5F97C2109
:1007000049420143C9B22D2000F0B2F92E2000F079
:10071000DBF904210143C9B22E2000F0A9F92C20F5
:1007200000F0D2F908210143C9B22C2000F0A0F951
:10073000152000F0C9F978210143C9B2152000F055
:1007400097F9172000F0C0F9712149420143C9B25D
:10075000172000F08DF910BD10B50449044801F0D0
:1007600059FD431E9841C0B210BDC046BB2B0000CE
:10077000B0E7FF1FF3B517000022254DFFB00B00B7
:100780002A802449020003A801F00EFD03A800F00E
:100790004FFA214800F076FA03A800F073FA1F49D7
:1007A00003A801F037FD444244411D481D4B6442FB
:1007B0000440E41800F030FF0319019300F02CFF0F
:1007C000019B984201D302240EE0174E3378002B90
:1007D000F4D0164C3900200001F01CFD00280DD08B
:1007E000200000F04FFA00249622002192000F48CA
:1007F000298001F0D1FC20007FB0F6BD0C4920001B
:1008000001F008FD002801D13070D7E70124EBE7A3
:1008100028E2FF1F942B00009E2B0000B12B00004C
:10082000D8DCFFFF102700002AE2FF1FB0E7FF1F00
:10083000B52B00007047002330B50022C418A25623
:100840000D2A0DD10022110084420CD162700022C9
:100850002170A270591C91420CDA181DC0B230BD33
:100860000133DBB2E9E7057801304919C9B2521802
:10087000D2B2E9E70132D2B2EDE7000070B5C37839
:100880000D0003718378C3702E2383700A794A7137
:10089000CA78CB7000230A710022C1188A56302A08
:1008A00037D0214C200001F0ADFC20002E2101F0BA
:1008B0009BFC441C0023E356302B2DD0200001F07C
:1008C0000FFC0621FFF77AFE184E020031002000CF
:1008D00001F06AFC00230022E9188A56302A1DD054
:1008E000134C200001F08EFC20002E2101F07CFC36
:1008F000441C0023E356302B13D0200001F0F0FB02
:100900000621FFF75BFE31000200200001F04CFCE5
:1009100070BD0133DBB2BFE70134CBE70133DBB29B
:10092000D9E70134E5E7C04684E7FF1F7C2C0000CF
:100930009CE7FF1FF0B593B009AC01AB636005AB5A
:10094000E3606B46274D28492800A36101F062FC53
:1009500026490600280001F05DFC0500002E34D079
:100960002349300001F056FC002801D00023837099
:10097000002332001F0000215156002911D1A66921
:100980004131300001F030FC002815D0194800F04A
:1009900079F9E1686068FFF771FF0123180013B06F
:1009A000F0BD501C2C2905D117709A00A6500600E6
:1009B0000133DBB20200DEE75621300001F014FC07
:1009C000002802D00C4800F05DF92B1EE6D0084943
:1009D000280001F01FFC002203009042DED082704C
:1009E0001300DBE72CE5FF1F412C0000462C000024
:1009F000AE2B00004B2C0000552C00008023164A23
:100A000030B5116885B00B4313608023134A9B01F6
:100A1000116801AC0B43136000F0B2FE050020002A
:100A200000F0EEFF0123237000230D4A21006260D5
:100A30000C482A006370237201F026F8C0210A4A8C
:100A40000A481368C90003400B431360536803400E
:100A50001943516005B030BD3480044038800440F3
:100A6000400D03000070064000D00440FFF8FFFF77
:100A700070B5002205000C0012481C2101F060F83E
:100A8000104A02211300D0780842FCD0D0780143EC
:100A9000D170102190780143917015710222D9789C
:100AA0001142FCD0D9780A43DA7002221C71D9783D
:100AB0001142FCD0D97803480A43DA7001F026F8D5
:100AC00070BDC0460070064070B5002205001C21B4
:100AD0001A4801F035F8194B02221C00D97811424E
:100AE000FCD0D9780A43DA70102299780A439A70B8
:100AF0001D710223E2781A42FCD0E2781C211343D4
:100B0000E37001220D4801F039F80223E2781A421D
:100B1000FCD01822E370A3789343A3700823A27833
:100B20001343A37023790223E2781A42FCD0E370C6
:100B3000024800F0EBFF2079C0B270BD00700640A3
:100B4000F8B58026C0230B4C0B4D76055B00EE50AC
:100B5000200001F081F801230022084F2100380015
:100B600023716371A27101F04FF8054BBB602E60D9
:100B7000F8BDC046A6E9FF1F00E100E00000044008
:100B8000571B0000F0B5022085B000F009FE0020E0
:100B900000F006FE204F01AC0600380001F03CFAE0
:100BA000200001F037F996250123C020BB71FB71AD
:100BB000A372E372194A1A4BAD013D600195D158F9
:100BC00080050143C020D150D158164F0005014384
:100BD000D15038003200210001F058F83200802650
:100BE0000195114D2100B603280001F04FF83100A6
:100BF000380001F01CF980230C4C5B01236080233A
:100C0000DB0123603100280001F011F980239B01F2
:100C1000236005B0F0BDC04694E7FF1F007004409C
:100C200004100000004005400050054000E100E0D5
:100C30000023802110B5074AC35609040130002B58
:100C400000D110BD54680C42FCD0D3600023C356C1
:100C50000130F4E700400540002310B5084CC356AE
:100C60000130002900D110BD227952B2002AFBDAEE
:100C7000DBB2E37100230139C356C9B20130F0E79A
:100C800000C0064030B580250400002306492D042D
:100C9000E256D8B2002A00D130BD48682842FCD0C4
:100CA000CA600133F4E7C046005005400823F0B5A0
:100CB000CF4AD04C9178A5440B4393708022CE4B01
:100CC0001A6001F0F9F901F0CFF900F059FDFA21AD
:100CD0008900FFF773FCC94B013898420DD8C02139
:100CE000C74A09065060C748036A1B021B0A0B4328
:100CF000036200239360073313600125FFF77EFE34
:100D0000C14CFFF73FFFC14F04213A00200000F023
:100D10003FFEBF4ABF4E1368BF492B431360326882
:100D200009A801F041FA09A8FFF7ACFFFFF7E3FCBF
:100D3000FFF7D7FCFFF704FF2A23B84A20001370FF
:100D4000B74B1D70B74B1A792A431A710422597890
:100D50000A435A702522197A0A4380211A724023C5
:100D600032688A431343336033683A008B432B4322
:100D700033606D3900F00CFE102329003A00A360A7
:100D8000200000F005FE0223A748A360FFF77AFFCA
:100D9000A648FFF777FF0822A549684601F0E0F969
:100DA0000322002102A801F0F7F9A1490A220B3120
:100DB00003A801F0D5F9162300226B449D4911A820
:100DC0001A7001F01FFA4A236B446946180001F0BB
:100DD00019FA56236B4403A9180001F013FA622391
:100DE0006B441800944901F00DFA49232D22934DCC
:100DF0006B44DA772B789248022B03D02B78002BA8
:100E000008D19048FFF73EFF01F094F884498348E9
:100E100001F0B0F82B78012B2BD161336B44180013
:100E2000894901F0EFF9894B1C78E4B2002CFBD121
:100E30008748FFF727FF8748FFF724FF7C490B22ED
:100E4000163106A801F08CF923230C226B44824949
:100E50001BA81C7001F084F94A236B4406A91800F2
:100E600001F0D0F91BA956236B44180001F0CAF910
:100E70000DE07A4B1B78002B31D0794E7949300048
:100E800001F0C8F9002813D07748FFF7FBFE1BA933
:100E900011A800F0BDF901001BA800F0A3FB7348E6
:100EA000FFF7F0FE724A73497348FFF763FCFEE7F1
:100EB0007249300001F0AEF9071E4CD00122704B90
:100EC0001A70674E3000FFF705FC00210200300069
:100ED00001F062F90023614A13706A4A13806A4B79
:100EE0001B78002B21D000F097FBFA23674EDB0024
:100EF000C018306000F090FB3368984203D2FFF7CF
:100F00002BFC0028F6D0624E3000FFF7BBFE5148A4
:100F1000FFF7B8FEFA2200215200300001F03CF940
:100F200000235C4A1380584A1370484B1B78002BEF
:100F300000D16FE7524B1B78002B00D16AE7FFF717
:100F4000F9FC002837D04A236B445349180001F0BC
:100F500059F9524987E75249300001F05BF90028FE
:100F600002D0474B1F70ACE74E49300001F052F9F8
:100F7000002802D00223A360A3E74B49300001F010
:100F800049F9002802D0022363609AE747493000FC
:100F900001F040F900280AD04548FFF773FE4548A4
:100FA000FFF749FC01003000FFF756FE89E73000EB
:100FB000FFF73EFE85E7264F3C49380001F02AF94D
:100FC000061E08D03C48FFF75DFE3179300008313D
:100FD000C9B2FFF72FFC962200219200380001F0E1
:100FE000DBF80023354A1380184A137012E7C04615
:100FF00000D00740CCFDFFFF00E100E0FFFFFF0055
:1010000010E000E000ED00E000F00F40822C000056
:101010003880044000000440842C000000E00740B9
:10102000A4E9FF1F00C007409C2C00002C2D0000ED
:10103000702B0000802D0000862D000020E0FF1F97
:101040008C2D0000B62D0000D22D000026E2FF1FDF
:101050002CE5FF1FAE2B00005C2E000022E4FF1FDA
:101060002EE2FF1FD72D0000DB2D00003E2E0000DA
:10107000BB2B0000B02B0000552E0000F92D000006
:1010800023E4FF1F2CE2FF1F2AE2FF1F1CE0FF1FCB
:10109000B0E7FF1F28E2FF1F84E7FF1F9CE7FF1F49
:1010A000032E00000D2E0000132E0000182E00004D
:1010B0001B2E000030E2FF1F292E000024E2FF1F3C
:1010C0001022012030B5124B1249DA60DA60124B5F
:1010D0000870DA79024210D0C025104A1468AC4377
:1010E0001460802415682C43812514601468AC4377
:1010F0001460087020229A7130BD20229879104225
:10110000F8D00220087099790A439A71F2E7C04634
:1011100000F00F4020E0FF1F00C007400000044027
:101120008022044B19681143196019681142FCD1DF
:101130007047C0460000044010B50D4C202120002F
:1011400000F084FE80220B4BD203DA60E368D9B250
:1011500000290CD0084A094C108823541388013305
:101160009BB213800D2902D10122054B1A7010BDCC
:101170000040054040F00F4028E2FF1FB0E7FF1F8E
:101180002AE2FF1F10B50E4C2021200000F04EFF78
:101190000C49E3790878DBB20B4A002806D11088A5
:1011A0000A4C2354138801339BB21380F423128812
:1011B000FF339A4202D9F33BFF3B0B7010BDC04690
:1011C00000C0064026E2FF1F24E2FF1F2CE5FF1FA0
:1011D00010220A4B0A48D9680A4BDA600A4A138877
:1011E000C1541388C9B201339BB213800A2904D1B8
:1011F000064B0939197000231380704700500540D1
:101200002EE2FF1F00F00F402CE2FF1F22E4FF1F21
:10121000F0B56C4BE3B01B6800901800029101938D
:10122000FFF758FA6B4605901D7D674B0AAC1B68AB
:1012300018000393FFF74EFA6B4606901E7E634B31
:101240001B6818000493FFF745FA6B4607901F7F51
:1012500010232370AB191033FB1863708023DB005D
:1012600063805B4B1620A3805A4B059AE3805A4B50
:1012700001992381A0231B01638100232373FF2392
:101280001A4008ABC018657300F06AFF0522002100
:1012900008A800F081FF28000E3008AAC0B25770DD
:1012A00008A90222201800F05BFFFF23079A1035DF
:1012B000EDB21A40601904997D1900F051FFEDB2AA
:1012C00008AA56706019022208A900F049FFFF23FE
:1012D000069A0235EDB21A400399601900F040FFFA
:1012E0003E4A75191068FFF7F5F96B4603903C4EBE
:1012F0001A7B3C4901923000009A00F055FF009A99
:10130000070006328019384900F04EFF009A3F1856
:10131000B8191232354900F047FF009A3F18B81942
:101320001E32334900F040FF009A3F18531DDA7F08
:10133000B819304900F038FF3F183000FFF7A2FC21
:10134000302308AA13706B461979EDB21171FAB205
:101350000092019A08A9931CFAB2D3188022DBB23A
:1013600052421A434A7062AA50196138DB090522B9
:10137000FF388B7000F0F4FEFF23039A05351A4006
:10138000164BEDB21968601900F0EAFE3100002634
:10139000019B3A005D19EDB2601900F0E1FE009B7F
:1013A0005D19EDB2F3B29D4202D8280063B0F0BDE2
:1013B000A25D1149029800F0F7FE029B013602334C
:1013C0000293EFE724E0FF1F28E0FF1F30E0FF1F3C
:1013D0004D5100005454000004C2FFFF2CE0FF1FD9
:1013E00024E4FF1F302F0000502F0000622F000068
:1013F000752F00008A2F0000A22F0000094B10B5A6
:101400001868094A0949FFF7B5F9094B187000280F
:1014100003D10848FFF736FC10BD0128FCD106486F
:10142000F8E7C04610E0FF1F122F0000B02B0000AD
:10143000ADE9FF1F1E2F0000E52E0000022310B5AE
:101440000B4C23702378002B00D110BD094B0A4AA6
:101450000A491868FFF78EF92070002803D1084860
:10146000FFF710FCEEE70128ECD10648F8E7C0468C
:10147000ADE9FF1F00E0FF1FB32E0000B02B0000FE
:10148000BF2E0000E52E00000B4B10B518680B4A6C
:101490000B49FFF76FF90B4C2070FA20800000F029
:1014A000C9F823780848002B02D0012B02D1074845
:1014B000FFF7E8FB10BDC04608E0FF1FBB2B000094
:1014C000B02B0000ADE9FF1F9B2E0000E52E0000B1
:1014D000094B10B51868094A0949FFF74BF9094B40
:1014E0001870002803D10848FFF7CCFB10BD012875
:1014F000FCD10648F8E7C04604E0FF1FBB2B000004
:10150000682E0000ADE9FF1F6D2E0000E52E0000E3
:10151000094B10B51868094A0949FFF72BF9094B1F
:101520001870002803D10848FFF7ACFB10BD012854
:10153000FCD10648F8E7C0460CE0FF1FBB2B0000BB
:10154000B02B0000ADE9FF1F242F0000E52E0000A6
:10155000094B10B51868094A0949FFF70BF9094BFF
:101560001870002803D10848FFF78CFB10BD012834
:10157000FCD10648F8E7C04614E0FF1FBB2B000073
:10158000B02B0000ADE9FF1F8C2E0000E52E0000FF
:1015900010B5FEB003000A0001A80C4900F004FEDB
:1015A0000B4B0C4A186801A9FFF7E4F80A4B041E1C
:1015B00018700A4802D0012C05D10948FFF762FBD8
:1015C00020007EB010BD0024FAE7C046ED2E0000DA
:1015D00018E0FF1FBB2B0000ADE9FF1F0D2F00001F
:1015E000E52E000070B504000D00FFF707FFC820CE
:1015F00000F020F8FFF748FFFFF76AFFFFF71EFF34
:10160000FFF786FFFFF7A4FF29002000FFF7C0FFC8
:101610000128F1D070BD0000014B18687047C0462A
:10162000BCE4FF1F024A1368013313607047C046D1
:10163000BCE4FF1F034B1A6880181A689042FCD85C
:101640007047C046BCE4FF1F0222084B18781040C8
:1016500004D19A791207920F012A05D101225B78F1
:101660001340034A9B0098587047C046004006400C
:10167000D02F00000020044B1B785BB2834201DABC
:10168000024B18687047C04600500640B4E9FF1F7F
:101690000C4B10B51C682403A40F022C0CD0032C97
:1016A0000DD0002C01D0002010BDFFF7E3FF8023F8
:1016B0001B029842F7D1F7E7034B1868F4E7FA20CA
:1016C0008000F1E700700440B0E9FF1F4168074A5D
:1016D000074BD1500378C0209B04000311680340DE
:1016E000044801400B4313607047C046007004403B
:1016F00044100000FFFFF3FF70B5074B1C7A1D7EFE
:10170000FFF7A2FF0723E4B2EDB264081D401C40BE
:101710006419E04070BDC04600400640074A137E91
:101720005BB2002B08DB90790007800F43425841E1
:10173000034B4042184070470148FCE70040064018
:10174000006CDC0210B50B4CA3791B079B0F012B1F
:1017500007D0002B0CD00020022B08D1064B1868B4
:1017600005E0FFF771FF237A1B075B0FD84010BD20
:101770000248FCE700400640B4E9FF1F006CDC02B1
:1017800010B5FFF7DFFF044A044BD158090F0131B0
:10179000FEF714FF10BDC046007004404410000066
:1017A00070B513280BD8FEF7FFFE0C0C160A160AAC
:1017B0000A23260A0A0A290A0A0A0A2C2C2F0020C0
:1017C00070BDFFF7BFFF124A124BD158090F01310C
:1017D000FEF7F4FEF4E70E4D0E4CFFF7B3FF295968
:1017E000090F0131FEF7EAFE29594903490FEEE7D7
:1017F000FFF74EFFE4E7FFF73DFFE1E7FFF77CFF70
:10180000DEE7FFF78BFFDBE7FA208000D8E7C04672
:10181000007004404410000070B503251F4B017890
:101820009A79847892082A40012A0DD101290BD196
:101830005A780A40A24207D03F261A7832401A70DE
:101840009A7992082A42FBD10E250726C2785200C7
:101850002A401A7242790579D20135402A4301257E
:10186000D2B21A765A782C40AA4322435A70407852
:101870008A010243D2B21A705A78520705D502295A
:1018800003D10A0098791042FCD003209A7992087B
:1018900002409142FAD1002070BDC046004006408F
:1018A000037902681B01D3188022FC33D9685204E3
:1018B0000A4310B5DA608368002B01D0C1689847ED
:1018C00010BD000010B5024B1868FFF7E9FF10BD0E
:1018D000C0E4FF1F10B5024B5868FFF7E1FF10BDD1
:1018E000C0E4FF1F10B5024B9868FFF7D9FF10BD89
:1018F000C0E4FF1F10B5024BD868FFF7D1FF10BD41
:10190000C0E4FF1F03784278012B0AD17820002A17
:1019100006D080230C4A1B0211680B431360002081
:101920007047094B0948196801401960002A05D120
:1019300080211868C90101431960F0E71A68044959
:101940000A401A60EBE7C0460C3000F0FF7FFFFF53
:10195000FFBFFFFF10B5094C2168002904D0084BD8
:10196000084A1B68106898476168002904D0044B36
:10197000044A5B685068984710BDC046D0E4FF1F1A
:10198000D8E4FF1FE0E4FF1F10B5FFF7E3FF10BD31
:1019900001238B401178002903D142699A434261A7
:1019A00070475278002A04D183604269134343612F
:1019B000F6E74360F9E70000C37810B5DB0602D410
:1019C00083789B0605D5044B1B689847BFF34F8F60
:1019D00010BD024BF8E7C046F0E4FF1FF4E4FF1F20
:1019E000054A0023904204D0044BC018431E98417E
:1019F000431C18007047C046006006400090F9BFC5
:101A0000034B43600023437003720133037070473C
:101A1000A0860100F0B500240126270085B00290C1
:101A200001910392009476420025164A6B00D15A28
:101A30000398A140FEF7C2FD019B984210D2181AEC
:101A4000B04213D30135402DEFD1022C17D13C0009
:101A5000009DA4012543029BEDB25D7005B0F0BD71
:101A6000019BC01AB042EDD2002803D00095270098
:101A70000600E7E7022CECD100952700E7E70134E8
:101A8000D2E7C046E02F0000F8B504000D001700B3
:101A9000FFF7A6FF1B4B8000C1581B4B0A0CD21846
:101AA000012389B28B4010687F2603431360002214
:101AB000FF2322706270A270E370AF3B6271A3716A
:101AC000E271A27820003240A270A2791A43A2717A
:101AD000A2791343A3711223E3703A006968FFF7F8
:101AE00099FF0F216A78A379D201334013432A7AF0
:101AF000DBB28B430A401343A3712B78DB01DBB2CB
:101B0000A370F8BDD82F00000070044038210200F7
:101B100083788B4383701839D0780840FCD17047A4
:101B2000C3788279DBB2520602D58022D2011343F8
:101B30008279D20602D580225201134318007047E1
:101B400070B505000E001400FFF7EAFF830610D4FD
:101B50003023AA781343AB7001232A7B1A42FCD0AE
:101B6000013C63425C41002076003443E4B22C71B6
:101B700070BD0148FCE7C0464C04000070B504008D
:101B80000E001500FFF7CCFF2023184202D0A278E8
:101B90001A421CD03F226378DBB21A4062701422D2
:101BA000A1780A43A2706370C046C046C046C046D2
:101BB000C046C0460123227B1A42FCD0013D6B4245
:101BC0005D41002076003543EDB2257170BD0148BE
:101BD000FCE7C0464C04000010B5034B03481968ED
:101BE000FFF7EAFE10BDC046E8E4FF1F00600640B4
:101BF00010B5034B03485968FFF7DEFE10BDC04621
:101C0000E8E4FF1F007006400123124A10B5146873
:101C100023431360022208240B785B0013408A7868
:101C2000D20022401343CA782834920013434A78E2
:101C300012012240134303600B794A792D3C224064
:101C40009B0013438A797821A2400A4013434360E2
:101C500010BDC04638800440002301220370437049
:101C60008370C3700271427183717047054A00230B
:101C7000904204D0044BC018431E9841431C1800E6
:101C80007047C0460040054000B0FABFF0B50F688D
:101C900089B0BB00049304230093002304000D00CB
:101CA000059203970293069304990598FEF786FC24
:101CB00086B2002E00D10136009905987143FEF7D7
:101CC0007DFC0099C31B0193731C5943059807932E
:101CD000FEF774FC019B381A984202D26B469E8B29
:101CE0000190019B039A934203D80393009B0696AD
:101CF0000293009B01330093049BDB190493009B28
:101D0000212BD1D164213800FEF758FC032358431E
:101D1000039B98426AD32000FFF7A8FF344B800052
:101D2000C158344B0A0CD218012389B28B40106879
:101D300003431360A368304A1340029AA360043A35
:101D40002368032A02D8802292021343F821E0205C
:101D50002A4A49051A40029BC000013B1B060B4062
:101D60001343069A5B0BD204D20C5B03134323602C
:101D70002368234A134023606B7AA2681B02034046
:101D800020482979024004200A431A432B7A9B00F9
:101D900003401343002901D0102213438021A36084
:101DA000EB7989015B0322680B4017490A40134312
:101DB0002360AB795A1E934180225B429205134007
:101DC000124A9B18626813436360AA7AA368002AC8
:101DD00002D0802212031343EA7A002A02D0802222
:101DE000D20213430020A36009B0F0BD0848FBE70E
:101DF0006030000000700440FFFFF3FFFFFFFFE0D2
:101E0000FFFFFFDFE8F8FFFFFFDFFFFF00C01FC09D
:101E100021050000E1235B0203600023037143718D
:101E20008371C371037243728372C372704710B5BA
:101E3000C02402680B02240223401343FF220360E4
:101E4000836891431943816010BD00004268CB0F45
:101E500052005208DB071343094A1A40094B0B4052
:101E60001343094A1340C02212020A40134343603D
:101E700040680840411E884104494042084070477C
:101E8000FFFFE0BF00001F40FF3FFFFF1A050000FB
:101E900010B5034B034A1B6811680348984710BDEF
:101EA00000E5FF1FF8E4FF1F0040054010B5034B9D
:101EB000034A1B6851680348984710BD00E5FF1F9F
:101EC000F8E4FF1F0050054010B5154C616800296B
:101ED00010D0144BDA6F920302D4DA6F520309D593
:101EE000DA6F920502D4DB6F5B0503D50E4B0F480A
:101EF0001B6898472168002910D00C4B1A68920380
:101F000002D41A68520309D51A68920502D41B68D4
:101F10005B0503D5064B05481B68984710BDC046B6
:101F2000B8E9FF1F04F0024004E5FF1F00F0024083
:101F300008E5FF1F07B50222074901A800F010F9C4
:101F4000EFF3108372B6054A1360BFF36F8F01A8D9
:101F5000FFF7D8FC07BDC046922B00000CE5FF1F21
:101F60006022437893431A004023134343700020B8
:101F70007047000010B50C78002C06D14A78202359
:101F8000002A1CD082789A43827007210422437869
:101F90008B431343437083788B431C430A4B8470F9
:101FA00019690A431A614378BFF34F8F30BFBFF3FB
:101FB0006F8F4078054B0007C017184010BD82781E
:101FC00013438370E1E7C04600ED00E03C0F0000E2
:101FD000064AC378890010B58958DB0603D5044B3F
:101FE0001B68984710BD034BFAE7C04610E5FF1F7A
:101FF00018E5FF1F1CE5FF1F10B500210148FFF782
:10200000E7FF10BD0060074010B501210148FFF750
:10201000DFFF10BD00700740E1235B020360002377
:10202000037143718371C3717047000010B5402480
:1020300042790B0AA2431343DBB2437117231942BF
:1020400001D00379C3790B0701D50379C3790379EB
:102050004079000218430140481E8141484201492D
:10206000084010BDEE0300000B4B0C4A0C4910B5A4
:102070000C48D150FFF7D0FB0B48FFF727FB2A2372
:102080000A4C23702000FFF76BFFE378042BFCD190
:10209000074B084A1A6010BD44100000007004404D
:1020A00000000710683000007030000000E00740BA
:1020B00034E0FF1F80841E00704700000823064A9A
:1020C0009178194202D091780B43937088230021B4
:1020D000024A5B01D150704700D0074000700440B5
:1020E00010B50A22002100F031F910BD084B10B5DF
:1020F0000400002B02D0002100E000BF054B18684F
:10210000836A002B00D09847200000F02FFDC046C6
:10211000000000007830000070B500260C4D0D4C1A
:10212000641BA410A64209D1002601F077F80A4DDD
:102130000A4C641BA410A64205D170BDB300EB5835
:1021400098470136EEE7B300EB5898470136F2E7BF
:102150003C3200003C3200003C32000040320000C3
:10216000002310B59A4200D110BDCC5CC454013399
:10217000F8E710B5884202D98B18984203D30023A0
:1021800007E08B5C8354013AFBD210BDCC5CC45495
:1021900001339A42FAD1F8E703001218934200D1B2
:1021A000704719700133F9E70EB400B50B499CB0C4
:1021B0001DAB02900690079104910948094904CB90
:1021C0000591006802A9019300F0F4F90023029A36
:1021D00013701CB008BC03B01847C046FFFFFF7F58
:1021E00038E0FF1F0802FFFFC9B20378002B04D0BC
:1021F0008B4200D170470130F7E74B4259414942C9
:102200000840F7E703000A7801311A700133002A09
:10221000F9D1704710B50378002B0FD10B785A42D3
:1022200053415B42184010BD0023CA5C002AFAD01B
:10223000C45C944201D10133F7E701300378002BED
:10224000F2D11800EFE70000F0B51F000E0087B0D4
:102250000590019102920C98347800F08BF80822D6
:1022600000194378751C134036D12D2C36D1B51C7E
:1022700074780126002F62D0102F09D1302C07D19D
:1022800020222B789343582B54D110276C78023599
:102290002D4B3900F31818000393FEF715FA04913B
:1022A00001210023494202008C46180021003039E8
:1022B00009291AD80C00A74223DD591C09D063460E
:1022C000824206D302D10499A14202DB0123784362
:1022D00020182C780135E9E72E00BCE72B2C01D023
:1022E0001E00C7E7B51C7478FAE7210041391929A7
:1022F00001D8373CDFE721006139192901D8573C63
:10230000D9E75A1C08D1059A23331360029B03981E
:10231000002B09D107B0F0BD002E00D04042029A38
:10232000002AF7D0002B01D06B1E0193029B019A6B
:102330001A60EFE73024002FAAD10827A8E7302C35
:102340009ED00A27A4E7C046FFFFFF7F37B51300E2
:10235000064A05001068046A002C00D1044C0A00EB
:1023600000942900FFF770FF3EBDC04638E0FF1F14
:102370009CE0FF1FEC300068704782B0002900D15C
:1023800001A9101E06D0002B06D013780B60107820
:10239000431E984102B0704702204042FAE7000015
:1023A00070B50500002910D00C1F2368002B00DA3F
:1023B000E418280000F09BFB1D4A1368002B05D190
:1023C00063601460280000F093FB70BDA34209D93C
:1023D000216860188342F3D118685B684118216056
:1023E000EEE713005A68002A01D0A242F9D9196811
:1023F0005818A0420BD12068091858181960824259
:10240000E0D110685268411819605A60DAE7A042BA
:1024100002D90C232B60D5E721686018824203D1D2
:10242000106852684118216062605C60CAE7C0466B
:1024300020E5FF1F032370B5CD1C9D430835060022
:102440000C2D1ED20C25A9421DD8300000F04FFBE8
:10245000254A14682100002919D1244C2368002B37
:1024600003D1300000F01AFB20602900300000F09A
:1024700015FB431C2BD10C233000336000F038FBDC
:1024800003E0002DDFDA0C233360002070BD0B6801
:102490005B1B19D40B2B03D90B60CC18256003E010
:1024A0004B688C420DD11360300000F021FB2000FE
:1024B00007220B30231D9043C31AE7D05A42E25043
:1024C000E4E763600C00EFE70C004968C3E703230F
:1024D000C41C9C43A042E1D0211A300000F0DEFA77
:1024E000431CDBD1C7E7C04620E5FF1F24E5FF1FE3
:1024F000F0B58E6885B007000C00039201939E42F0
:102500003CD890238A89DB001A4234D0032509691C
:1025100023685B1A0293636902985D43EB0F5D19B0
:10252000019B6D1001331B18AB4200D91D005305F0
:1025300032D529003800FFF77DFF061E09D10C2394
:102540003B6040230120A28940421343A38105B090
:10255000F0BD029A2169FFF703FEA389144A1A40CD
:1025600080231343A381029B2661F61826606561D0
:10257000019EED1AA560019B9E4200D9019E32008A
:1025800003992068FFF7F5FDA36800209B1BA3605B
:1025900023689E192660DAE72A00380000F0A9FABD
:1025A000061EE0D121693800FFF7FAFEC7E7C046F2
:1025B0007FFBFFFFF0B59FB0029005938B890F0062
:1025C00016001B0611D50B69002B0ED14021FFF719
:1025D00031FF38603861002805D10C23029A013898
:1025E00013601FB0F0BD40237B61002306AC636124
:1025F000203363761033A37635002B78002B01D07F
:10260000252B46D1AB1B04930CD032003900029825
:10261000FFF76EFF431C00D1AEE06269049B944655
:10262000634463612B78002B00D1A5E001220023D5
:102630005242626002A9543252186E1C2360E36059
:10264000A3601370A36531780522544800F044FA62
:10265000751C00281FD12268D30604D5532302A974
:102660005B1820211970130704D5532302A95B18A6
:102670002B21197033782A2B16D0350000210A201F
:10268000E3682A786E1C303A092A4ED9002918D0FE
:1026900010E00135B1E7414B2268C01A01238340A5
:1026A000134323602E00CEE7059B191D1B6805917F
:1026B000002B01DB099304E05B42E3600223134338
:1026C00023602B782E2B0AD16B782A2B35D1059BD2
:1026D00002351A1D1B680592002B2BDB0793304E29
:1026E00029780322300000F0F7F9002806D04023B3
:1026F000801B83402268013513432360297806221A
:1027000028486E1C217600F0E7F900283CD0264BC3
:10271000002B25D10722059B0733934308330593EC
:102720006369039A9B18636166E7434301219B1821
:102730003500A6E701235B42D0E700230A201A00F8
:102740000135636029786E1C3039092903D9002BC3
:10275000C5D00792C3E74243012352183500F1E781
:1027600005AB00933A00114B2100029800E000BF36
:102770000390039B0133D3D1BB890B985B0600D434
:102780002FE7012040422CE705AB00933A00074BAE
:102790002100029800F07AF8EAE7C046E63000002F
:1027A000EC300000F030000000000000F1240000D8
:1027B000F7B5150001938A680B6900900C009342ED
:1027C00000DA130022002B6043321278002A01D075
:1027D00001332B6023689B0602D52B6802332B60E4
:1027E000062723681F4027D0230043331B785A1E37
:1027F00093412268920630D4220001994332009816
:10280000089EB047431C25D0062320682A68E1684B
:1028100003400025042B03D18D1AEB43DB171D4029
:10282000A3682269934201DD9B1AED180027BD427F
:1028300020D1002010E00137E3682A689B1ABB42D0
:10284000D2DD22000123193201990098089EB04779
:10285000431CF0D101204042FEBD3020E11843313D
:10286000087021005A1C45310978A21843320233FE
:102870001170C1E7220001231A3201990098089EC5
:10288000B047431CE6D00137D1E70000F0B589B06E
:1028900004920A0043320593039002920A7E0C00D0
:1028A0000E9B6E2A00D186E01FD8632A33D008D849
:1028B000002A00D18CE0582A4DD0250042352A70DC
:1028C00030E0642A01D0692AF7D1196825680A1D09
:1028D000280629D508681A60002803DA2D23029AF1
:1028E000404213706B4E0A274FE0732A74D008D809
:1028F0006F2A1FD0702AE0D1202209680A43226083
:1029000003E0752A16D0782AD7D1220078214532E3
:102910001170614E22E025001A684235111D1960C0
:1029200013682B70012365E008681A606906D3D527
:1029300000B2D1E719682568081D186008682E06DE
:1029400005D5544E08276F2A1BD00A2719E06D06BB
:10295000F7D580B2F5E745314E4E0A701868226807
:10296000011D00681960150621D5D30702D5202363
:102970001A4322601027002803D1202322689A439B
:1029800022602300002243331A706368A360002B87
:1029900058DB0422216891432160002854D1029D14
:1029A000002B5AD02500337842352B7055E0550660
:1029B000DBD580B2D9E71A680D68101D4969186027
:1029C00013682E0601D5196002E06D06FBD519804B
:1029D0000023029D23614FE01A68111D19601568DC
:1029E00000216268280000F077F8002801D0401B21
:1029F0006060636823610023029A13703CE02369DE
:102A00002A0004990398059DA847431C3ED02368DB
:102A10009B0715D4079BE068984239DA180037E025
:102A200022000123193204990398059EB047431CE4
:102A30002CD00135E368079A9B1AAB42F0DCE9E73A
:102A40000025F7E70028ADD0029D3900FDF73CFED8
:102A5000735C013D2B700028F7D1082F09D1236842
:102A6000DB0706D563682269934202DC3023013D0F
:102A70002B70029B5B1B2361059B07AA009321001F
:102A8000049B0398FFF794FE431CB8D101204042F9
:102A900009B0F0BDF730000008310000002370B528
:102AA000064C05000800236000F052F8431C03D1D7
:102AB0002368002B00D02B6070BDC046C0E9FF1F0B
:102AC0000B1E04D0FF2A04D98A2303608B3B180015
:102AD00070470A700123FAE7C9B28218904201D107
:102AE0000020704703788B42FBD00130F6E7704737
:102AF0007047F8B507000D001600002905D1110038
:102B0000FFF798FC04002000F8BD002A03D1FFF76E
:102B100047FC3400F7E700F012F82C00B042F2D284
:102B200031003800FFF786FC041EECD0290032008B
:102B3000FFF716FB29003800FFF732FCE3E70B1F15
:102B40001B68181F002B01DA0B58C01870470000D3
:102B5000044A1368002B00D1034B181810601800AA
:102B60007047C04628E5FF1FC8E9FF1FFEE7C046C3
:102B7000363530302E3533000000003032353334F6
:102B80002E3535340000363530302E30323335397D
:102B90000000010141542B257325730D0A00736554
:102BA0006E6420746F206D6F64756C653A200D0A39
:102BB000004E5242004552524F52004F4B00434389
:102BC0004C4B004346554E00434D45453D004E534A
:102BD0004F52463D302C32004E534F53543D004E21
:102BE000534F43523D22444752414D222C31372C02
:102BF00034323030302C310043475041444452008D
:102C000043535100434741435400434744434F4ECD
:102C1000543D312C224950222C22222C22220043C6
:102C2000455245473F00434F5053004E50494E3D9B
:102C3000302C2231323334220043474D4900415475
:102C4000004E474C4C005047535600476F74204786
:102C500050530D0A004461746120696E76616C699D
:102C6000642C2077616974696E6720666F722076C4
:102C7000616C696420646174610D0A00256C640DE7
:102C80000A0001016C7074696D657220696E7420B0
:102C9000666C61673A20256C780D0A005265696E92
:102CA0006465657220496F54206861732073746194
:102CB000727465640D0A436F6D6D616E64202269E4
:102CC0006F742220746F207374617274206578654C
:102CD000637574696E67207265696E6465657220DC
:102CE000747261636B206379636C650D0A436F6D69
:102CF0006D616E642022677073696E666F3D31226C
:102D0000206F722022677073696E666F3D302220DB
:102D1000746F20737769746368204750532064612F
:102D20007461206F6E2F6F66660D0A004F7220650A
:102D30006E746572206E6F726D616C2041542063F9
:102D40006F6D6D616E6473206865726520666F7269
:102D500020534152412D4E320D0A4D6F64756C6502
:102D60007320706F7765726564206F6E20616E648A
:102D700020626F6F74696E67206E6F77210D0A0095
:102D800031313131310066616C736500576F6B65AD
:102D90006E20627920414343454C2C207265696E58
:102DA0006465657220697320212121414C49564593
:102DB0002121210D0A0077616B6520776173203036
:102DC00020676F696E6720746F20736C6565700D86
:102DD0000A007472756500696F74005374617274CF
:102DE000696E67205265696E6465657220496F542B
:102DF000206379636C650D0A00677073696E666F96
:102E00003D3100677073696E666F3D300072666FAA
:102E100066660072666F6E00B5620073656E642050
:102E2000746F206770730D0A00466F756E642055CD
:102E3000425820726573706F6E73650D0A00526F91
:102E400067657220696E636C756465206D61696E7B
:102E50002E630D0A004346554E3D30003032353367
:102E6000302E3536393531003D312C31005044504B
:102E70002031206163746976617465640D0A0052C3
:102E80006567697374657265640D0A00536F636BDF
:102E900065742072656164790D0A005044502063A6
:102EA0006F6E74657874203120646566696E656440
:102EB0000D0A002B43455245473A20302C31004340
:102EC000455245475F4F4B0D0A002B55464F544125
:102ED00053007265626F6F7465640D0A0074696DEA
:102EE000656F7574206572726F720D0A00302C2246
:102EF0003136372E39392E3230372E313333222CBA
:102F0000313838342C25642C222573220073656EE9
:102F100074002B4E50494E3A20224F4B22006163E1
:102F20006B0D0A0069702020666F756E640D0A00D3
:102F30007B0D0A0D0A202020202273657269616CC6
:102F40006E756D626572223A222573222C0D0A007D
:102F500020202020226C6174223A222573222C0D1D
:102F60000A0020202020226C6F6E67223A222573EF
:102F7000222C0D0A002020202022737461747573A6
:102F8000223A222573222C0D0A00202020202262C2
:102F9000617474657279223A222564220D0A0D0A41
:102FA0007D0025303278007265696E646565723126
:102FB000323334007265696E6465657200726569EA
:102FC0006E64656572747261636B65720000000007
:102FD00080841E0000127A000600341007003410AE
:102FE0001400160018001A001C001E002200280001
:102FF0001C002000240028002C0030003800440071
:103000003000380040004800500058006800800040
:1030100050006000700080009000A000C000F00030
:10302000A000C000E0000001200140018001E0019B
:1030300040018001C0010002400280020003C00381
:10304000800200038003000480040005000680075E
:1030500000050006000700080009000A000C000F28
:1030600014003810150038100102000000000000A4
:1030700000000000000001003CE0FF1F0000000015
:103080000000000000000000000000000000000040
:103090000000000000000000000000000000000030
:1030A0000000000000000000000000000000000020
:1030B0000000000000000000000000000000000010
:1030C0000000000000000000000000000000000000
:1030D0000000000000000000000000004300504F0E
:1030E000534958002E00232D302B2000686C4C00D3
:1030F00065666745464700303132333435363738F8
:103100003941424344454600303132333435363755
:103110003839616263646566000020202020202029
:103120002020202828282828202020202020202077
:103130002020202020202020202088101010101077
:1031400010101010101010101010040404040404C7
:1031500004040404101010101010104141414141AA
:10316000410101010101010101010101010101010F
:1031700001010101011010101010104242424242A0
:1031800042020202020202020202020202020202DF
:1031900002020202021010101020000000000000C5
:1031A000000000000000000000000000000000001F
:1031B000000000000000000000000000000000000F
:1031C00000000000000000000000000000000000FF
:1031D00000000000000000000000000000000000EF
:1031E00000000000000000000000000000000000DF
:1031F00000000000000000000000000000000000CF
:1032000000000000000000000000000000000000BE
:10321000000000000000000000000000F8B5C046FB
:10322000F8BC08BC9E467047F8B5C046F8BC08BC60
:043230009E467047FF
:0832340024D2FF7F010000001D
:04323C003904000051
:043240001104000075
:103244001F2C0000042C00000A2C0000F82B0000A6
:103254002B2C0000DF2B0000D82B0000D00700002F
:1032640003000000BD2F0000A72F0000B42F0000B2
:10327400B42F000000127A003CE0FF1F00000000A1
:103284009C300000BC3000007C30000000000000D6
:10329400000000000000000000000000000000002A
:1032A400000000000000000000000000000000001A
:1032B400000000000000000000000000000000000A
:1032C40000000000000000000000000000000000FA
:1032D40000000000000000000000000043000000A7
:1032E40000000000000000000000000000000000DA
:1032F4000000000000000000000000004300000087
:1033040000000000000000000000000000000000B9
:103314000000000000000000000000004300000066
:103324000000000000000000000000000000000099
:103334000000000000000000000000004300000046
:103344000000000000000000000000000000000079
:103354000000000000000000000000004300000026
:103364000000000000000000000000000000000059
:103374000000000000000000000000004300000006
:103384000000000000000000000000000000000039
:1033940000000000000000000000000043000000E6
:1033A4000000000000000000000000000000000019
:1033B400000000000000000000000000C12A00001E
:1033C4007B2300000000000019310000E4300000FD
:1033D400B02B0000B02B0000B02B0000B02B00007D
:1033E400B02B0000B02B0000B02B0000B02B00006D
:1033F400B02B0000FFFFFFFFFFFFFFFFFFFFFFFFFA
:10340400FFFF000001004153434949000000000050
:1034140000000000000000000000000000000000A8
:10342400000000000000415343494900000000002F
:103434000000000000000000000000000000000088
:08344400000000000000000080
:04000003000004D124
:00000001FF
