:1000000000600020E904000035050000390500000B
:1000100000000000000000000000000000000000E0
:100020000000000000000000000000003D0500008E
:100030000000000000000000410500009D090000D4
:10004000490500004D050000510500005505000060
:100050003105000031050000310500003D080000B9
:10006000590500005D050000610500006505000000
:10007000B90800005D090000050900003105000015
:100080003105000031050000310500003105000098
:100090003105000031050000310500007505000044
:1000A0003105000031050000310500003105000078
:1000B000890800003105000031050000310500000D
:10040000FFFFFFFFFFFFFFFFFFFFFFFFFE1FFFFFDD
:1004100010B5064C2378002B07D1054B002B02D0DA
:10042000044800E000BF0123237010BD68E0FF1FF7
:1004300000000000AC110000084B10B5002B03D0E9
:100440000749084800E000BF07480368002B00D1B7
:1004500010BD064B002BFBD09847F9E700000000C9
:100460006CE0FF1FAC11000064E0FF1F0000000003
:10047000164B002B00D1144B9D46402292029A1A33
:10048000924600218B460F461348144A121A00F078
:1004900041FE0F4B002B00D098470E4B002B00D095
:1004A00098470020002104000D000D48002802D0CC
:1004B0000C4800E000BF00F009FE2000290000F019
:1004C0006FF900F0EDFDC04600000800006000205C
:1004D000000000000000000068E0FF1F84E5FF1F2F
:1004E000000000000000000072B60A480A490160DE
:1004F0000A6882F30888094880470949094A0A4B73
:100500009B1A03DD043BC858D050FBDC62B6074899
:100510008047000008ED00E0000000007D100000B2
:10052000D411000000E0FF1F68E0FF1F710400000D
:10053000114800471148004711480047114800473B
:10054000114800471148004711480047114800472B
:10055000114800471148004711480047114800471B
:10056000114800471148004711480047114800470B
:1005700011480047114800473105000035050000CB
:10058000390500003D050000410500009D090000FF
:100590006D0A00007D0A00008D0A00009D0A00001F
:1005A000410B0000590B0000410E0000510E0000ED
:1005B000750D0000910D0000E10A0000AD0D000076
:1005C000002243088B4274D303098B425FD3030A92
:1005D0008B4244D3030B8B4228D3030C8B420DD3A5
:1005E000FF22090212BA030C8B4202D31212090233
:1005F00065D0030B8B4219D300E0090AC30B8B4271
:1006000001D3CB03C01A5241830B8B4201D38B031E
:10061000C01A5241430B8B4201D34B03C01A5241C3
:10062000030B8B4201D30B03C01A5241C30A8B4206
:1006300001D3CB02C01A5241830A8B4201D38B02F1
:10064000C01A5241430A8B4201D34B02C01A524195
:10065000030A8B4201D30B02C01A5241CDD2C30907
:100660008B4201D3CB01C01A524183098B4201D383
:100670008B01C01A524143098B4201D34B01C01A6E
:10068000524103098B4201D30B01C01A5241C308E6
:100690008B4201D3CB00C01A524183088B4201D355
:1006A0008B00C01A524143088B4201D34B00C01A41
:1006B0005241411A00D20146524110467047FFE7AD
:1006C00001B5002000F006F802BDC0460029F7D0B1
:1006D00076E770477047C046F0B585B000F0A4F9E2
:1006E000264C0600200000F039FC9623E1229B01F5
:1006F0002360012301AD12020192A371E371AB7279
:10070000EB721F4A1F4B2048D158204F08408021D0
:1007100049050143D150D1581D4808408021C904E2
:100720000143D15038003200290000F031FA320084
:100730002100184800F0A0FB2900E1238025164C79
:100740003200AD015B022000019300F021FA290084
:10075000380000F0E1FA8023104E5B01336029007D
:100760000C4800F005FC8023DB01336029002000E9
:1007700000F0D2FA356005B0F0BDC04658E3FF1F67
:100780000070044004100000FFFFFFCF0040054050
:10079000FFFFFFF300C006400050054000E100E00D
:1007A000082370B51C4A91780B43937080221B4B31
:1007B0001A6000F00BFC00F007FC00F035F9184956
:1007C000FFF7FEFE174B186000F02EF9FA218900A2
:1007D000FFF7F6FE144B013898420DD8C021134A9A
:1007E000090650601248036A1B021B0A0B4303628E
:1007F0000023936007331360FFF76EFFFA240D4A5E
:1008000004210D4800F070F910260B4DA400EE6095
:10081000200000F0CBF8FAE700D0074000E100E04C
:10082000581B000070E3FF1FFFFFFF0010E000E017
:1008300000ED00E02811000000F00F4001220E4BF7
:10084000D97911420DD00D490D480A7001680A434B
:10085000026080220B49086802430A6001229A71F3
:10086000704799791142F9D00220044908709979AA
:100870000A439A71F2E7C04600C0074000E0FF1F3C
:1008800038800440000004408022084B196811435E
:10089000196019681142FCD10823054A91780B436D
:1008A00093708022034B9203DA607047000004408B
:1008B00000D0074040F00F4010B50D4C2021200023
:1008C00000F038FA80220B4BD203DA60E368D9B229
:1008D00000290CD0084A094C10882354138801338E
:1008E0009BB213800D2902D10122054B1A7010BD55
:1008F0000040054040F00F4088E0FF1F74E3FF1FF9
:100900008AE0FF1F10B5104C2021200000F042FBB0
:1009100080220E4BD2030E49DA60E3790878DBB20D
:100920000C4A002806D110880B4C2354138801333D
:100930009BB21380F4231288FF339A4202D9F33B0F
:10094000FF3B0B7010BDC04600C0064040F00F409A
:1009500086E0FF1F84E0FF1FF0E0FF1F10B50B4C87
:100960002021200000F0E6F98022094B094992037A
:10097000DA60E2680B880B88D2B201339BB20B803D
:100980000D2A02D1044B0C3A1A7010BD00500540DC
:1009900040F00F408CE0FF1F8EE0FF1F024A1368FB
:1009A000013313607047C04690E0FF1F034B1A6885
:1009B00080181A689042FCD87047C04690E0FF1F2C
:1009C0000222084B1878104004D19A791207920F2E
:1009D000012A05D101225B781340034A9B009858F5
:1009E0007047C046004006402C11000010B50B4C6B
:1009F000A3791B079B0F012B07D0002B0CD00020E5
:100A0000022B08D1064B186805E0FFF7D9FF237ABF
:100A10001B075B0FD84010BD0248FCE700400640B2
:100A200078E5FF1F006CDC0210B5FFF7DFFF044B19
:100A3000044AD158090F0131FFF7C2FD10BDC0466D
:100A40004410000000700440037902681B01D318B1
:100A5000802210B5FC33D96852040A43DA608368F7
:100A6000002B01D0C168984710BD000010B5024BA3
:100A70001868FFF7E9FF10BD94E0FF1F10B5024BA7
:100A80005868FFF7E1FF10BD94E0FF1F10B5024B5F
:100A90009868FFF7D9FF10BD94E0FF1F10B5024B17
:100AA000D868FFF7D1FF10BD94E0FF1F10B5094CC7
:100AB0002168002904D0084B084A1B681068984731
:100AC0006168002904D0044B044A5B685068984769
:100AD00010BDC046A4E0FF1FACE0FF1FB4E0FF1F45
:100AE00010B5FFF7E3FF10BD10B514780123002CFB
:100AF00004D18B4042699A43426110BD52788B40C9
:100B0000002A06D1836001238B404269134343616D
:100B1000F3E74360F7E70000C37810B5DB0602D4C3
:100B200083789B0605D5044B1B689847BFF34F8F0E
:100B300010BD024BF8E7C046C4E0FF1FC8E0FF1F2E
:100B400010B5034B03481968FFF7E6FF10BDC04618
:100B5000BCE0FF1F0060064010B5034B0348596816
:100B6000FFF7DAFF10BDC046BCE0FF1F0070064073
:100B7000054A0023904204D0044BC018431E9841FC
:100B8000431C18007047C0460040054000B0FABF43
:100B9000F0B50F6889B0BB000493042300930023D1
:100BA00004000D000592039702930693049905989B
:100BB000FFF706FD86B2002E00D101360099059898
:100BC0007143FFF7FDFC0099C31B0193731C59434C
:100BD00005980793FFF7F4FC019B381A834202D96A
:100BE0006B469E8B0190019B039A934203D803931B
:100BF000009B06960293009B01330093049BDB1934
:100C00000493009B212BD1D164213800FFF7D8FC3D
:100C100003235843039B834267D82000FFF7A8FFB4
:100C2000334B8000C158334B0A0CD218012389B2D0
:100C30008B40106803431360A3682F4A1340029A45
:100C4000A360043A2368032A02D880229202134345
:100C5000F821E020294A49051A40029BC000013BC7
:100C60001B060B401343069A5B0BD204D20C5B03AA
:100C7000134323602368224A134023606B7AA268DF
:100C80001B0203401F482979024004200A431A43EB
:100C90002B7A9B0003401343002901D010221343F9
:100CA0008021A360EB7989015B0322680B40164920
:100CB0000A4013432360AB79002B14D1134B6268B5
:100CC00013436360AA7AA368002A02D08022120329
:100CD0001343EA7A002A02D08022D2021343002072
:100CE000A36009B0F0BD0A4BE9E70A48F9E7C0463E
:100CF0003411000000700440FFFFF3FFFFFFFFE02E
:100D0000FFFFFFDFE8F8FFFFFFDFFFFF00C01FC0AE
:100D100000C01FE02105000010B5C02402680B02CE
:100D2000240223401343FF22036083689143194345
:100D3000816010BD4268CB0F52005208DB0713439D
:100D4000084A1A40084B0B401343084A1340C0227C
:100D500012020A40134343604068084000D0044830
:100D60007047C046FFFFE0BF00001F40FF3FFFFF8E
:100D70001A05000010B5034B034A1B6811680348AD
:100D8000984710BDD4E0FF1FCCE0FF1F0040054096
:100D900010B5034B034A1B6851680348984710BDC0
:100DA000D4E0FF1FCCE0FF1F0050054010B5154CEC
:100DB0006168002910D0144BDA6F920302D4DA6F05
:100DC000520309D5DA6F920502D4DB6F5B0503D5B8
:100DD0000E4B0F481B6898472168002910D00C4B18
:100DE0001A68920302D41A68520309D51A68920548
:100DF00002D41B685B0503D5064B05481B68984762
:100E000010BDC0467CE5FF1F04F00240D8E0FF1F84
:100E100000F00240DCE0FF1FC27810B5054B8900EE
:100E2000D20604D5044A12685958904710BD034AA7
:100E3000F9E7C046E0E0FF1FE8E0FF1FECE0FF1F1E
:100E400010B500210148FFF7E7FF10BD0060074023
:100E500010B501210148FFF7DFFF10BD007007400A
:100E6000031E04D0034BC018431E9841831C180076
:100E70007047C0460040F9BFF7B50E6804000F0088
:100E8000100031010092FFF79BFB85B2002D00D1CD
:100E90000135009B31005B0018000093FFF790FBC9
:100EA0006901401A83B2C91800980193FFF788FBC3
:100EB000331A0093864201D2831B009364213000D1
:100EC000FFF77EFB03235843009B83423ED820005C
:100ED000FFF7C6FF1E4B8000C1581E4B0A0CD218EC
:100EE000012389B28B401068034313600C22E3781E
:100EF0009343E3701F2321782A0A99430A43EDB2F2
:100F000022706570A07A019A98431A401043172204
:100F10000421A072A37893437A7992000A40397928
:100F20001343002902D010220A431343A370E3782D
:100F3000BA79DBB2002A01D008221343FA79002AD9
:100F400001D0042213430020E370FEBD0248FCE7F9
:100F50003C11000000700440F5030000E1235B0237
:100F600003600023037143718371C37170470000F4
:100F7000074B194003780A0A0B43DBB20370C378AE
:100F8000090C1343DBB2C370837919438171704735
:100F900040F00F004022437993430A0A1343DBB227
:100FA00043711723194201D00379C3790B0701D587
:100FB0000379C3790379407900021843084000D0CF
:100FC00000487047EE030000704700008022244B69
:100FD000D200196810B50A431A60802219681201FC
:100FE0000A431A608022196852010A431A6080225B
:100FF000196892000A431A608022196892010A4314
:101000001A60C0221748184BC1689200194011435A
:10101000C1600169154C19401143016180212069AB
:101020004900184008432061606818400843606028
:101030000F4C2068184001430E4821608169194017
:1010400011438161C16919401143C1610A48416C72
:10105000194011434164016C0B401A43026410BDF6
:101060003880044000B00440FFF8FFFF00900440C7
:1010700000A0044000C0044000D004400823064AF9
:101080009178194202D091780B4393708823002104
:10109000024A5B01D150704700D007400070044005
:1010A000084B10B50400002B02D0002100E000BF67
:1010B000054B1868836A002B00D09847200000F089
:1010C00031F8C046000000004811000070B500264D
:1010D0000C4D0D4C641BA410A64209D1002600F053
:1010E00065F80A4D0A4C641BA410A64205D170BDD8
:1010F000B300EB5898470136EEE7B300EB5898473A
:101100000136F2E7CC110000CC110000CC11000038
:10111000D011000003008218934200D1704719706B
:101120000133F9E7FEE7C0460101000080841E009C
:1011300000127A001400381015003810000000006A
:10114000000000000C00341004E0FF1F000000004D
:10115000000000000000000000000000000000008F
:10116000000000000000000000000000000000007F
:10117000000000000000000000000000000000006F
:10118000000000000000000000000000000000005F
:10119000000000000000000000000000000000004F
:1011A000000000000000000000000000F8B5C0468C
:1011B000F8BC08BC9E467047F8B5C046F8BC08BCF1
:0411C0009E46704790
:0811C400ACF2FF7F0100000006
:0411CC0039040000E2
:0411D0001104000006
:1011D40002000000000000006C1100008C110000EF
:1011E4004C1100000000000000000000000000009E
:1011F40000000000000000000000000000000000EB
:1012040000000000000000000000000000000000DA
:1012140000000000000000000000000000000000CA
:1012240000000000000000000000000000000000BA
:081234000000000000000000B2
:04000003000004E90C
:00000001FF
