:1000000000600020D10400001D0500002105000053
:1000100000000000000000000000000000000000E0
:1000200000000000000000000000000025050000A6
:100030000000000000000000290500002D05000060
:100040003105000035050000390500003D050000C0
:100050001905000019050000190500001905000028
:100060004105000045050000490500004D05000060
:100070005105000055050000590500001905000054
:1000800019050000190500001905000019050000F8
:100090001905000019050000190500005D050000A4
:1000A00019050000190500001905000019050000D8
:1000B00019050000190500001905000019050000C8
:10040000FFFFFFFFFFFFFFFFFFFFFFFFFE3FFFFFBD
:1004100010B5064C2378002B07D1054B002B02D0DA
:10042000044800E000BF0123237010BD68E0FF1FF7
:1004300000000000F41B0000044B10B5002B03D09B
:100440000349044800E000BF10BDC04600000000A2
:100450006CE0FF1FF41B0000164B002B00D1144B67
:100460009D46402292029A1A924600218B460F46E0
:100470001348144A121A00F015FC0F4B002B00D041
:1004800098470E4B002B00D0984700200021040015
:100490000D000D48002802D00C4800E000BF00F01D
:1004A000DDFB2000290000F089F900F0C1FBC04607
:1004B00000000800006000200000000000000000B4
:1004C00068E0FF1F00E1FF1F0000000000000000C7
:1004D00072B60A480A4901600A6882F30888094826
:1004E00080470949094A0A4B9B1A03DD043BC85857
:1004F000D050FBDC62B607488047000008ED00E002
:10050000000000000D0C00001C1C000000E0FF1F9C
:1005100068E0FF1F590400001148004711480047D8
:10052000114800471148004711480047114800474B
:10053000114800471148004711480047114800473B
:10054000114800471148004711480047114800472B
:10055000114800471148004711480047114800471B
:10056000190500001D0500002105000025050000FB
:10057000290500002D050000B1080000C108000099
:10058000D1080000E1080000550900006D090000D5
:10059000310B0000410B0000650A0000810A0000D9
:1005A000250900009D0A0000002243088B4274D3F5
:1005B00003098B425FD3030A8B4244D3030B8B4264
:1005C00028D3030C8B420DD3FF22090212BA030C6D
:1005D0008B4202D31212090265D0030B8B4219D34E
:1005E00000E0090AC30B8B4201D3CB03C01A52416E
:1005F000830B8B4201D38B03C01A5241430B8B42B6
:1006000001D34B03C01A5241030B8B4201D30B039E
:10061000C01A5241C30A8B4201D3CB02C01A5241C5
:10062000830A8B4201D38B02C01A5241430A8B4288
:1006300001D34B02C01A5241030A8B4201D30B0271
:10064000C01A5241CDD2C3098B4201D3CB01C01A8B
:10065000524183098B4201D38B01C01A5241430995
:100660008B4201D34B01C01A524103098B4201D383
:100670000B01C01A5241C3088B4201D3CB00C01AF0
:10068000524183088B4201D38B00C01A5241430868
:100690008B4201D34B00C01A5241411A00D201468D
:1006A000524110467047FFE701B5002000F006F800
:1006B00002BDC0460029F7D076E770477047C046B4
:1006C00070B50D001400002908D00138012805D8A4
:1006D0001100280000F049F8200070BD0124644298
:1006E000FAE710B50B00002804D11100180000F043
:1006F00040F810BD01204042FBE7000010B50300A8
:1007000012480479022C11D0062C01D0012C1AD1E8
:100710000068002A05D00A00190000F019FA00202C
:1007200003E00A00190000F01FFA10BD0068002A5B
:1007300004D00A00190000F047F9F0E70A00190098
:1007400000F050F9F1E70120EFE7C04684E0FF1F19
:1007500010B50C1E06D0002805D00122FFF7CEFFF1
:10076000002800D00024200010BD10B5FFF7F0FFD6
:1007700010BDF8B505000F000024BC4204D316D10B
:1007800000232B552000F8BD2E1900220121300036
:10079000FFF7B4FF00280ED133780D2B01D00A2BC0
:1007A00003D1002C03D13470013C0134E5E7002370
:1007B0002D196B70E6E701246442E3E710B50548A4
:1007C00000F078FA00F020FA00F000FA00F0FCF9EE
:1007D000C046FDE7441B00004168074A074BD15063
:1007E0000378C0209B0400031168034004480140C3
:1007F0000B4313607047C046007004404410000073
:10080000FFFFF3FF70B503251F4B01789A798478B9
:1008100092082A40012A0DD101290BD15A780A40A9
:10082000A24207D03F261A7832401A709A7992086D
:100830002A42FBD10E250726C27852002A401A729E
:1008400042790579D20135402A430125D2B21A7680
:100850005A782C40AA4322435A7040788A010243B6
:10086000D2B21A705A78520705D5022903D10A006C
:1008700098791042FCD003209A7992080240914264
:10088000FAD1002070BDC0460040064003790268DE
:100890001B01D3188022FC33D96852040A4310B5D7
:1008A000DA608368002B01D0C168984710BD000052
:1008B00010B5024B1868FFF7E9FF10BD8CE0FF1F71
:1008C00010B5024B5868FFF7E1FF10BD8CE0FF1F29
:1008D00010B5024B9868FFF7D9FF10BD8CE0FF1FE1
:1008E00010B5024BD868FFF7D1FF10BD8CE0FF1F99
:1008F00010B5094C2168002904D0084B084A1B6830
:10090000106898476168002904D0044B044A5B686A
:100910005068984710BDC0469CE0FF1FA4E0FF1F31
:10092000ACE0FF1F10B5FFF7E3FF10BDC37810B5B3
:10093000DB0602D483789B0605D5044B1B689847D9
:10094000BFF34F8F10BD024BF8E7C046BCE0FF1F5E
:10095000C0E0FF1F10B5034B03481968FFF7E6FF1F
:1009600010BDC046B4E0FF1F0060064010B5034B49
:1009700003485968FFF7DAFF10BDC046B4E0FF1F17
:10098000007006404268CB0F52005208DB07134349
:10099000094A1A40094B0B401343094A1340C0222D
:1009A00012020A401343436040680840411E8841D8
:1009B0000449404208407047FFFFE0BF00001F406D
:1009C000FF3FFFFF1A050000802310B58A181B04A3
:1009D000914200D110BD44681C42FCD00C7801311A
:1009E000C460F5E7F8B58A180B0080218027C9029A
:1009F0008C463F0393422CD080268025B603AD025F
:100A00004168314203D0C16819700133F2E744688C
:100A10003C4205D080210903FFF7B4FF0E48F8BD22
:100A200061460C4205D08021C902FFF7ABFF0B489D
:100A3000F5E780212C4204D08902FFF7A3FF084884
:100A4000EDE749020C42DBD0FFF79CFFA420C00079
:100A5000E5E70020E3E7C0461D0500001E05000095
:100A60001F05000010B5034B034A1B6811680348BB
:100A7000984710BDCCE0FF1FC4E0FF1F00400540B9
:100A800010B5034B034A1B6851680348984710BDD3
:100A9000CCE0FF1FC4E0FF1F0050054010B5154C0F
:100AA0006168002910D0144BDA6F920302D4DA6F18
:100AB000520309D5DA6F920502D4DB6F5B0503D5CB
:100AC0000E4B0F481B6898472168002910D00C4B2B
:100AD0001A68920302D41A68520309D51A6892055B
:100AE00002D41B685B0503D5064B05481B68984775
:100AF00010BDC046F4E0FF1F04F00240D0E0FF1F2D
:100B000000F00240D4E0FF1F064AC378890010B508
:100B10008958DB0603D5044B1B68984710BD034B6F
:100B2000FAE7C046D8E0FF1FE0E0FF1FE4E0FF1F48
:100B300010B500210148FFF7E7FF10BD0060074036
:100B400010B501210148FFF7DFFF10BD007007401D
:100B50008A18914200D1704703795BB2002BFBDA0F
:100B60000B780131C371F4E7F0B5082604278A1821
:100B7000914217D020250EE003799C4664464379C4
:100B80001B02234333420FD13B420FD102242342A5
:100B90000ED1DB070ED403792B42EDD0C3790B7055
:100BA0000131E5E70020F0BD0448FCE70448FAE71E
:100BB0000448F8E7FD208000F5E7C046F103000097
:100BC000F2030000F303000070470000074A084BDF
:100BD000084910B50848D150FFF714FE0748FFF741
:100BE000FBFD074B074A1A6010BDC0460070044069
:100BF00044100000000007104C1B0000541B0000B4
:100C000000E0FF1F006CDC02704700000823064A6A
:100C10009178194202D091780B4393708823002178
:100C2000024A5B01D150704700D007400070044079
:100C3000084B10B50400002B02D0002100E000BFDB
:100C4000054B1868836A002B00D09847200000F0FD
:100C500077FFC046000000005C1B000070B5002656
:100C60000C4D0D4C641BA410A64209D1002600F0C7
:100C7000C1FF0A4D0A4C641BA410A64205D170BDE9
:100C8000B300EB5898470136EEE7B300EB589847AE
:100C90000136F2E7141C0000141C0000141C0000B4
:100CA000181C000003001218934200D170471970FD
:100CB0000133F9E70FB40B4B13B51C68002C05D0BA
:100CC000A369002B02D1200000F050F805AB049A74
:100CD000A1682000019300F063F916BC08BC04B0C1
:100CE0001847C04604E0FF1F002310B5040003604E
:100CF0004360836081814366C28103614361836194
:100D0000190008225C30FFF7CDFF054B24626362B7
:100D1000044BA362044BE362044B236310BDC04643
:100D2000DD140000051500003D15000069150000E8
:100D300010B5024900F08CF810BDC0466D180000D7
:100D400070B568254A1E55430E002900743100F025
:100D5000A1F8041E08D000212A00016046600C3072
:100D6000A0606832FFF79EFF200070BD836913B555
:100D70000400002B28D18364C3640365134B144A19
:100D80001B6882620193984201D101238361200094
:100D900000F020F86060200000F01CF8A060200047
:100DA00000F018F80022E06004216068FFF79CFF63
:100DB00001220921A068FFF797FF02221221E068B3
:100DC000FFF792FF0123A36113BDC0465C1B000027
:100DD000310D0000F8B51C4B07001E68B369002BED
:100DE00002D13000FFF7C2FF4836B4687368013B98
:100DF00004D53368002B07D03668F6E70C22A55ED1
:100E0000002D0DD06834F2E704213800FFF798FF79
:100E100030600028F0D10C2304003B602000F8BDB6
:100E200020000A4B656625606560A560E36025616A
:100E30006561A561082229005C30FFF733FF656317
:100E4000A563A564E564E9E75C1B00000100FFFF02
:100E5000F7B504000700002601914834002C01D1A9
:100E60003000FEBD6368A5680093009B013B0093C2
:100E700001D52468F2E7AB89012B08D90E22AB5EBD
:100E8000013304D029003800019B98470643683598
:100E9000EBE70000032370B5CD1C9D430835060029
:100EA0000C2D1ED20C25A9421DD8300000F095FD56
:100EB000254A14682100002919D1244C2368002BED
:100EC00003D1300000F0F8FA20602900300000F073
:100ED000F3FA431C2BD10C233000336000F07EFD6D
:100EE00003E0002DDFDA0C233360002070BD0B68B7
:100EF0005B1B19D40B2B03D90B60CC18256003E0C6
:100F00004B688C420DD11360300000F067FD20006B
:100F100007220B30231D9043C31AE7D05A42E250F8
:100F2000E4E763600C00EFE70C004968C3E70323C4
:100F3000C41C9C43A042E1D0211A300000F0BCFA4E
:100F4000431CDBD1C7E7C046E8E0FF1FECE0FF1F12
:100F5000936810B5013B9360002B04DA9469A342B7
:100F600007DB0A2905D01368581C106019700800A7
:100F700010BD00F0FFFA0100F9E7F8B506000F0018
:100F80001400D518AC4201D1002007E021783A00C6
:100F90003000FFF7DDFF0134431CF3D1F8BD000042
:100FA000F0B59FB002900F0016000593002805D001
:100FB00083690493002B01D1FFF7D8FE7B4B9F423E
:100FC0005BD1029B5F68BB891B0762D53B69002B25
:100FD0005FD0002306AC6361203363761033A376C1
:100FE00035002B78002B01D0252B5CD1AB1B049353
:100FF0000CD0320039000298FFF7BFFF431C00D12C
:10100000C4E06269049B9446634463612B78002BBF
:1010100000D1BBE0012200235242626002A9543297
:1010200052186E1C2360E360A3601370A3653178CF
:1010300005225F4800F0C6FC751C002835D12268E7
:10104000D30604D5532302A95B1820211970130776
:1010500004D5532302A95B182B21197033782A2B4E
:101060002CD0350000210A20E3682A786E1C303A23
:10107000092A64D900292ED026E04E4B9F4202D186
:10108000029B9F689FE74C4B9F429CD1029BDF686D
:1010900099E73900029800F0D7FA002899D001208A
:1010A00040421FB0F0BD01359BE7414B2268C01A9A
:1010B00001238340134323602E00B8E7059B191DCD
:1010C0001B680591002B01DB099304E05B42E360A0
:1010D0000223134323602B782E2B0AD16B782A2B03
:1010E00035D1059B02351A1D1B680592002B2BDBA1
:1010F0000793324E29780322300000F063FC002869
:1011000006D04023801B83402268013513432360AF
:10111000297806222A486E1C217600F053FC00280C
:101120003AD0284B002B25D10722059B0733934348
:10113000083305936369039A9B18636150E743433F
:1011400001219B18350090E701235B42D0E7002383
:101150000A201A000135636029786E1C303909298C
:1011600003D9002BC5D00792C3E74243012352188D
:101170003500F1E705AB00933A00134B21000298CC
:1011800000E000BF0390039B0133D3D1BB895B0612
:1011900000D584E70B9884E705AB00933A000A4B2F
:1011A0002100029800F080F8ECE7C046801B0000A8
:1011B000C01B0000A01B0000601B0000C61B00003D
:1011C000CA1B0000000000007B0F0000F7B51500EF
:1011D00001938A680B6900900C00934200DA1300B7
:1011E00022002B6043321278002A01D001332B6099
:1011F00023689B0602D52B6802332B6006272368E1
:101200001F4027D0230043331B785A1E9341226886
:10121000920630D42200019943320098089EB047CC
:10122000431C25D0062320682A68E1680340002576
:10123000042B03D18D1AEB43DB171D40A3682269F1
:10124000934201DD9B1AED180027BD4220D10020FA
:1012500010E00137E3682A689B1ABB42D2DD220006
:101260000123193201990098089EB047431CF0D120
:1012700001204042FEBD3020E118433108702100BA
:101280005A1C45310978A218433202331170C1E764
:10129000220001231A3201990098089EB047431C8E
:1012A000E6D00137D1E70000F0B589B004920A001A
:1012B00043320593039002920A7E0C000E9B6E2A25
:1012C00000D186E01FD8632A33D008D8002A00D185
:1012D0008CE0582A4DD0250042352A7030E0642A2F
:1012E00001D0692AF7D1196825680A1D280629D571
:1012F00008681A60002803DA2D23029A404213700E
:101300006B4E0A274FE0732A74D008D86F2A1FD07B
:10131000702AE0D1202209680A43226003E0752A7E
:1013200016D0782AD7D12200782145321170614E2B
:1013300022E025001A684235111D196013682B70D0
:10134000012365E008681A606906D3D500B2D1E7C9
:1013500019682568081D186008682E0605D5544EC2
:1013600008276F2A1BD00A2719E06D06F7D580B22F
:10137000F5E745314E4E0A7018682268011D006875
:101380001960150621D5D30702D520231A43226000
:101390001027002803D1202322689A4322602300CB
:1013A000002243331A706368A360002B58DB0422C9
:1013B000216891432160002854D1029D002B5AD00E
:1013C0002500337842352B7055E05506DBD580B2C9
:1013D000D9E71A680D68101D4969186013682E0650
:1013E00001D5196002E06D06FBD519800023029D2E
:1013F00023614FE01A68111D1960156800216268A9
:10140000280000F0DFFA002801D0401B606063680C
:1014100023610023029A13703CE023692A00049997
:101420000398059DA847431C3ED023689B0715D40D
:10143000079BE068984239DA180037E02200012360
:10144000193204990398059EB047431C2CD00135EE
:10145000E368079A9B1AAB42F0DCE9E70025F7E75F
:101460000028ADD0029D3900FFF724F9735C013DDF
:101470002B700028F7D1082F09D12368DB0706D588
:1014800063682269934202DC3023013D2B70029B8A
:101490005B1B2361059B07AA00932100049B039813
:1014A000FFF794FE431CB8D10120404209B0F0BDC3
:1014B000D11B0000E21B0000002370B5064C0500A4
:1014C0000800236000F02EFB431C03D12368002B8F
:1014D00000D02B6070BDC046FCE0FF1F70B50C0053
:1014E0000E25495F00F0C6FA002803DB636D1B1868
:1014F000636570BDA389024A1340A381F9E7C04622
:10150000FFEFFFFFF8B51F008B8905000C001600E8
:10151000DB0505D50E23C95E0022022300F0D2F9B7
:10152000A389054A28001340A38132000E23E15EFF
:101530003B0000F075F8F8BDFFEFFFFF70B50C0041
:101540000E25495F00F0BEF9A389421C03D1054A6C
:101550001340A38170BD802252011343A3816065B3
:10156000F8E7C046FFEFFFFF10B50E23C95E00F09D
:10157000E1F810BDF8B505000E001400002804D0F5
:101580008369002B01D1FFF7F1FB224B9C422DD147
:101590006C68A369A360A3891B0731D52369002B5D
:1015A0002ED023682269F7B2981A6369F6B2834293
:1015B00005DC2100280000F059F9002826D1A36895
:1015C0000130013BA36023685A1C22601F706369CD
:1015D000834204D0A389DB071AD50A2E18D1210033
:1015E000280000F043F9002812D00FE00A4B9C427B
:1015F00001D1AC68CDE7094B9C42CAD1EC68C8E781
:101600002100280000F020F80028CAD001267642E8
:101610003000F8BD801B0000A01B0000601B000014
:1016200070B50500080011000022064C22601A0067
:10163000FFF746F8431C03D12368002B00D02B6032
:1016400070BDC046FCE0FF1F364B70B51D6806003C
:101650000C00002D05D0AB69002B02D12800FFF74C
:1016600085FB314B9C420FD16C680C23E25E93B238
:1016700019072DD4D90611D409230120336037333B
:101680001343A381404270BD284B9C4201D1AC68FA
:10169000EBE7274B9C42E8D1EC68E6E75B0713D504
:1016A000616B002908D023004433994202D03000F6
:1016B00000F096F9002363632422A3899343A38156
:1016C00000236360236923600823A2891343A38155
:1016D0002369002B0BD1A0218022A38989009200CD
:1016E0000B40934203D02100300000F027F9012382
:1016F000A289134011D00023A36063695B42A361F8
:10170000002023698342BED10C23E25E1306BAD5C2
:1017100040231343A3810138B5E7920700D46369DE
:10172000A360EDE704E0FF1F801B0000A01B00008A
:10173000601B0000002370B5064C05000800236004
:1017400000F0D0F9431C03D12368002B00D02B609C
:1017500070BDC046FCE0FF1FF7B58A8905000C008C
:10176000130760D44B68002B04DC0B6C002B01DCEE
:101770000020FEBDE76A002FFAD000232E682B6000
:1017800080235B01216A1A4034D0606DA3895B0716
:1017900006D56368C01A636B002B01D0236CC01A96
:1017A0000200216A00232800E76AB847A189431C88
:1017B00006D12B681D2B30D82B4ADA40D3072CD505
:1017C0000023636023692360CB0405D5431C02D149
:1017D0002B68002B00D16065616B2E600029C7D09B
:1017E00023004433994202D0280000F0F9F8002089
:1017F0006063BEE701232800B847431CC6D12B68AD
:10180000002BC3D01D2B01D0162B01D12E60AFE7CA
:101810004023A2891343A381ABE740230B4301205C
:10182000A3814042A5E70F69002FA1D00B680F608C
:10183000DB1B01930023920700D14B69A360019B3E
:10184000002B00DC94E7019B3A00216A2800A66A7D
:10185000B047002803DC4023A2891343DFE7019B44
:101860003F181B1A0193EAE7010040200B6970B58D
:1018700005000C00002B01D1002070BD002804D011
:101880008369002B01D1FFF771FA0B4B9C4209D100
:101890006C680C22A35E002BEED021002800FFF71D
:1018A0005BFFEAE7054B9C4201D1AC68F1E7044BD2
:1018B0009C42EED1EC68ECE7801B0000A01B00000E
:1018C000601B000070B50500080011000022064CE6
:1018D00022601A0000F01EF9431C03D12368002B7C
:1018E00000D02B6070BDC046FCE0FF1F70B50E003D
:1018F0001D000E23C95E96B01400002907DA0023EC
:101900002B60B3891B0611D48023DB000FE06A46ED
:1019100000F0C4F80028F2DBF022019B1202134011
:10192000054A9B185A4253412B60EDE740230020A3
:10193000236016B070BDC04600E0FFFFF7B5022679
:101940008B8905000C00334206D023004733236007
:10195000236101236361F7BD01AB6A46FFF7C6FF50
:10196000009907002800FFF795FA002808D10C22FB
:10197000A35E9A05EFD4032293431E43A681E4E7B6
:101980000F4BAB628023A28920601343A381009B8D
:1019900020616361019B002B0DD00E23E15E2800C6
:1019A00000F08EF8002806D00322A38993431A0082
:1019B00001231343A381A0893843A081CBE7C0460C
:1019C000310D0000C9B28218904201D10020704749
:1019D00003788B42FBD00130F6E770477047000078
:1019E00070B50500002910D00C1F2368002B00DA09
:1019F000E4182800FFF7F1FF1D4A1368002B05D1FA
:101A0000636014602800FFF7E9FF70BDA34209D9A5
:101A1000216860188342F3D118685B68411821601F
:101A2000EEE713005A68002A01D0A242F9D91968DA
:101A30005818A0420BD12068091858181960824222
:101A4000E0D110685268411819605A60DAE7A04284
:101A500002D90C232B60D5E721686018824203D19C
:101A6000106852684118216062605C60CAE7C04635
:101A7000E8E0FF1F70B50500080011000022064CC9
:101A800022601A00FEF72DFE431C03D12368002BB1
:101A900000D02B6070BDC046FCE0FF1F002370B576
:101AA000064C050008001100236000F023F8431CD9
:101AB00003D12368002B00D02B6070BDFCE0FF1F1A
:101AC000002370B5064C05000800236000F01AF8EA
:101AD000431C03D12368002B00D02B6070BDC0468F
:101AE000FCE0FF1F58220120014B40421A60704762
:101AF000FCE0FF1F58220120014B40421A60704752
:101B0000FCE0FF1F5822024B00201A607047C046BD
:101B1000FCE0FF1F58220120014B40421A60704731
:101B2000FCE0FF1F044A1368002B00D1034B181878
:101B3000106018007047C046F0E0FF1F00E1FF1F73
:101B4000FEE7C0465045524B454C4500000201009F
:101B500000010000000000000000010008E0FF1F7D
:101B60000000000000000000000000000000000075
:101B70000000000000000000000000000000000065
:101B80000000000000000000000000000000000055
:101B90000000000000000000000000000000000045
:101BA0000000000000000000000000000000000035
:101BB0000000000000000000000000000000000025
:101BC000232D302B2000686C4C0065666745464726
:101BD00000303132333435363738394142434445A9
:101BE0004600303132333435363738396162636418
:101BF00065660000F8B5C046F8BC08BC9E46704754
:0C1C0000F8B5C046F8BC08BC9E46704712
:081C0C004CE8FF7F010000001D
:041C1400390400008F
:041C180011040000B3
:101C1C0000127A0008E0FF1F00000000801B00008B
:101C2C00A01B0000601B0000000000000000000072
:101C3C000000000000000000000000000000000098
:101C4C000000000000000000000000000000000088
:101C5C000000000000000000000000000000000078
:101C6C000000000000000000000000000000000068
:081C7C00000000000000000060
:04000003000004D124
:00000001FF
