:1000000000600020E904000035050000390500000B
:1000100000000000000000000000000000000000E0
:100020000000000000000000000000003D0500008E
:100030000000000000000000410500002D17000036
:10004000490500004D050000510500005505000060
:100050003105000031050000310500004D100000A1
:10006000590500005D050000610500006505000000
:10007000C9100000611100001511000031050000D9
:100080003105000031050000310500003105000098
:100090003105000031050000310500007505000044
:1000A0003105000031050000310500003105000078
:1000B00099100000310500003105000031050000F5
:10040000FFFFFFFFFFFFFFFFFFFFFFFFFE1FFFFFDD
:1004100010B5064C2378002B07D1054B002B02D0DA
:10042000044800E000BF0123237010BD18E2FF1F45
:100430000000000084340000084B10B5002B03D0EE
:100440000749084800E000BF07480368002B00D1B7
:1004500010BD064B002BFBD09847F9E700000000C9
:100460001CE2FF1F8434000014E2FF1F00000000A4
:10047000164B002B00D1144B9D46402292029A1A33
:10048000924600218B460F461348144A121A01F077
:10049000A6FF0F4B002B00D098470E4B002B00D02F
:1004A00098470020002104000D000D48002802D0CC
:1004B0000C4800E000BF01F053FF2000290000F0CD
:1004C000F9FB01F037FFC046000008000060002083
:1004D000000000000000000018E2FF1FD4E9FF1F29
:1004E000000000000000000072B60A480A490160DE
:1004F0000A6882F30888094880470949094A0A4B73
:100500009B1A03DD043BC858D050FBDC62B6074899
:100510008047000008ED00E0000000000523000017
:10052000AC34000000E0FF1F18E2FF1F7104000060
:10053000114800471148004711480047114800473B
:10054000114800471148004711480047114800472B
:10055000114800471148004711480047114800471B
:10056000114800471148004711480047114800470B
:1005700011480047114800473105000035050000CB
:10058000390500003D050000410500002D17000061
:10059000CD190000DD190000ED190000FD19000063
:1005A000E51C0000FD1C00008920000099200000CF
:1005B000351F0000511F0000911A00006D1F000040
:1005C00002B4714649084900095C49008E4402BCE6
:1005D0007047C046002243088B4274D303098B4204
:1005E0005FD3030A8B4244D3030B8B4228D3030C03
:1005F0008B420DD3FF22090212BA030C8B4202D3A5
:100600001212090265D0030B8B4219D300E0090ACC
:10061000C30B8B4201D3CB03C01A5241830B8B42D5
:1006200001D38B03C01A5241430B8B4201D34B03BE
:10063000C01A5241030B8B4201D30B03C01A524123
:10064000C30A8B4201D3CB02C01A5241830A8B42A8
:1006500001D38B02C01A5241430A8B4201D34B0291
:10066000C01A5241030A8B4201D30B02C01A5241F5
:10067000CDD2C3098B4201D3CB01C01A52418309A9
:100680008B4201D38B01C01A524143098B4201D3E3
:100690004B01C01A524103098B4201D30B01C01A0E
:1006A0005241C3088B4201D3CB00C01A5241830888
:1006B0008B4201D38B00C01A524143088B4201D3B5
:1006C0004B00C01A5241411A00D201465241104615
:1006D0007047FFE701B5002000F006F802BDC046F4
:1006E0000029F7D076E770477047C0460023C25C08
:1006F0000133002AFBD1581E704710B51D212A2056
:1007000000F0C6F903215B2000F0C2F910BD10B55E
:100710002D2000F0E9F97C2149420143C9B22D2086
:1007200000F0B6F92E2000F0DFF904210143C9B230
:100730002E2000F0ADF92C2000F0D6F9082101435D
:10074000C9B22C2000F0A4F9152000F0CDF97821D1
:100750000143C9B2152000F09BF9172000F0C4F93D
:10076000712149420143C9B2172000F091F910BD2F
:1007700010B50449044801F073FE431E9841C0B20D
:1007800010BDC0463B2E0000C0E7FF1FF0B51500AE
:10079000FA2206000F000021264C274BFFB09200E2
:1007A0002000198001F01BFE24493B00320001A803
:1007B00001F01EFE01A800F03FFA214800F066FAA1
:1007C00001A800F063FA1F4901A801F049FE0028C2
:1007D00009D01D4F00F0A4FF3F1800F0A1FF874291
:1007E00004D8022510E0FA27BF00F3E7174E33784C
:1007F000002BF2D02900200001F032FE00280ED09C
:10080000200000F043FA0025FA2200210A4B920052
:100810002000198001F0E3FD28007FB0F0BD0C49F5
:10082000200001F01DFE002801D13070D5E7012520
:10083000EAE7C046C0E7FF1F38E2FF1F142E0000A2
:100840001E2E0000312E0000102700003AE2FF1F8C
:10085000352E00007047002330B50022C418A25680
:100860000D2A0DD10022110084420CD162700022A9
:100870002170A270591C91420CDA181DC0B230BD13
:100880000133DBB2E9E7057801304919C9B25218E2
:10089000D2B2E9E70132D2B2EDE7000070B5C37819
:1008A0000D0003718378C3702E2383700A794A7117
:1008B000CA78CB7000230A710022C1188A56302AE8
:1008C00037D0214C200001F0C3FD20002E2101F083
:1008D000B1FD441C0023E356302B2DD0200001F045
:1008E00023FD0621FFF776FE184E0200310020009E
:1008F00001F07EFD00230022E9188A56302A1DD01F
:10090000134C200001F0A4FD20002E2101F092FDE7
:10091000441C0023E356302B13D0200001F004FDCB
:100920000621FFF757FE31000200200001F060FDB4
:1009300070BD0133DBB2BFE70134CBE70133DBB27B
:10094000D9E70134E5E7C04694E7FF1FFC2E00001D
:10095000ACE7FF1FF0B593B009AC01AB636005AB2A
:10096000E3606B46274D28492800A36101F078FD1C
:1009700026490600280001F073FD0500002E34D042
:100980002349300001F06CFD002801D00023837062
:10099000002332001F0000215156002911D1A66901
:1009A0004131300001F046FD002815D0194800F013
:1009B0006DF9E1686068FFF771FF0123180013B05B
:1009C000F0BD501C2C2905D117709A00A6500600C6
:1009D0000133DBB20200DEE75621300001F02AFDD0
:1009E000002802D00C4800F051F92B1EE6D008492F
:1009F000280001F035FD002203009042DED0827015
:100A00001300DBE73CE5FF1FC12E0000C62E0000EF
:100A10002E2E0000CB2E0000D52E00008023164A7B
:100A200030B5116885B00B4313608023134A9B01D6
:100A3000116801AC0B43136000F022FF0500200099
:100A400001F066F80123237000230D4A2100626043
:100A50000C482A006370237201F09CF8C0210A4AF6
:100A60000A481368C90003400B43136053680340EE
:100A70001943516005B030BD3480044038800440D3
:100A8000400D03000070064000D00440FFF8FFFF57
:100A900070B5002205000C0012481C2101F0D6F8A8
:100AA000104A02211300D0780842FCD0D0780143CC
:100AB000D170102190780143917015710222D9787C
:100AC0001142FCD0D9780A43DA7002221C71D9781D
:100AD0001142FCD0D97803480A43DA7001F09CF83F
:100AE00070BDC0460070064070B5002205001C2194
:100AF0001A4801F0ABF8194B02221C00D9781142B8
:100B0000FCD0D9780A43DA70102299780A439A7097
:100B10001D710223E2781A42FCD0E2781C211343B3
:100B2000E37001220D4801F0AFF80223E2781A4287
:100B3000FCD01822E370A3789343A3700823A27813
:100B40001343A37023790223E2781A42FCD0E370A6
:100B5000024801F061F82079C0B270BD0070064013
:100B6000F0B5022087B000F09BFE0190002000F05D
:100B700097FE284D03AC0700280001F013FB20006E
:100B800001F09CF99622012392012A600392AB7135
:100B9000EB71A372E372204A204B2148D158214EB9
:100BA0000840802149050143D150D1581E480840D2
:100BB0008021C9040143D15030003A00210001F0E6
:100BC000B9F8019A2900194801F07AFA2100E123C5
:100BD0008024174D3A005B02A4032800039301F020
:100BE000A9F82100300001F076F980278023114E0A
:100BF0005B01BF01336039000C4801F0DDFA80234E
:100C0000DB0133602100280001F065F9376007B08F
:100C1000F0BDC046A4E7FF1F0070044004100000B0
:100C2000FFFFFFCF00400540FFFFFFF300C006407D
:100C30000050054000E100E00023802110B5074A84
:100C4000C35609040130002B00D110BD54680C427A
:100C5000FCD0D3600023C3560130F4E700400540C8
:100C6000002310B5084CC3560130002900D110BD37
:100C7000227952B2002AFBDADBB2E3710023013998
:100C8000C356C9B20130F0E700C0064030B5802538
:100C90000400002306492D04E256D8B2002A00D1F0
:100CA00030BD48682842FCD0CA600133F4E7C04632
:100CB000005005400823F0B5B94ABA4C9178A544D4
:100CC0000B4393708022B84B1A6001F0BFFA01F019
:100CD0009FFA00F0D5FDFA218900FFF77BFCB34BAA
:100CE000013898420DD8C021B14A09065060B14878
:100CF000036A1B021B0A0B43036200239360073342
:100D00001360AD4CFFF78AFEFFF72AFFFFF7FFFCE9
:100D1000FFF7F3FCA94D04212A00200000F0BCFEDF
:100D20002A001321200000F0B7FE10232A00012121
:100D3000A360200000F0B0FE0223A1486360FFF72B
:100D4000A5FFA048FFF7A2FF80239F4E1B03A360CF
:100D500008223100684601F027FB0322002102A887
:100D600001F03DFB31000A220B3103A801F01CFB0E
:100D7000162300226B44954909A81A7001F068FBFC
:100D80002A236B446946180001F062FB36236B444A
:100D900003A9180001F05CFB42236B4418008C4946
:100DA00001F056FB29232D226B44DA77894B1B78FF
:100DB000022B08D18848FFF769FF01F00DF9874938
:100DC000874801F01FF9834B1B78012B2BD141334E
:100DD0006B448449180001F03BFB834A1378002BD5
:100DE000FCD08248FFF752FF8148FFF74FFF3100E8
:100DF0000B22163106A801F0D7FA232300226B44F8
:100E00001A707C490C3213A801F0CEFA2A236B44E5
:100E100006A9180001F01CFB13A936236B44180027
:100E200001F016FB0DE0744B1B78002B30D0734D96
:100E30007349280001F014FB002812D07148FFF715
:100E400025FF13A909A800F0ABF9010013A800F0D1
:100E50001DFC6D48FFF71AFF002085239B009D4471
:100E6000F0BD6A49280001F0FBFA071E4CD00122B0
:100E7000674B1A70614D2800FFF738FC0021020013
:100E8000280001F0ACFA00235B4A1370614A13801A
:100E9000614B1B78002B21D000F042FCFA235F4D00
:100EA000DB00C018286000F03BFC2B68984203D29E
:100EB000FFF75EFC0028F6D0594D2800FFF7E6FE4C
:100EC0004B48FFF7E3FEFA2200215200280001F010
:100ED00086FA0023534A13804F4A1370424B1B7803
:100EE000002B00D16FE74A4B1B78002B00D16AE73B
:100EF000FFF730FD002837D02A236B444A491800F9
:100F000001F0A6FA494988E74949280001F0A8FA02
:100F1000002802D03E4B1F70ACE74649280001F084
:100F20009FFA002802D00223A360A3E742492800C9
:100F300001F096FA002802D0022363609AE73F4945
:100F4000280001F08DFA00280AD03D48FFF79EFEE8
:100F5000A81CFFF780FC01002800FFF781FE89E74D
:100F60002800FFF769FE85E7204F3449380001F07B
:100F700077FA051E08D03348FFF788FE2979280044
:100F80000831C9B2FFF766FC9622002192003800B2
:100F900001F025FA00232C4A1380134A137012E73C
:100FA00000D00740ECFDFFFF00E100E0FFFFFF0085
:100FB00010E000E000ED00E000F00F40022F000024
:100FC000042F0000942F0000F02D0000E82F0000F7
:100FD000EE2F00002CE0FF1FF42F0000B4E9FF1FEC
:100FE00000E007401E30000036E2FF1F3CE5FF1F17
:100FF0002E2E0000A130000032E4FF1F3EE2FF1F52
:1010000023300000273000008A3000004530000007
:1010100033E4FF1F3CE2FF1F3AE2FF1F28E0FF1FFF
:10102000C0E7FF1F38E2FF1F94E7FF1FACE7FF1F79
:101030004F300000593000005F3000006430000085
:10104000673000007530000034E2FF1F01220E4BB4
:10105000D97911420DD00D490D480A7001680A4333
:10106000026080220B49086802430A6001229A71DB
:10107000704799791142F9D0022004490870997992
:101080000A439A71F2E7C04600C007402CE0FF1FF8
:1010900038800440000004408022084B1968114346
:1010A000196019681142FCD10823054A91780B4355
:1010B00093708022034B9203DA6070470000044073
:1010C00000D0074040F00F4010B50D4C202120000B
:1010D00000F010FF80220B4BD203DA60E368D9B234
:1010E00000290CD0084A094C108823541388013376
:1010F0009BB213800D2902D10122054B1A7010BD3D
:101100000040054040F00F4038E2FF1FC0E7FF1FDE
:101110003AE2FF1F10B50E4C2021200001F05EF8CE
:101120000C49E3790878DBB20B4A002806D1108815
:101130000A4C2354138801339BB21380F423128882
:10114000FF339A4202D9F33BFF3B0B7010BDC04600
:1011500000C0064036E2FF1F34E2FF1F3CE5FF1FE0
:1011600010220A4B0A48D9680A4BDA600A4A1388E7
:10117000C1541388C9B201339BB213800A2904D128
:10118000064B093919700023138070470050054041
:101190003EE2FF1F00F00F403CE2FF1F32E4FF1F62
:1011A000F0B5704BE3B01B680090180002910193FA
:1011B000FFF79CFA6B4605901D7D6B4B0AAC1B68D4
:1011C00018000393FFF792FA6B4606901E7E674B5A
:1011D0001B6818000493FFF789FA6B4607901F7F7E
:1011E00010232370AB191033FB18637000234D22BA
:1011F000A37004232271E370D2182372BE3363728A
:101200000023A3720A23E37200232373FF23162013
:1012100062710332A271E271059A01991A4008AB1A
:10122000C018657301F0C0F80522002108A801F07C
:10123000D6F828000E3008ABC0B2190002222018E0
:101240005F7001F0B1F8FF23079A1035EDB21A4034
:10125000601904997D1901F0A7F8EDB208AB1900E7
:10126000601902225E7001F09FF8FF23069A023592
:10127000EDB21A400399601901F096F83C4B7519CC
:101280001868FFF733FA6B463A4E03901B7B009ABF
:1012900039493000019301F0ABF8009B07009A1D1B
:1012A0003018364901F0A4F8009A3F18F0191232AC
:1012B000334901F09DF8009A3F18F0191E32314968
:1012C00001F096F8009B3F180533DA7FF0192E499C
:1012D00001F08EF83F183000FFF7D8FC302308AA41
:1012E000137013006A46127908A91A71FBB20093B1
:1012F000019BFAB20233D3188022DBB252421A4366
:10130000DB098B70EDB262AB581961384A70FF3857
:10131000052201F049F8FF23039A05351A40144BC2
:10132000EDB21968601901F03FF831000026019B09
:101330003A005D19EDB2601901F036F8009B5D19B5
:10134000EDB2F3B29D4202D8280063B0F0BDA25DB9
:101350000E49029801F04CF8029B01361B180293CB
:10136000EFE7C04630E0FF1F34E0FF1F3CE0FF1F07
:1013700038E0FF1F34E4FF1F8F310000AF31000061
:10138000C1310000D4310000E93100000132000019
:101390000B4B10B518680B4A0B49FFF7F7F90B4BCD
:1013A0001870002803D10A48FFF770FC10BD01280F
:1013B00001D10848F8E70228F8D10748F4E7C04609
:1013C00018E0FF1F29310000302E0000BDE9FF1F8B
:1013D00031310000443100003C310000094B10B5B0
:1013E0001868094A0949FFF7D1F9094B1870002814
:1013F00003D10848FFF74AFC10BD0128FCD106487C
:10140000F8E7C04614E0FF1F71310000302E0000E5
:10141000BDE9FF1F7D31000044310000094B10B5CC
:101420001868094A0949FFF7B1F9094B18700028F3
:1014300003D10848FFF72AFC10BD0128FCD106485B
:10144000F8E7C04610E0FF1F3B2E000056300000BA
:10145000BDE9FF1FD730000044310000094B10B533
:101460001868094A0949FFF791F9094B18700028D3
:1014700003D10848FFF70AFC10BD0128FCD106483B
:10148000F8E7C04610E0FF1F3B2E0000C43000000C
:10149000BDE9FF1FC730000044310000022310B532
:1014A0000B4C23702378002B00D110BD094B0A4A46
:1014B0000A491868FFF76AF92070002803D1084824
:1014C000FFF7E4FBEEE70128ECD10648F8E7C04659
:1014D000BDE9FF1F00E0FF1F0B310000302E0000B0
:1014E00017310000443100000B4B10B518680B4A4F
:1014F0000B49FFF74BF90B4C2070FA20800000F0ED
:101500001DF923780848002B02D0012B02D107488F
:10151000FFF7BCFB10BDC04608E0FF1F3B2E0000DC
:10152000302E0000BDE9FF1FF33000004431000001
:101530000B4B10B518680B4A0B49FFF727F90B4CFA
:101540002070FA20800000F0F9F823780848002B7A
:1015500002D0012B02D10748FFF798FB10BDC0460F
:1015600004E0FF1F3B2E0000AD300000BDE9FF1F6F
:10157000B230000044310000094B10B51868094A28
:101580000949FFF703F9094B1870002803D10848EF
:10159000FFF77CFB10BD0128FCD10648F8E7C046E8
:1015A0000CE0FF1F3B2E0000302E0000BDE9FF1FA6
:1015B0008331000044310000094B10B51868094A16
:1015C0000949FFF7E3F8094B1870002803D10848D0
:1015D000FFF75CFB10BD0128FCD10648F8E7C046C8
:1015E0001CE0FF1F3B2E0000302E0000BDE9FF1F56
:1015F000E43000004431000010B5FEB003000A00E2
:1016000001A80C4900F0F4FE0B4B0C4A186801A924
:10161000FFF7BCF80A4B041E18700A4802D0012CD0
:1016200005D10948FFF732FB20007EB010BD002431
:10163000FAE7C0464C31000024E0FF1F3B2E0000BB
:10164000BDE9FF1F6C31000044310000094B10B5AB
:101650001868094A0949FFF799F8094B18700028DA
:1016600003D10848FFF712FB10BD0128FCD1064842
:10167000F8E7C04620E0FF1F3B2E0000302E0000A0
:10168000BDE9FF1F2231000044310000F8B50F0012
:101690000600FFF77DFEFFF7A1FEFA20800000F0B4
:1016A0004DF8FFF7BBFEFFF7F9FEFA20800000F0CF
:1016B00045F8FFF719FFFA20FA25800000F03EF800
:1016C0000024AD00FFF7CAFE134800F037F8FFF71B
:1016D0002FFF124800F032F8012C04D1FFF7DEFE94
:1016E000280000F02BF8FFF747FF280000F026F84D
:1016F000FFF762FF280000F021F839003000FFF703
:101700007BFF04000128DDD0FA20000100F016F86C
:10171000FFF79CFFF8BDC04698080000B80B00001A
:10172000014B18687047C046CCE4FF1F024A13689B
:10173000013313607047C046CCE4FF1F034B1A68A7
:1017400080181A689042FCD87047C046CCE4FF1F4E
:101750000222084B1878104004D19A791207920F90
:10176000012A05D101225B781340034A9B00985857
:101770007047C046004006402C3200000020044B59
:101780001B785BB2834201DA024B18687047C0468F
:1017900000500640C4E9FF1F0C4B10B51C68240321
:1017A000A40F022C0CD0032C0DD0002C01D0002053
:1017B00010BDFFF7E3FF80231B029842F7D1F7E744
:1017C000034B1868F4E7FA208000F1E7007004404A
:1017D000C0E9FF1F4168074A074BD1500378C0207A
:1017E0009B04000311680340044801400B4313604D
:1017F0007047C0460070044044100000FFFFF3FF34
:1018000070B5074B1C7A1D7EFFF7A2FF0723E4B2D9
:10181000EDB264081D401C406419E04070BDC04634
:1018200000400640054A137E5BB2002B04DB93792F
:1018300000201B079B0F00D1014870470040064065
:10184000006CDC0210B50B4CA3791B079B0F012B1E
:1018500007D0002B0CD00020022B08D1064B1868B3
:1018600005E0FFF775FF237A1B075B0FD84010BD1B
:101870000248FCE700400640C4E9FF1F006CDC02A0
:1018800010B5FFF7DFFF044B044AD158090F0131AF
:10189000FEF7A0FE10BDC0464410000000700440DA
:1018A00070B513280BD8FEF78BFE0C0C160A160A1F
:1018B0000A23260A0A0A290A0A0A0A2C2C2F0020BF
:1018C00070BDFFF7BFFF124B124AD158090F01310B
:1018D000FEF780FEF4E70F4D0D4CFFF7B3FF2959DB
:1018E000090F0131FEF776FE29594903490FEEE74A
:1018F000FFF752FFE4E7FFF741FFE1E7FFF780FF63
:10190000DEE7FFF78FFFDBE7FA208000D8E7C0466D
:101910004410000000700440032130B5214B9A7937
:1019200092080A40012A24D00E210724C2785200CE
:101930000A401A7242790179D20121400A43D2B297
:101940001A7659788278063CA14322400A435A709D
:10195000017840788A010243D2B21A705A7852074D
:1019600018D403209A79920802409142FAD10020BB
:1019700030BD0478012CD7D15A7885782240954221
:10198000D2D01A783E3422401A709A7992080A42CC
:10199000FBD1C9E70229E4D10A0098791042FCD0B2
:1019A000DFE7C04600400640037902681B01D318F8
:1019B000802210B5FC33D96852040A43DA60836888
:1019C000002B01D0C168984710BD000010B5024B34
:1019D0001868FFF7E9FF10BDD0E4FF1F10B5024BF8
:1019E0005868FFF7E1FF10BDD0E4FF1F10B5024BB0
:1019F0009868FFF7D9FF10BDD0E4FF1F10B5024B68
:101A0000D868FFF7D1FF10BDD0E4FF1F0378012B8A
:101A10000BD143787820002B14D080230C4A1B0272
:101A200011680B43136000200CE0094B09491A6848
:101A30000A401A604078002805D180221968D20136
:101A40000A431A6070471A6803490A401A60EAE7B5
:101A50000C3000F0FF7FFFFFFFBFFFFF10B5094C08
:101A60002168002904D0084B084A1B681068984771
:101A70006168002904D0044B044A5B6850689847A9
:101A800010BDC046E0E4FF1FE8E4FF1FF0E4FF1FC5
:101A900010B5FFF7E3FF10BD10B514780123002C3B
:101AA00004D18B4042699A43426110BD52788B4009
:101AB000002A06D1836001238B40426913434361AE
:101AC000F3E74360F7E70000C37810B5DB0602D404
:101AD00083789B0605D5044B1B689847BFF34F8F4F
:101AE00010BD024BF8E7C04600E5FF1F04E5FF1FED
:101AF000054A0023904204D0044BC018431E98416D
:101B0000431C18007047C046006006400090F9BFB3
:101B1000034B43600023437003720133037070472B
:101B2000A0860100F0B5002401260F0085B00290C8
:101B300003920194009476420025154A6B00995A4D
:101B40000398A140FEF746FDB84212D2381AB042BF
:101B50001AD30135402DF0D1022C13D13F22009B26
:101B600001999B0111400B43029ADBB2537005B0FF
:101B7000F0BDC01BB042ECD2009401950028EDD01E
:101B80000600E6E70134D7E700940195F8E7C04680
:101B90003C320000F8B504000D001700FFF7A8FF65
:101BA0001B4B8000C1581B4B0A0CD218012389B271
:101BB0008B4010687F26034313600022FF232270AE
:101BC0006270A270E370AF3B6271A371E271A278A0
:101BD00020003240A270A2791A43A271A279134365
:101BE000A3711223E3703A006968FFF79BFF0F218E
:101BF0006A78A379D201334013432A7ADBB28B434C
:101C00000A401343A3712B78DB01DBB2A370F8BD4C
:101C100034320000007004403821020083788B4386
:101C200083701839D0780840FCD17047C378827926
:101C3000DBB2520602D58022D20113438279D2064A
:101C400002D58022520113431800704770B5050079
:101C50000E001400FFF7EAFF830610D43023AA78A1
:101C60001343AB7001232A7B1A42FCD0013C634230
:101C70005C41002076003443E4B22C7170BD014811
:101C8000FCE7C0464C04000070B504000E001500CF
:101C9000FFF7CCFF2023184202D0A2781A421CD0B2
:101CA0003F226378DBB21A4062701422A1780A43A3
:101CB000A2706370C046C046C046C046C046C0461B
:101CC0000123227B1A42FCD0013D6B425D41002082
:101CD00076003543EDB2257170BD0148FCE7C04682
:101CE0004C04000010B5034B03481968FFF7ECFEE5
:101CF00010BDC046F8E4FF1F0060064010B5034B5E
:101D000003485968FFF7E0FE10BDC046F8E4FF1F26
:101D100000700640054A0023904204D0044BC018CE
:101D2000431E9841431C18007047C04600400540C0
:101D300000B0FABFF0B50F6889B0BB00049304236C
:101D40000093002304000D0005920397029306936D
:101D500004990598FEF73EFC86B2002E00D10136AC
:101D6000009905987143FEF735FC0099C31B019358
:101D7000731C594305980793FEF72CFC019B381AF6
:101D8000834202D96B469E8B0190019B039A93423A
:101D900003D80393009B06960293009B01330093A4
:101DA000049BDB190493009B212BD1D164213800C3
:101DB000FEF710FC03235843039B834267D820009F
:101DC000FFF7A8FF334B8000C158334B0A0CD218E1
:101DD000012389B28B40106803431360A3682F4A24
:101DE0001340029AA360043A2368032A02D880228F
:101DF00092021343F821E020294A49051A40029B28
:101E0000C000013B1B060B401343069A5B0BD20438
:101E1000D20C5B03134323602368224A13402360E0
:101E20006B7AA2681B0203401F48297902400420F4
:101E30000A431A432B7A9B0003401343002901D025
:101E4000102213438021A360EB7989015B03226890
:101E50000B4016490A4013432360AB79002B14D181
:101E6000134B626813436360AA7AA368002A02D006
:101E7000802212031343EA7A002A02D08022D2027F
:101E800013430020A36009B0F0BD0A4BE9E70A48FC
:101E9000F9E7C046BC32000000700440FFFFF3FFCA
:101EA000FFFFFFE0FFFFFFDFE8F8FFFFFFDFFFFFBF
:101EB00000C01FC000C01FE021050000E1235B023D
:101EC00003600023037143718371C3710372437212
:101ED0008372C372704710B5C02402680B022402DB
:101EE00023401343FF2203608368914319438160B9
:101EF00010BD00004268CB0F52005208DB071343AD
:101F0000084A1A40084B0B401343084A1340C022AA
:101F100012020A40134343604068084000D004485E
:101F20007047C046FFFFE0BF00001F40FF3FFFFFBC
:101F30001A05000010B5034B034A1B6811680348DB
:101F4000984710BD10E5FF1F08E5FF1F0040054042
:101F500010B5034B034A1B6851680348984710BDEE
:101F600010E5FF1F08E5FF1F0050054010B5154C98
:101F70006168002910D0144BDA6F920302D4DA6F33
:101F8000520309D5DA6F920502D4DB6F5B0503D5E6
:101F90000E4B0F481B6898472168002910D00C4B46
:101FA0001A68920302D41A68520309D51A68920576
:101FB00002D41B685B0503D5064B05481B68984790
:101FC00010BDC046C8E9FF1F04F0024014E5FF1F22
:101FD00000F0024018E5FF1F07B50222074901A8DB
:101FE00000F0E2F9EFF3108372B6054A1360BFF315
:101FF0006F8F01A8FFF70AFD07BDC046122E000033
:102000001CE5FF1F10B50C78002C06D14A78202360
:10201000002A1CD082789A438270072104224378D8
:102020008B431343437083788B431C430A4B847068
:1020300019690A431A614378BFF34F8F30BFBFF36A
:102040006F8F08234078184000D0044810BD827874
:1020500013438370E1E7C04600ED00E03C0F000051
:10206000C27810B5054B8900D20604D5044A12681F
:102070005958904710BD034AF9E7C04620E5FF1FB5
:1020800028E5FF1F2CE5FF1F10B500210148FFF7D1
:10209000E7FF10BD0060074010B501210148FFF7C0
:1020A000DFFF10BD00700740031E04D0034BC018B3
:1020B000431E9841831C18007047C0460040F9BF7A
:1020C000F7B50E6804000F00100031010092FEF712
:1020D00081FA85B2002D00D10135009B31005B00F3
:1020E00018000093FEF776FA6901401A83B2C91806
:1020F00000980193FEF76EFA331A0093864201D2DC
:10210000831B009364213000FEF764FA03235843D5
:10211000009B83423ED82000FFF7C6FF1E4B800085
:10212000C1581E4B0A0CD218012389B28B4010688B
:10213000034313600C22E3789343E3701F23217859
:102140002A0A99430A43EDB222706570A07A019A77
:1021500098431A40104317220421A072A378934396
:102160007A7992000A4039791343002902D010226B
:102170000A431343A370E378BA79DBB2002A01D093
:1021800008221343FA79002A01D0042213430020C5
:10219000E370FEBD0248FCE7C4320000007004405A
:1021A000F5030000E1235B02036000230371437128
:1021B0008371C37170470000074B194003780A0A06
:1021C0000B43DBB20370C378090C1343DBB2C3705B
:1021D000837919438171704740F00F0040224379A1
:1021E00093430A0A1343DBB243711723194201D008
:1021F0000379C3790B0701D50379C3790379407952
:1022000000021843084000D000487047EE03000069
:10221000074B084A084910B50848D150FFF77CFB26
:102220000748FFF7D7FA074A074B1A6010BDC046A8
:10223000441000000070044000000710D03200007D
:10224000D8320000006CDC0240E0FF1F8022264BE9
:10225000D200196830B50A431A6080221968120149
:102260000A431A608022196852010A431A608022C8
:10227000196892000A431A608022196892010A4381
:102280001A60C02219481A4BC168920019401143C4
:10229000C1600169174D1940114301618020164941
:1022A00040000C691C4004430C614C681C40044312
:1022B0004C602C681C4004432C60104DAC691C40E1
:1022C0001443AC61EC691C401443EC610C4D6C6C24
:1022D0001C4014436C642C6C1C4022432A64CA6C5E
:1022E00013401843C86430BD3880044000B0044037
:1022F000FFF8FFFF00A004400090044000C004402D
:1023000000D004400823064A9178194202D09178FF
:102310000B43937088230021024A5B01D150704720
:1023200000D007400070044010B50A22002100F0E0
:1023300035F910BD084B10B50400002B02D0002168
:1023400000E000BF054B1868836A002B00D0984757
:10235000200000F04BFDC04600000000E03200000D
:1023600070B500260C4D0D4C641BA410A64209D17B
:10237000002601F087F80A4D0A4C641BA410A642FF
:1023800005D170BDB300EB5898470136EEE7B300B6
:10239000EB5898470136F2E7A4340000A43400005B
:1023A000A4340000A8340000002310B59A4200D1E4
:1023B00010BDCC5CC4540133F8E710B5884202D993
:1023C0008B18984208D300239A4207D0CC5CC4549F
:1023D0000133F9E78B5C8354013AFBD210BD030053
:1023E0008218934200D1704719700133F9E7000059
:1023F0000EB410B59DB002A9029008610B4882246A
:1024000088604861012040421FABC881084804CB66
:10241000A400006801938C8100F0F4F90023029A73
:1024200013701DB010BC08BC03B01847FFFFFF7F3E
:1024300044E0FF1FC9B20378002B04D0994200D1B9
:1024400070470130F7E74B42594149420840F7E7EE
:10245000031C0A7801311A700133002AF9D1704740
:1024600010B502000078002804D1097800290DD0A9
:1024700010BD013210780028FAD00023C85C002873
:1024800004D0D45C8442F4D10133F7E71000EFE7C5
:10249000F0B51F000E0087B00590039102920C98D2
:1024A000347800F08FF8082200194378751C134027
:1024B0000CD12D2C0CD101332C780193B51C002F9D
:1024C0000CD0102F14D1302C0AD011E02E00E6E7EA
:1024D00001932B2CF3D12C78B51CF0E7302C2FD1A5
:1024E00020222B789343582B51D110276C7802353A
:1024F000019B294A39009E183000FEF7F1F83000A0
:1025000004913900FEF766F80121002349420200D8
:102510008C46180021003039092913D80C00A74235
:102520001CDD591C09D06346824206D302D10499AE
:10253000A14202DB0123784320182C780135E9E71A
:102540000A27D5E721004139192901D8373CE6E7A8
:1025500021006139192901D8573CE0E75A1C08D1FC
:10256000059A23331360029B3000002B0BD107B078
:10257000F0BD019A002A00D04042029A002AF6D00B
:10258000039A002B00D06A1E029B1A60EFE73024EA
:10259000002FADD10837ABE7FFFFFF7F37B5130042
:1025A000064A05001068046A002C00D1044C0A0099
:1025B00000942900FFF76CFF3EBDC04644E0FF1FBA
:1025C000A8E0FF1FEC300068704782B0002900D1FE
:1025D00001A9101E06D0002B06D013780B601078CE
:1025E000431E984102B0704702204042FAE70000C3
:1025F00070B50500002910D00C1F2368002B00DAED
:10260000E418280000F0B3FB1D4A1368002B05D125
:1026100063601460280000F0ABFB70BDA34209D9D1
:10262000216860188342F3D118685B684118216003
:10263000EEE713005A68002A01D0A242F9D91968BE
:102640005818A0420BD12068091858181960824206
:10265000E0D110685268411819605A60DAE7A04268
:1026600002D90C232B60D5E721686018824203D180
:10267000106852684118216062605C60CAE7C04619
:1026800030E5FF1F032370B5CD1C9D4308350600C0
:102690000C2D1ED20C25A9421DD8300000F067FB7E
:1026A000254A14682100002919D1244C2368002BE5
:1026B00003D1300000F032FB20602900300000F030
:1026C0002DFB431C2CD10C233000336000F050FB59
:1026D00003E0002DDFDA0C233360002070BD0B68AF
:1026E0005B1B1AD40B2B03D90B60CC18256003E0BD
:1026F0008C420ED163681360300000F039FB20007B
:1027000007220B30231D9043C31AE7D05A42E250F0
:10271000E4E74B6863600C00EEE70C004968C2E731
:102720000323C41C9C43A042E0D0211A300000F0D7
:10273000F5FA431CDAD1C6E730E5FF1F34E5FF1F89
:10274000F0B58E6885B007000C00039201939E429D
:1027500039D890238A89DB001A4234D003250969CD
:1027600023685B1A0293636902985D43EB0F5D195E
:10277000019B6D1001331B18AB4200D91D0053059E
:1027800032D529003800FFF77DFF061E09D10C2342
:102790003B6040230120A28940421343A38105B03E
:1027A000F0BD029A2169FFF7FFFDA389144A1A4080
:1027B00080231343A381029B2661F618266065617E
:1027C000019EED1AA560019BB34200D21E003200AB
:1027D00003992068FFF7F1FDA36800209B1BA3600D
:1027E00023689E192660DAE72A00380000F0C1FA53
:1027F000061EE0D121693800FFF7FAFEC7E7C046A0
:102800007FFBFFFFF0B59FB0029005938B890F000F
:1028100016001B0611D50B69002B0ED14021FFF7C6
:1028200031FF38603861002805D10C23029A013845
:1028300013601FB0F0BD40237B61002306AD6B61C8
:1028400020336B761033AB7634002378002B47D1DE
:10285000A31B04930DD0A31B320039000298FFF78D
:102860006FFF431C00D1B5E06A69049B9446634442
:102870006B612378002B00D1ACE00122002352428F
:102880006A6002A95432521801342B60EB60AB60CD
:102890001370AB65584E05222178300000F05CFAC9
:1028A000621C002820D12968CB0604D5532302AE30
:1028B00020309B1918700B0704D553232B2002AE30
:1028C0009B19187023782A2B16D000200A21099B07
:1028D0002278303A092A55D9002815D0099313E0F7
:1028E000252BB5D00134B0E70123801B8340296834
:1028F00014000B432B60CDE7059B181D1B6805904A
:10290000002B39DB0993140023782E2B0BD163782D
:10291000621C2A2B3ED1059B02341A1D1B680592AE
:10292000002B34DB0793354E21780322300000F072
:1029300013FA002806D04023801B83402A68013404
:1029400013432B60217806222D48661C297600F05F
:1029500003FA002846D02B4B002B2FD12968059B6A
:102960000722C90528D59B189343083305936B6943
:10297000039A9B186B6167E75B42EB6002230B4392
:102980002B60C0E74B4301349B180120A0E70123D3
:102990005B42C7E7002314000A201A006B6021780D
:1029A0003039092903D9002BBDD00792BBE7424338
:1029B000013452180123F2E70733D5E705AB009342
:1029C0003A00114B2900029800E000BF0390039BDE
:1029D0000133CCD1BB890B985B0600D429E70120D9
:1029E000404226E705AB00933A00074B29000298C6
:1029F00000F07AF8EAE7C0464E3300005433000096
:102A0000583300000000000041270000F7B5150012
:102A100001938A680B6900900C00934200DA13005E
:102A200022002B6043321278002A01D001332B6040
:102A300023689B0602D52B6802332B600627236888
:102A40001F4027D0230043331B785A1E934122682E
:102A5000920630D42200019943320098089EB04774
:102A6000431C25D0062320682A68E168034000251E
:102A7000042B03D18D1AEB43DB171D40A368226999
:102A8000934201DD9B1AED180027BD4220D10020A2
:102A900010E00137E3682A689B1A9F42D2DA2200CD
:102AA0000123193201990098089EB047431CF0D1C8
:102AB00001204042FEBD3020E11843310870210062
:102AC0005A1C45310978A218433202331170C1E70C
:102AD000220001231A3201990098089EB047431C36
:102AE000E6D00137D1E70000F0B58BB006920A00BE
:102AF00043320793059004920A7E0C00109B6E2AC5
:102B000000D18FE017D8632A2CD008D8002A00D132
:102B100099E0582A54D026004236327029E0642ABF
:102B200001D0692AF7D121681A68080623D5111D3A
:102B30001960156825E0732A00D188E008D86F2A4B
:102B400029D0702AE7D1202209680A43226003E0D5
:102B5000752A20D0782ADED12200782145321170E2
:102B60006C4A30E00E001A684236111D1960136875
:102B70003370012379E04906D9D5111D196000236E
:102B8000D55E002D03DA2D23049A6D421370624B3B
:102B90000A2703932FE020681968050603D5081D4E
:102BA00018600D6805E04006F9D50D68081D18602D
:102BB000ADB2594B082703936F2A18D00A2716E0A5
:102BC00045310A70544A03921A682168101D186032
:102BD0001568080622D5CB0702D5202319432160AA
:102BE0001027002D03D1202322689A43226023005E
:102BF000002243331A706368A360002B5CDB04225D
:102C0000216891432160002D58D1049E002B64D08F
:102C10002600039B42361B7833705EE04806DAD507
:102C2000ADB2D8E709681A68080605D5111D196004
:102C3000136862691A6006E04906F7D5111D19602C
:102C40001368A28A1A800023049E236154E01A6844
:102C5000111D1960166800216268300000F07CF8D0
:102C6000002801D0801B6060636823610023049A00
:102C7000137041E02369320006990598079DA84723
:102C8000431C43D0236800259B070FD4099BE068B1
:102C900098423DDA18003BE02200012319320699E0
:102CA0000598079EB047431C30D00135E368099A68
:102CB0009B1A9D42F0DBE9E7002DA9D0049E280075
:102CC0003900FDF70DFD039B013E5B5C280033706E
:102CD0003900FDF77FFC051EF1D1082F09D12368CB
:102CE000DB0706D563682269934202DC3023013E8C
:102CF0003370049B9B1B2361079B09AA009321004F
:102D0000069B0598FFF782FE431CB3D10120404289
:102D10000BB0F0BD703300005F330000002370B5CE
:102D2000064C05000800236000F052F8431C03D154
:102D30002368002B00D02B6070BDC046D0E9FF1F78
:102D40000B1E04D0FF2A04D98A2303608B3B180092
:102D500070470A700123FAE7C9B28218904201D184
:102D60000020704703788B42FBD00130F6E77047B4
:102D70007047F8B507000D001600002905D11100B5
:102D8000FFF780FC04002000F8BD002A03D1FFF704
:102D90002FFC3400F7E700F012F82C008642F2D93D
:102DA00031003800FFF76EFC041EECD02900320021
:102DB000FFF7FAFA29003800FFF71AFCE3E70B1FC8
:102DC0001B68181F002B01DA0B58C0187047000051
:102DD000044A1368002B03D01818106018007047BD
:102DE000014BF9E738E5FF1FD8E9FF1FFEE7C046B2
:102DF000363530302E353300000000303235333474
:102E00002E3535340000363530302E3032333539FA
:102E10000000010141542B257325730D0A007365D1
:102E20006E6420746F206D6F64756C653A200D0AB6
:102E3000004E5242004552524F52004F4B00434306
:102E40004C4B004346554E00434D45453D004E53C7
:102E50004F52463D302C32004E534F53543D004E9E
:102E6000534F43523D22444752414D222C31372C7F
:102E700034323030302C310043475041444452000A
:102E800043535100434741435400434744434F4E4B
:102E9000543D312C224950222C22222C2222004344
:102EA000455245473F00434F5053004E50494E3D19
:102EB000302C2231323334220043474D49004154F3
:102EC000004E474C4C005047535600476F74204704
:102ED00050530D0A004461746120696E76616C691B
:102EE000642C2077616974696E6720666F72207642
:102EF000616C696420646174610D0A00256C640D65
:102F00000A0001015265696E6465657220496F545B
:102F10002068617320737461727465640D0A436F75
:102F20006D6D616E642022696F742220746F20734E
:102F30007461727420657865637574696E67207258
:102F400065696E6465657220747261636B20637974
:102F5000636C650D0A436F6D6D616E64202267704E
:102F600073696E666F3D3122206F72202267707325
:102F7000696E666F3D302220746F207377697463C9
:102F800068204750532064617461206F6E2F6F6614
:102F9000660D0A004F7220656E746572206E6F7246
:102FA0006D616C20415420636F6D6D616E647320A0
:102FB0006865726520666F7220534152412D4E3212
:102FC0000D0A4D6F64756C657320706F776572655F
:102FD00064206F6E20616E6420626F6F74696E672B
:102FE000206E6F77210D0A00313131313100666179
:102FF0006C736500576F6B656E20627920414343A7
:10300000454C2C207265696E646565722069732079
:10301000212121414C4956452121210D0A0074727C
:10302000756500696F74005374617274696E67200E
:103030005265696E6465657220496F5420637963D7
:103040006C650D0A00677073696E666F3D310067CD
:103050007073696E666F3D300072666F66660072EF
:10306000666F6E00B5620073656E6420746F2067D2
:1030700070730D0A00466F756E64205542582072B9
:103080006573706F6E73650D0A00526F676572200D
:10309000696E636C756465206D61696E2E630D0ADF
:1030A0000030323533302E3536393531003D312C54
:1030B0003100504450203120616374697661746539
:1030C000640D0A003D320044652D726567697374B2
:1030D000657265640D0A005265676973746572658F
:1030E000640D0A00536F636B6574207265616479C7
:1030F0000D0A0050445020636F6E7465787420315F
:1031000020646566696E65640D0A002B434552456F
:10311000473A20302C310043455245475F4F4B0D15
:103120000A006563686F0D0A002B55464F544153E2
:10313000007265626F6F7465640D0A0074696D6575
:103140006F7574206572726F720D0A00302C223117
:1031500036372E39392E3230372E313333222C3157
:103160003838342C25642C222573220073656E7444
:10317000002B4E50494E3A20224F4B220061636B88
:103180000D0A0069702020666F756E640D0A007B61
:103190000D0A0D0A202020202273657269616C6E71
:1031A000756D626572223A222573222C0D0A002069
:1031B000202020226C6174223A222573222C0D0AD1
:1031C0000020202020226C6F6E67223A2225732275
:1031D0002C0D0A0020202020227374617475732244
:1031E0003A222573222C0D0A002020202022626121
:1031F0007474657279223A222564220D0A0D0A7DC3
:103200000025303278007265696E6465657231320E
:103210003334007265696E64656572007265696E4B
:1032200064656572747261636B65720080841E00F0
:1032300000127A0006003410070034101400160043
:1032400018001A001C001E00220028001C0020008C
:10325000240028002C0030003800440030003800E2
:103260004000480050005800680080005000600096
:10327000700080009000A000C000F000A000C0001E
:10328000E0000001200140018001E00140018001D7
:10329000C0010002400280020003C003800200035C
:1032A0008003000480040005000680070005000676
:1032B000000700080009000A000C000F1400381075
:1032C0001500381000000000000000000C00341051
:1032D00000020100000100000000000000000100E9
:1032E00048E0FF1F00000000000000000000000098
:1032F00000000000000000000000000000000000CE
:1033000000000000000000000000000000000000BD
:1033100000000000000000000000000000000000AD
:10332000000000000000000000000000000000009D
:10333000000000000000000000000000000000008D
:10334000000000004300504F534958002E00232D29
:10335000302B2000686C4C0065666745464700309E
:1033600031323334353637383941424344454600EB
:1033700030313233343536373839616263646566EB
:103380000000202020202020202020282828282855
:10339000202020202020202020202020202020202D
:1033A0002020881010101010101010101010101085
:1033B0001010040404040404040404041010101085
:1033C0001010104141414141410101010101010140
:1033D00001010101010101010101010101101010B0
:1033E0001010104242424242420202020202020213
:1033F0000202020202020202020202020210101083
:10340000102000000000000000000000000000008C
:1034100000000000000000000000000000000000AC
:10342000000000000000000000000000000000009C
:10343000000000000000000000000000000000008C
:10344000000000000000000000000000000000007C
:10345000000000000000000000000000000000006C
:10346000000000000000000000000000000000005C
:10347000000000000000000000000000000000004C
:1034800000000000F8B5C046F8BC08BC9E46704776
:0C349000F8B5C046F8BC08BC9E4670476A
:08349C00D4CFFF7F0100000006
:0434A40039040000E7
:0434A800110400000B
:1034AC009F2E0000842E00008A2E0000782E000033
:1034BC00A62E0000AB2E0000312E00005F2E000067
:1034CC004E2E0000582E0000D00700000100000016
:1034DC001C320000063200001332000013320000D0
:1034EC0000127A0048E0FF1F0000000004330000C7
:1034FC0024330000E4320000000000000000000053
:10350C0000000000000000000000000000000000AF
:10351C00000000000000000000000000000000009F
:10352C00000000000000000000000000000000008F
:10353C00000000000000000000000000000000007F
:10354C00000000000000000043000000000000002C
:10355C00000000000000000000000000000000005F
:10356C00000000000000000043000000000000000C
:10357C00000000000000000000000000000000003F
:10358C0000000000000000004300000000000000EC
:10359C00000000000000000000000000000000001F
:1035AC0000000000000000004300000000000000CC
:1035BC0000000000000000000000000000000000FF
:1035CC0000000000000000004300000000000000AC
:1035DC0000000000000000000000000000000000DF
:1035EC00000000000000000043000000000000008C
:1035FC0000000000000000000000000000000000BF
:10360C00000000000000000043000000000000006B
:10361C00000000000000000000000000000000009E
:10362C000000000000000000412D0000CB25000030
:10363C0000000000813300004C330000302E0000ED
:10364C00302E0000302E0000302E0000302E0000F6
:10365C00302E0000302E0000302E0000302E0000E6
:10366C00FFFFFFFFFFFFFFFFFFFFFFFFFFFF00005C
:10367C0001004153434949000000000000000000D4
:10368C00000000000000000000000000000000002E
:10369C0000004153434949000000000000000000B5
:1036AC00000000000000000000000000000000000E
:0836BC00000000000000000006
:04000003000004E90C
:00000001FF
