:1000000000600020E904000035050000390500000B
:1000100000000000000000000000000000000000E0
:100020000000000000000000000000003D0500008E
:100030000000000000000000410500004505000030
:10004000490500004D050000510500005505000060
:1000500031050000310500003105000031050000C8
:10006000590500005D050000610500006505000000
:10007000690500006D0500007105000031050000F4
:100080003105000031050000310500003105000098
:100090003105000031050000310500007505000044
:1000A0003105000031050000310500003105000078
:1000B0003105000031050000310500003105000068
:10040000FFFFFFFFFFFFFFFFFFFFFFFFFE3FFFFFBD
:1004100010B5064C2378002B07D1054B002B02D0DA
:10042000044800E000BF0123237010BD6CE0FF1FF3
:1004300000000000401C0000084B10B5002B03D04A
:100440000749084800E000BF07480368002B00D1B7
:1004500010BD064B002BFBD09847F9E700000000C9
:1004600070E0FF1F401C000068E0FF1F000000005C
:10047000164B002B00D1144B9D46402292029A1A33
:10048000924600218B460F461348144A121A00F078
:1004900015FC0F4B002B00D098470E4B002B00D0C3
:1004A00098470020002104000D000D48002802D0CC
:1004B0000C4800E000BF00F0DDFB2000290000F048
:1004C00089F900F0C1FBC046000008000060002070
:1004D00000000000000000006CE0FF1F04E1FF1FAF
:1004E000000000000000000072B60A480A490160DE
:1004F0000A6882F30888094880470949094A0A4B73
:100500009B1A03DD043BC858D050FBDC62B6074899
:100510008047000008ED00E000000000250C00000E
:10052000681C000000E0FF1F6CE0FF1F710400006A
:10053000114800471148004711480047114800473B
:10054000114800471148004711480047114800472B
:10055000114800471148004711480047114800471B
:10056000114800471148004711480047114800470B
:1005700011480047114800473105000035050000CB
:10058000390500003D05000041050000450500005B
:10059000D1080000E1080000F10800000109000096
:1005A000750900008D0900004D0B00005D0B000077
:1005B000810A00009D0A000045090000B90A0000F8
:1005C000002243088B4274D303098B425FD3030A92
:1005D0008B4244D3030B8B4228D3030C8B420DD3A5
:1005E000FF22090212BA030C8B4202D31212090233
:1005F00065D0030B8B4219D300E0090AC30B8B4271
:1006000001D3CB03C01A5241830B8B4201D38B031E
:10061000C01A5241430B8B4201D34B03C01A5241C3
:10062000030B8B4201D30B03C01A5241C30A8B4206
:1006300001D3CB02C01A5241830A8B4201D38B02F1
:10064000C01A5241430A8B4201D34B02C01A524195
:10065000030A8B4201D30B02C01A5241CDD2C30907
:100660008B4201D3CB01C01A524183098B4201D383
:100670008B01C01A524143098B4201D34B01C01A6E
:10068000524103098B4201D30B01C01A5241C308E6
:100690008B4201D3CB00C01A524183088B4201D355
:1006A0008B00C01A524143088B4201D34B00C01A41
:1006B0005241411A00D20146524110467047FFE7AD
:1006C00001B5002000F006F802BDC0460029F7D0B1
:1006D00076E770477047C04670B50D0014000029DA
:1006E00008D00138012805D81100280000F049F889
:1006F000200070BD01246442FAE710B50B00002809
:1007000004D11100180000F040F810BD0120404253
:10071000FBE7000010B5134B1C79022C12D0062CFD
:1007200001D0012C1CD1002A06D00A000100186853
:1007300000F01CFA002004E00A000100186800F034
:1007400021FA10BD002A05D00A000100186800F047
:1007500049F9EFE70A000100186800F051F9F0E7E5
:100760000120EEE788E0FF1F10B50C1E06D0002820
:1007700005D00122FFF7CEFF002800D00024200082
:1007800010BD10B5FFF7F0FF10BDF8B505000F0064
:100790000024BC4204D30ED100232B552000F8BD09
:1007A0002E19002201213000FFF7B4FF002806D0E7
:1007B00001246442F2E700232D196B70EEE73378D1
:1007C0000D2B01D00A2B03D1002CF4D13470013C45
:1007D0000134DEE710B5054800F078FA00F020FAA1
:1007E00000F000FA00F0FCF9C046FDE7901B0000A5
:1007F0004168074A074BD1500378C0209B0400038F
:1008000011680340044801400B4313607047C04621
:100810000070044044100000FFFFF3FF032130B5D7
:10082000214B9A7992080A40012A24D00E210724EC
:10083000C27852000A401A7242790179D2012140ED
:100840000A43D2B21A7659788278063CA1432240F4
:100850000A435A70017840788A010243D2B21A7072
:100860005A78520718D403209A799208024091428C
:10087000FAD1002030BD0478012CD7D15A78857880
:1008800022409542D2D01A783E3422401A709A798A
:1008900092080A42FBD1C9E70229E4D10A009879FB
:1008A0001042FCD0DFE7C0460040064003790268F2
:1008B0001B01D318802210B5FC33D96852040A43B7
:1008C000DA608368002B01D0C168984710BD000032
:1008D00010B5024B1868FFF7E9FF10BD90E0FF1F4D
:1008E00010B5024B5868FFF7E1FF10BD90E0FF1F05
:1008F00010B5024B9868FFF7D9FF10BD90E0FF1FBD
:1009000010B5024BD868FFF7D1FF10BD90E0FF1F74
:1009100010B5094C2168002904D0084B084A1B680F
:10092000106898476168002904D0044B044A5B684A
:100930005068984710BDC046A0E0FF1FA8E0FF1F09
:10094000B0E0FF1F10B5FFF7E3FF10BDC37810B58F
:10095000DB0602D483789B0605D5044B1B689847B9
:10096000BFF34F8F10BD024BF8E7C046C0E0FF1F3A
:10097000C4E0FF1F10B5034B03481968FFF7E6FFFB
:1009800010BDC046B8E0FF1F0060064010B5034B25
:1009900003485968FFF7DAFF10BDC046B8E0FF1FF3
:1009A000007006404268CB0F52005208DB07134329
:1009B000084A1A40084B0B401343084A1340C02210
:1009C00012020A40134343604068084000D00448C4
:1009D0007047C046FFFFE0BF00001F40FF3FFFFF22
:1009E0001A050000802310B58A181B04914200D11B
:1009F00010BD44681C42FCD00C780131C460F5E79E
:100A0000F8B5802580260B008A182D03F602934244
:100A100024D1002007E044682C4205D0802109033E
:100A2000FFF7C0FF1348F8BD344205D08021C9024A
:100A3000FFF7B8FF1048F6E761460C4205D0802169
:100A40008902FFF7AFFF0D48EDE7802149020C4214
:100A500009D0FFF7A7FFA420C000E4E7802180278A
:100A600089028C46BF0341683942D4D0C1681970ED
:100A70000133CCE71D0500001E0500001F05000026
:100A800010B5034B034A1B6811680348984710BD13
:100A9000D0E0FF1FC8E0FF1F0040054010B5034B2A
:100AA000034A1B6851680348984710BDD0E0FF1FF8
:100AB000C8E0FF1F0050054010B5154C61680029C3
:100AC00010D0144BDA6F920302D4DA6F520309D5B7
:100AD000DA6F920502D4DB6F5B0503D50E4B0F482E
:100AE0001B6898472168002910D00C4B1A689203A4
:100AF00002D41A68520309D51A68920502D41B68F9
:100B00005B0503D5064B05481B68984710BDC046DA
:100B1000F8E0FF1F04F00240D4E0FF1F00F00240A5
:100B2000D8E0FF1FC27810B5054B8900D20604D566
:100B3000044A12685958904710BD034AF9E7C04665
:100B4000DCE0FF1FE4E0FF1FE8E0FF1F10B500211D
:100B50000148FFF7E7FF10BD0060074010B5012115
:100B60000148FFF7DFFF10BD007007408A1891426F
:100B700000D1704703795BB2002BFBDA0B780131AF
:100B8000C371F4E7F0B504258A18914213D100200F
:100B9000F0BD03799C46644643791B022343082435
:100BA000234211D12B4211D13B4211D1DB0704D595
:100BB000FD208000ECE72026022703793342E8D0AD
:100BC000C3790B700131E0E70248E1E70248DFE753
:100BD0000248DDE7F1030000F2030000F303000028
:100BE00070470000074B084A084910B50848D15023
:100BF000FFF714FE0748FFF7FBFD074A074B1A6093
:100C000010BDC046441000000070044000000710F2
:100C1000981B0000A01B0000006CDC0200E0FF1F1E
:100C2000704700000823064A9178194202D0917853
:100C30000B43937088230021024A5B01D150704717
:100C400000D0074000700440084B10B50400002B92
:100C500002D0002100E000BF054B1868836A002B1A
:100C600000D09847200000F091FFC046000000002F
:100C7000A81B000070B500260C4D0D4C641BA41081
:100C8000A64209D1002600F0DBFF0A4D0A4C641B86
:100C9000A410A64205D170BDB300EB5898470136A9
:100CA000EEE7B300EB5898470136F2E7601C00000E
:100CB000601C0000601C0000641C0000030082181F
:100CC000934200D1704719700133F9E70FB40B4B11
:100CD00013B51C68002C05D0A369002B02D120009D
:100CE00000F050F805AB049AA1682000019300F0D1
:100CF00065F916BC08BC04B01847C04604E0FF1FE5
:100D000010B5024900F0B2F810BDC046B918000095
:100D1000002310B504000360436083608181436653
:100D2000C281036143618361190008225C30FFF7CF
:100D3000C5FF054B24626362044BA362044BE3626C
:100D4000044B236310BDC046291500005115000057
:100D500089150000B515000070B568254A1E554379
:100D60000E002900743100F0A3F8041E08D0002101
:100D70002A00016046600C30A0606832FFF79EFFD9
:100D8000200070BD836913B50400002B28D1836453
:100D9000C3640365134B144A1B6882620193984233
:100DA00001D101238361200000F020F86060200061
:100DB00000F01CF8A060200000F018F80022E060AD
:100DC00004216068FFF7A4FF01220921A068FFF752
:100DD0009FFF02221221E068FFF79AFF0123A3611F
:100DE00013BDC046A81B0000010D0000F8B51E4B46
:100DF00007001E68B369002B02D13000FFF7C2FF65
:100E00004836B4687368013B04D53368002B07D0BB
:100E10003668F6E70C22A55E002D0DD06834F2E7A7
:100E200004213800FFF798FF30600028F0D10C2330
:100E300004003B602000F8BD012320005B42E381F9
:100E40000233A38165662560A560656025616561E3
:100E5000A561082229005C30FFF730FF6563A563B8
:100E6000A564E564E6E7C046A81B0000F7B50400EA
:100E70000700002601914834002C01D13000FEBD4E
:100E80006368A5680093009B013B009301D524682B
:100E9000F2E7AB89012B08D90E22AB5E013304D0F7
:100EA00029003800019B984706436835EBE70000AE
:100EB000032370B5CD1C9D43083506000C2D1ED2B2
:100EC0000C25A9421DD8300000F0ADFD254A14685C
:100ED0002100002919D1244C2368002B03D13000B4
:100EE00000F010FB20602900300000F00BFB431CD9
:100EF0002CD10C233000336000F096FD03E0002D70
:100F0000DFDA0C233360002070BD0B685B1B1AD442
:100F10000B2B03D90B60CC18256003E08C420ED15B
:100F200063681360300000F07FFD200007220B3063
:100F3000231D9043C31AE7D05A42E250E4E74B68BE
:100F400063600C00EEE70C004968C2E70323C41C91
:100F50009C43A042E0D0211A300000F0D3FA431C99
:100F6000DAD1C6E7ECE0FF1FF0E0FF1F936810B591
:100F7000013B9360002B05DA9469A34208DBCBB2F6
:100F80000A2B05D01368581C10601970C8B210BD28
:100F900000F016FBFBE7F8B506000F001400D518AB
:100FA000AC4201D1002007E021783A003000FFF781
:100FB000DDFF0134431CF3D1F8BD0000F0B59FB054
:100FC00006000F0014000593002804D08369002B4D
:100FD00001D1FFF7D7FE7F4B9F425CD17768BB8979
:100FE0001B0762D53B69002B5FD0002306AD6B6108
:100FF00020336B761033AB760294029C2378002B5F
:101000005DD1029BE31A04930DD0049B029A390030
:101010003000FFF7C0FF431C00D1CCE06A69049B9D
:10102000944663446B612378002B00D1C3E0012216
:10103000002352426A6002A95432521801342B60D4
:10104000EB60AB601370AB6521780522624800F05D
:10105000DFFC631C9C46002835D12968CB0604D5EB
:10106000532302AA20309B1818700B0704D5532372
:101070002B2002AA9B18187023782A2B2CD0002032
:101080000A21099B2278303A092A00D86BE000280F
:101090002AD0099328E0514B9F4201D1B7689EE7BF
:1010A0004F4B9F429BD1F76899E73900300000F021
:1010B000F1FA002899D0012040421FB0F0BD252B45
:1010C0009FD001349AE7444B2968C01A012383401A
:1010D0000B432B606446B7E7059B181D1B68059002
:1010E000002B3ADB0993644623782E2B0BD16378CF
:1010F000621C2A2B3FD1059B02341A1D1B680592E6
:10110000002B35DB079321780322364800F080FC62
:10111000002807D0334B2A68C01A4023834013436A
:101120002B6001342178631C06222F480293297614
:1011300000F06EFC002844D02C4B002B2FD12968E6
:10114000059B0722C90528D59B18934308330593AF
:101150006B69039A9B186B614FE75B42EB6002235C
:101160000B432B60BFE74B4301349B18012089E7F9
:1011700001235B42C6E7002314000A201A006B60BB
:1011800021783039092903D9002BBCD00792BAE75E
:101190004243013452180123F2E70733D5E705AB88
:1011A00000933A00124B2900300000E000BF03908A
:1011B000039B0133CCD1BB895B0600D57BE70B9841
:1011C0007BE705AB00933A00094B2900300000F0A3
:1011D0007FF8ECE7CC1B00000C1C0000EC1B0000AF
:1011E000AC1B0000121C0000161C000000000000D8
:1011F000970F0000F7B5150001938A680B690090FE
:101200000C00934200DA130022002B604332127864
:10121000002A01D001332B6023689B0602D52B687E
:1012200002332B60062723681F4027D02300433357
:101230001B785A1E93412268920630D422000199ED
:1012400043320098089EB047431C25D006232068EF
:101250002A68E16803400025042B03D18D1AEB4373
:10126000DB171D40A3682269934201DD9B1AED182C
:101270000027BD4220D1002010E00137E3682A6832
:101280009B1A9F42D2DA2200012319320199009859
:10129000089EB047431CF0D101204042FEBD3020E3
:1012A000E1184331087021005A1C45310978A21811
:1012B000433202331170C1E7220001231A3201992F
:1012C0000098089EB047431CE6D00137D1E70000E4
:1012D000F0B58BB006920A00433207930590049252
:1012E0000A7E0C00109B6E2A00D18FE017D8632A6B
:1012F0002CD008D8002A00D199E0582A54D02600D2
:101300004236327029E0642A01D0692AF7D1216877
:101310001A68080623D5111D1960156825E0732A7F
:1013200000D188E008D86F2A29D0702AE7D120227E
:1013300009680A43226003E0752A20D0782ADED1AA
:1013400022007821453211706C4A30E00E001A6894
:101350004236111D196013683370012379E0490684
:10136000D9D5111D19600023D55E002D03DA2D2378
:10137000049A6D421370624B0A2703932FE0206892
:101380001968050603D5081D18600D6805E04006BC
:10139000F9D50D68081D1860ADB2594B08270393A5
:1013A0006F2A18D00A2716E045310A70544A039272
:1013B0001A682168101D18601568080622D5CB0729
:1013C00002D52023194321601027002D03D12023AB
:1013D00022689A4322602300002243331A70636814
:1013E000A360002B5CDB0422216891432160002D67
:1013F00058D1049E002B64D02600039B42361B78F4
:1014000033705EE04806DAD5ADB2D8E709681A68ED
:10141000080605D5111D1960136862691A6006E097
:101420004906F7D5111D19601368A28A1A80002396
:10143000049E236154E01A68111D1960166800218A
:101440006268300000F0E4FA002801D0801B606080
:10145000636823610023049A137041E0236932001A
:1014600006990598079DA847431C43D0236800258B
:101470009B070FD4099BE06898423DDA18003BE0D7
:1014800022000123193206990598079EB047431C94
:1014900030D00135E368099A9B1A9D42F0DBE9E7F9
:1014A000002DA9D0049E28003900FFF70FF9039BF7
:1014B000013E5B5C280033703900FFF781F8051EA0
:1014C000F1D1082F09D12368DB0706D563682269AB
:1014D000934202DC3023013E3370049B9B1B23614B
:1014E000079B09AA00932100069B0598FFF782FE3F
:1014F000431CB3D1012040420BB0F0BD2E1C0000B4
:101500001D1C0000002370B5064C05000800236078
:1015100000F02EFB431C03D12368002B00D02B606E
:1015200070BDC04600E1FF1F70B50C000E25495F7D
:1015300000F0C6FA002803DB636D1B18636570BDFD
:10154000A389024A1340A381F9E7C046FFEFFFFFDA
:10155000F8B51F008B8905000C001600DB0505D5CA
:101560000E23C95E0022022300F0D2F9A389054AA6
:1015700028001340A38132000E23E15E3B0000F0FF
:1015800075F8F8BDFFEFFFFF70B50C000E25495F41
:1015900000F0BEF9A389421C03D1054A1340A38180
:1015A00070BD802252011343A3816065F8E7C046F5
:1015B000FFEFFFFF10B50E23C95E00F0E1F810BD8C
:1015C000F8B505000E001400002804D08369002B34
:1015D00001D1FFF7D7FB224B9C422DD16C68A36948
:1015E000A360A3891B0731D52369002B2ED0236864
:1015F0002269F7B2981A6369F6B2984205DB2100B6
:10160000280000F059F9002826D1A3680130013BD9
:10161000A36023685A1C22601F706369984204D03B
:10162000A389DB071AD50A2E18D12100280000F063
:1016300043F9002812D00FE00A4B9C4201D1AC685C
:10164000CDE7094B9C42CAD1EC68C8E721002800CD
:1016500000F020F80028CAD0012676423000F8BDFC
:10166000CC1B0000EC1B0000AC1B000070B505009B
:10167000080011000022064C22601A00FFF72CF827
:10168000431C03D12368002B00D02B6070BDC046E3
:1016900000E1FF1F364B70B51D6806000C00002DE1
:1016A00005D0AB69002B02D12800FFF76BFB314B53
:1016B0009C420FD16C680C23E25E93B219072DD4C3
:1016C000D90611D409230120336037331343A38192
:1016D000404270BD284B9C4201D1AC68EBE7274BE0
:1016E0009C42E8D1EC68E6E75B0713D5616B002903
:1016F00008D023004433994202D0300000F096F91C
:10170000002363632422A3899343A381002363609E
:10171000236923600823A2891343A3812369002B33
:101720000BD1A0218022A389890092000B40934213
:1017300003D02100300000F027F90123A2891340D3
:1017400011D00023A36063695B42A3610020236979
:101750008342BED10C23E25E1306BAD54023134365
:10176000A3810138B5E7920700D46369A360EDE770
:1017700004E0FF1FCC1B0000EC1B0000AC1B0000B2
:10178000002370B5064C05000800236000F0D0F976
:10179000431C03D12368002B00D02B6070BDC046D2
:1017A00000E1FF1FF7B58A8905000C00130760D41C
:1017B0004B68002B04DC0B6C002B01DC0020FEBD11
:1017C000E76A002FFAD000232E682B6080235B018C
:1017D0001A4034D0606DA3895B0706D56368C01AD0
:1017E000636B002B01D0236CC01A0200216A002316
:1017F0002800E76AB847A189431C06D12B681D2B36
:1018000031D82C4ADA40D3072DD5002363602369F1
:101810002360CB0405D5431C02D12B68002B00D1DB
:101820006065616B2E600029C8D023004433994263
:1018300002D0280000F0FAF800206063BFE701231F
:10184000216A2800B847431CC5D12B68002BC2D0A1
:101850001D2B01D0162B01D12E60AFE74023A289AA
:101860001343A381ABE740230B430120A3814042F4
:10187000A5E70F69002FA1D00B680F60DB1B019358
:101880000023920700D14B69A360019B002B00DC71
:1018900094E7019B3A00216A2800A66AB047002815
:1018A00003DC4023A2891343DFE7019B3F181B1A87
:1018B0000193EAE7010040200B6970B505000C00B8
:1018C000002B01D1002070BD002804D08369002BBB
:1018D00001D1FFF757FA0B4B9C4209D16C680C22DF
:1018E000A35E002BEED021002800FFF75BFFEAE7A4
:1018F000054B9C4201D1AC68F1E7044B9C42EED110
:10190000EC68ECE7CC1B0000EC1B0000AC1B0000FB
:1019100070B50500080011000022064C22601A0074
:1019200000F01EF9431C03D12368002B00D02B606C
:1019300070BDC04600E1FF1F70B50E001D000E23F4
:10194000C95E90B01400002907DA00232B60B38928
:101950001B0611D48023DB000FE001AA00F0C4F8BD
:101960000028F2DBF022029B12021340054A9B186A
:101970005A4253412B60EDE740230020236010B012
:1019800070BDC04600E0FFFFF7B502268B89050059
:101990000C00334206D02300473323602361012328
:1019A0006361F7BD01AB6A46FFF7C6FF0099070008
:1019B0002800FFF77DFA002808D10C22A35E9A05C3
:1019C000EFD4032293431E43A681E4E70F4BAB629F
:1019D0008023A28920601343A381009B206163615F
:1019E000019B002B0DD00E23E15E280000F08EF845
:1019F000002806D00322A38993431A00012313432E
:101A0000A381A0893843A081CBE7C046010D000027
:101A1000C9B28218904201D10020704703788B42EE
:101A2000FBD00130F6E770477047000070B5050045
:101A3000002910D00C1F2368002B00DAE4182800BE
:101A4000FFF7F1FF1D4A1368002B05D16360146096
:101A50002800FFF7E9FF70BDA34209D9216860188B
:101A60008342F3D118685B6841182160EEE71300E8
:101A70005A68002A01D0A242F9D919685818A04220
:101A80000BD120680918581819608242E0D11068FB
:101A90005268411819605A60DAE7A04202D90C2353
:101AA0002B60D5E721686018824203D11068526824
:101AB0004118216062605C60CAE7C046ECE0FF1F2D
:101AC00070B50500080011000022064C22601A00C3
:101AD000FEF713FE431C03D12368002B00D02B60BC
:101AE00070BDC04600E1FF1F002370B5064C050025
:101AF00008001100236000F023F8431C03D1236881
:101B0000002B00D02B6070BD00E1FF1F002370B5DB
:101B1000064C05000800236000F01AF8431C03D1AE
:101B20002368002B00D02B6070BDC04600E1FF1F72
:101B300058220120014B40421A60704700E1FF1F0C
:101B400058220120014B40421A60704700E1FF1FFC
:101B50005822024B00201A607047C04600E1FF1F68
:101B600058220120014B40421A60704700E1FF1FDC
:101B7000044A1368002B03D018181060180070472F
:101B8000014BF9E7F4E0FF1F08E1FF1FFEE7C04645
:101B90005045524B454C4500000201000001000039
:101BA000000000000000010008E0FF1F000000002E
:101BB0000000000000000000000000000000000025
:101BC0000000000000000000000000000000000015
:101BD0000000000000000000000000000000000005
:101BE00000000000000000000000000000000000F5
:101BF00000000000000000000000000000000000E5
:101C0000000000000000000000000000232D302B29
:101C10002000686C4C0065666745464700303132ED
:101C20003334353637383941424344454600303144
:101C300032333435363738396162636465660000A3
:101C4000F8B5C046F8BC08BC9E467047F8B5C0461B
:081C5000F8BC08BC9E46704779
:081C580018E8FF7F0100000005
:041C60003904000043
:041C64001104000067
:101C680000127A0008E0FF1F00000000CC1B0000F3
:101C7800EC1B0000AC1B000000000000000000008E
:101C8800000000000000000000000000000000004C
:101C9800000000000000000000000000000000003C
:101CA800000000000000000000000000000000002C
:101CB800000000000000000000000000000000001C
:0C1CC80000000000000000000000000010
:04000003000004E90C
:00000001FF
