:1000000000600020D10400001D0500002105000053
:1000100000000000000000000000000000000000E0
:1000200000000000000000000000000025050000A6
:10003000000000000000000029050000CD140000B1
:100040003105000035050000390500003D050000C0
:100050001905000019050000190500005D0F0000DA
:100060004105000045050000490500004D05000060
:10007000D50F00006D1000002110000019050000D0
:1000800019050000190500001905000019050000F8
:100090001905000019050000190500005D050000A4
:1000A00019050000190500001905000019050000D8
:1000B000BD0F00001905000019050000190500001A
:10040000FFFFFFFFFFFFFFFFFFFFFFFFFE1FFFFFDD
:1004100010B5064C2378002B07D1054B002B02D0DA
:10042000044800E000BF0123237010BD08E2FF1F55
:10043000000000008C300000044B10B5002B03D0EE
:100440000349044800E000BF10BDC04600000000A2
:100450000CE2FF1F8C300000164B002B00D1144B18
:100460009D46402292029A1A924600218B460F46E0
:100470001348144A121A01F003FE0F4B002B00D050
:1004800098470E4B002B00D0984700200021040015
:100490000D000D48002802D00C4800E000BF01F01C
:1004A000AFFD2000290000F043FB01F093FDC046A2
:1004B00000000800006000200000000000000000B4
:1004C00008E2FF1FC4E9FF1F000000000000000059
:1004D00072B60A480A4901600A6882F30888094826
:1004E00080470949094A0A4B9B1A03DD043BC85857
:1004F000D050FBDC62B607488047000008ED00E002
:1005000000000000411F0000B430000000E0FF1FA9
:1005100008E2FF1F59040000114800471148004736
:10052000114800471148004711480047114800474B
:10053000114800471148004711480047114800473B
:10054000114800471148004711480047114800472B
:10055000114800471148004711480047114800471B
:10056000190500001D0500002105000025050000FB
:1005700029050000CD1400006D1700007D17000054
:100580008D1700009D17000089180000A1180000B9
:10059000A91C0000B91C0000411B00005D1B0000ED
:1005A00031180000791B000002B471464908490067
:1005B000095C49008E4402BC7047C04600224308D3
:1005C0008B4274D303098B425FD3030A8B4244D31B
:1005D000030B8B4228D3030C8B420DD3FF2209025D
:1005E00012BA030C8B4202D31212090265D0030B1C
:1005F0008B4219D300E0090AC30B8B4201D3CB0312
:10060000C01A5241830B8B4201D38B03C01A524153
:10061000430B8B4201D34B03C01A5241030B8B4255
:1006200001D30B03C01A5241C30A8B4201D3CB0240
:10063000C01A5241830A8B4201D38B02C01A524125
:10064000430A8B4201D34B02C01A5241030A8B4228
:1006500001D30B02C01A5241CDD2C3098B4201D340
:10066000CB01C01A524183098B4201D38B01C01ABE
:10067000524143098B4201D34B01C01A5241030935
:100680008B4201D30B01C01A5241C3088B4201D3E4
:10069000CB00C01A524183088B4201D38B00C01A91
:1006A000524143088B4201D34B00C01A5241411AB8
:1006B00000D20146524110467047FFE701B50020C5
:1006C00000F006F802BDC0460029F7D076E7704773
:1006D0007047C0460023C25C0133002AFBD1581E7C
:1006E0007047000010B50449044801F007FD431E9F
:1006F0009841C0B210BDC046A32A0000B0E7FF1F5A
:10070000F3B517000022254DFFB00B002A802449C5
:10071000020003A801F0BCFC03A800F0CBF92148BB
:1007200000F0F2F903A800F0EFF91F4903A801F067
:10073000E5FC444244411D481D4B64420440E4181A
:1007400000F0BEFE0319019300F0BAFE019B98422F
:1007500001D302240EE0174E3378002BF4D0164C50
:100760003900200001F0CAFC00280DD0200000F064
:10077000CBF900249622002192000F48298001F035
:100780007FFC20007FB0F6BD0C49200001F0B6FCD4
:10079000002801D13070D7E70124EBE728E2FF1FE2
:1007A0007C2A0000862A0000992A0000D8DCFFFF7E
:1007B000102700002AE2FF1FB0E7FF1F9D2A00005C
:1007C00037B504004518AC4200D137BD2278044942
:1007D000684601F05DFC684600F096F90134F2E7E6
:1007E0006A2B0000002330B50022C418A2560D2A3F
:1007F0000DD10022110084420CD1627000222170C0
:10080000A270591C91420CDA181DC0B230BD0133E0
:10081000DBB2E9E7057801304919C9B25218D2B202
:10082000E9E70132D2B2EDE770B5C3780D0003718C
:100830008378C3702E2383700A794A71CA78CB708B
:1008400000230A710022C1188A56302A37D0214C61
:10085000200001F04BFC20002E2101F039FC441C4B
:100860000023E356302B2DD0200001F0ADFB0621F4
:10087000FFF7A4FE184E02003100200001F008FC32
:1008800000230022E9188A56302A1DD0134C20007C
:1008900001F02CFC20002E2101F01AFC441C002346
:1008A000E356302B13D0200001F08EFB0621FFF71A
:1008B00085FE31000200200001F0EAFB70BD01332B
:1008C000DBB2BFE70134CBE70133DBB2D9E7013458
:1008D000E5E7C04684E7FF1F642B00009CE7FF1F8D
:1008E000F0B593B009AC01AB636005ABE3606B4658
:1008F000274E28493000A36101F000FC264905007D
:10090000300001F0FBFB0600002D34D02349280005
:1009100001F0F4FB002801D000238370002329009C
:100920001F000022AA56002A11D1A56941212800E2
:1009300001F0CEFB002815D0194800F0E5F8E16879
:100940006068FFF771FF0123180013B0F0BD681C49
:100950002C2A05D19A00A150010001332F70DBB27F
:100960000500DEE75621280001F0B2FB002802D086
:100970000C4800F0C9F8331EE6D00849300001F0F9
:10098000BDFB002203009042DED082701300DBE743
:100990002CE5FF1F292B00002E2B0000962A0000BB
:1009A000332B00003D2B0000F8B58026C0230B4CF4
:1009B0000B4D76055B00EE50200000F0A5FF0123F3
:1009C0000022084F2100380023716371A27100F0EA
:1009D00073FF054BBB602E60F8BDC046A6E9FF1F44
:1009E00000E100E000000440571B0000F0B587B0B4
:1009F00001F0B8FA022000F027FE0190002000F07C
:100A000023FE254D03AC0090280001F0DBF9200007
:100A100001F058F896260123C020AB71EB71A37248
:100A2000E3721E4A1E4BB6012E600396D158800514
:100A30000143C020D150D15800050143194FD15076
:100A40001948009A210000F079FF019A2900380026
:100A500001F046F903968026144D009A2100B60352
:100A6000280000F06BFF31000F4801F038F88023B8
:100A700080210F4C5B0123603800890101F0ACF943
:100A80008023DB0123603100280001F028F8802357
:100A90009B01236007B0F0BD94E7FF1F0070044086
:100AA0000410000000C00640004005400050054012
:100AB00000E100E00023802110B5074AC356090475
:100AC0000130002B00D110BD54680C42FCD0D36023
:100AD0000023C3560130F4E700400540002310B561
:100AE000084CC3560130002900D110BD227952B202
:100AF000002AFBDADBB2E37100230139C356C9B225
:100B00000130F0E700C0064030B580250400002326
:100B100006492D04E256D8B2002A00D130BD4868FB
:100B20002842FCD0CA600133F4E7C04600500540BB
:100B30000823F0B5D54AD64C9178A5440B43937061
:100B40008022D44B1A6001F09FF901F075F900F092
:100B50006BFDFA218900FFF731FDCF4B0138984238
:100B60000DD8C021CD4A09065060CD48036A1B024A
:100B70001B0A0B43036200239360073313600125B4
:100B8000FFF734FFC74CC84F04213A00200000F0A3
:100B900053FEC64AC64E1368C6492B4313603268DB
:100BA00009A801F075FA09A8FFF7AEFFFFF7FCFEF0
:100BB0002A23C14A20001370C04B1D70C04B1A7904
:100BC0002A431A71042259780A435A702522197A45
:100BD0000A4380211A72402332688A4313433360E8
:100BE00033683A008B432B4333606D3900F024FEA9
:100BF0003A002900200000F01FFE0223B148A36044
:100C0000FFF782FFB048FFF77FFFB04F082239009F
:100C1000684601F019FA0322002102A801F030FA17
:100C200039000A220B3103A801F00EFA1623002224
:100C30006B44A74911A81A7001F058FA4A236B4473
:100C40006946180001F052FA56236B4403A91800B4
:100C500001F04CFA62236B4418009E4901F046FAF9
:100C600049232D226B44DA779B4B9C481A78022A41
:100C700003D01B78002B08D19948FFF745FF00F0FF
:100C8000B1FF8E498C4800F0CDFF934B1B78012BB0
:100C90002BD161336B441800924901F027FA924B33
:100CA0001D78EDB2002DFBD19048FFF72DFF904845
:100CB000FFF72AFF39000B22163106A801F0C4F90C
:100CC00023230C226B448B491BA81D7001F0BCF937
:100CD0004A236B4406A9180001F008FA1BA9562301
:100CE0006B44180001F002FA0DE0834B1B78002BD7
:100CF0003CD0824D8249280001F000FA00281BD028
:100D00008048FFF701FF1BA911A800F0CBF90100F3
:100D10001BA800F0B1FB7C48FFF7F6FE7B497C4A3C
:100D20007C48FFF7EDFC0223A36000F05BFF634902
:100D3000614800F077FFFEE77749280001F0DEF90F
:100D4000061E56D00122754B1A7080231B03A36028
:100D50006A4D2800FFF7BEFC00210200280001F0C8
:100D60008FF90023644A13706D4A13806D4B1B7812
:100D7000002B21D000F0A4FBFA236B4DDB00C01840
:100D8000286000F09DFB2B68984203D2FFF7AAFC75
:100D90000028F6D0654D2800FFF7B6FE5448FFF74F
:100DA000B3FEFA2200215200280001F069F9002365
:100DB0005F4A13805B4A13704B4B1B78002B00D1AA
:100DC00063E7564B1B78002B00D15EE7474D2800A8
:100DD000FFF79AFE4648FFF797FEFFF781FD0028D0
:100DE00038D04A236B445349180001F07FF9524927
:100DF00075E75249280001F081F9002805D0474BDA
:100E00001E7080231B036360A2E74D49280001F098
:100E100075F9002801D0022399E74A49280001F01A
:100E20006DF9002801D00223EDE74749280001F0C1
:100E300065F900280AD04548FFF766FE4448FFF7E9
:100E4000D1FC01002800FFF749FE81E72800FFF7E9
:100E500031FE7DE73C49280001F050F9061E08D01C
:100E60003C48FFF751FE317930000831C9B2FFF735
:100E7000A7FC962200219200280001F001F900232E
:100E8000354A1380184A1370FFE6C04600D0074069
:100E9000CCFDFFFF00E100E0FFFFFF0010E000E0FD
:100EA00000ED00E000F00F406F2B000038800440A0
:100EB00000000440712B000000E00740A4E9FF1F80
:100EC00000C00740892B0000192C0000582A0000A0
:100ED0006D2C0000732C000020E0FF1F792C000017
:100EE000A32C0000BF2C000026E2FF1F2CE5FF1FF3
:100EF000962A0000492D000022E4FF1F2EE2FF1F6A
:100F0000C42C0000C82C00002B2D0000982A0000E3
:100F1000A32A0000422D0000E62C000023E4FF1F5E
:100F20002CE2FF1F2AE2FF1F1CE0FF1FB0E7FF1F9C
:100F300028E2FF1F84E7FF1F9CE7FF1FF02C000043
:100F4000FA2C0000002D0000052D0000082D0000E7
:100F500030E2FF1F162D000024E2FF1F10220120A7
:100F600030B5124B1249DA60DA60124B0870DA7948
:100F7000024210D0C025104A1468AC43146080248B
:100F800015682C43812514601468AC431460087004
:100F900020229A7130BD202298791042F8D0022088
:100FA000087099790A439A71F2E7C04600F00F4041
:100FB00020E0FF1F00C00740000004408022044BD7
:100FC00019681143196019681142FCD17047C04675
:100FD0000000044010B50D4C2021200000F08EFDD3
:100FE00080220B4BD203DA60E368D9B200290CD01F
:100FF000084A094C10882354138801339BB213808C
:101000000D2902D10122054B1A7010BD0040054088
:1010100040F00F4028E2FF1FB0E7FF1F2AE2FF1F4A
:1010200010B50E4C2021200000F0E8FE0C49E379B9
:101030000878DBB20B4A002806D110880A4C2354EA
:10104000138801339BB21380F4231288FF339A4232
:1010500002D9F33BFF3B0B7010BDC04600C00640F9
:1010600026E2FF1F24E2FF1F2CE5FF1F094A0A4B5F
:101070000A48D9681388C1541388C9B201339BB296
:1010800013800D2904D1064B0C39197000231380ED
:101090007047C0462CE2FF1F005005402EE2FF1FA4
:1010A00022E4FF1FF0B56C4BE3B01B680090180002
:1010B00002910193FFF70EFB6B4605901D7D674B78
:1010C0000AAC1B6818000393FFF704FB6B460690FD
:1010D0001E7E634B1B6818000493FFF7FBFA6B46F8
:1010E00007901F7F10232370AB191033FB18637018
:1010F0008023DB0063805B4B1620A3805A4B059A4C
:10110000E3805A4B01992381A0231B0163810023B3
:101110002373FF231A4008ABC018657300F094FFD7
:101120000522002108A800F0ABFF28000E3008AA15
:10113000C0B2577008A90222201800F085FFFF23D3
:10114000079A1035EDB21A40601904997D1900F024
:101150007BFFEDB208AA56706019022208A900F0C0
:1011600073FFFF23069A0235EDB21A400399601906
:1011700000F06AFF3E4A75191068FFF7ABFA6B463C
:1011800003903C4E1A7B3C4901923000009A00F0DB
:101190007FFF009A070006328019384900F078FF77
:1011A000009A3F18B8191232354900F071FF009AC1
:1011B0003F18B8191E32334900F06AFF009A3F18F1
:1011C000531DDA7FB819304900F062FF3F18300034
:1011D000FFF79AFC302308AA13706B461979EDB219
:1011E0001171FAB20092019A08A9931CFAB2D318AD
:1011F0008022DBB252421A434A7062AA5019613807
:10120000DB090522FF388B7000F01EFFFF23039AD5
:1012100005351A40164BEDB21968601900F014FF3D
:1012200031000026019B3A005D19EDB2601900F013
:101230000BFF009B5D19EDB2F3B29D4202D828006E
:1012400063B0F0BDA25D1149029800F021FF029B3E
:10125000013602330293EFE724E0FF1F28E0FF1F6F
:1012600030E0FF1F4D5100005454000004C2FFFF46
:101270002CE0FF1F24E4FF1F242E0000442E00005A
:10128000562E0000692E00007E2E00006A2B000002
:10129000094B10B51868094A0949FFF731FA094B9B
:1012A0001870002803D10848FFF72EFC10BD012854
:1012B000FCD10648F8E7C04610E0FF1F062E0000EC
:1012C000982A0000ADE9FF1F122E0000D92D000062
:1012D000022310B50B4C23702378002B00D110BDD6
:1012E000094B0A4A0A491868FFF70AFA20700028D1
:1012F00003D10848FFF708FCEEE70128ECD10648C7
:10130000F8E7C046ADE9FF1F00E0FF1FA72D000072
:10131000982A0000B32D0000D92D00000B4B10B50A
:1013200018680B4A0B49FFF7EBF90B4C2070FA20B9
:10133000800000F0D3F823780848002B02D0012B5E
:1013400002D10748FFF7E0FB10BDC04608E0FF1FD1
:10135000A32A0000982A0000ADE9FF1F8F2D00008E
:10136000D92D0000094B10B51868094A0949FFF743
:10137000C7F9094B1870002803D10848FFF7C4FBD0
:1013800010BD0128FCD10648F8E7C04604E0FF1F65
:10139000A32A0000552D0000ADE9FF1F5A2D0000C3
:1013A000D92D0000094B10B51868094A0949FFF703
:1013B000A7F9094B1870002803D10848FFF7A4FBD0
:1013C00010BD0128FCD10648F8E7C0460CE0FF1F1D
:1013D000A32A0000982A0000ADE9FF1F182E000084
:1013E000D92D0000094B10B51868094A0949FFF7C3
:1013F00087F9094B1870002803D10848FFF784FBD0
:1014000010BD0128FCD10648F8E7C04614E0FF1FD4
:10141000A32A0000982A0000ADE9FF1F802D0000DC
:10142000D92D000010B5FEB003000A0001A80C4938
:1014300000F02EFE0B4B0C4A186801A9FFF760F96B
:101440000A4B041E18700A4802D0012C05D1094825
:10145000FFF75AFB20007EB010BD0024FAE7C0461B
:10146000E12D000018E0FF1FA32A0000ADE9FF1FD7
:10147000012E0000D92D000070B50E4A04000D00A9
:101480000D480E49FFF73CF9FFF702FFC82000F0B6
:1014900025F8FFF743FFFFF765FFFFF719FFFFF799
:1014A00081FFFFF79FFF29002000FFF7BBFF012806
:1014B000F1D070BDA32A0000792D0000982A000009
:1014C000014B18687047C046BCE4FF1F024A13680E
:1014D000013313607047C046BCE4FF1F034B1A681A
:1014E00080181A689042FCD87047C046BCE4FF1FC1
:1014F0000222084B1878104004D19A791207920FF3
:10150000012A05D101225B781340034A9B009858B9
:101510007047C04600400640BC2E00000020044B2F
:101520001B785BB2834201DA024B18687047C046F1
:1015300000500640B4E9FF1F0C4B10B51C68240393
:10154000A40F022C0CD0032C0DD0002C01D00020B5
:1015500010BDFFF7E3FF80231B029842F7D1F7E7A6
:10156000034B1868F4E7FA208000F1E700700440AC
:10157000B0E9FF1F4168074A074BD1500378C020EC
:101580009B04000311680340044801400B431360AF
:101590007047C0460070044044100000FFFFF3FF96
:1015A00070B5074B1C7A1D7EFFF7A2FF0723E4B23C
:1015B000EDB264081D401C406419E04070BDC04697
:1015C00000400640074A137E5BB2002B08DB90798F
:1015D0000007800F43425841034B40421840704778
:1015E0000148FCE700400640006CDC0210B50B4CE3
:1015F000A3791B079B0F012B07D0002B0CD00020D9
:10160000022B08D1064B186805E0FFF771FF237A1B
:101610001B075B0FD84010BD0248FCE700400640A6
:10162000B4E9FF1F006CDC0210B5FFF7DFFF044ACE
:10163000044BD158090F0131FEF7C0FF10BDC04661
:10164000007004404410000070B513280BD8FEF75A
:10165000ABFF0C0C160A160A0A23260A0A0A290AE4
:101660000A0A0A2C2C2F002070BDFFF7BFFF124A78
:10167000124BD158090F0131FEF7A0FFF4E70E4DD0
:101680000E4CFFF7B3FF2959090F0131FEF796FF02
:1016900029594903490FEEE7FFF74EFFE4E7FFF74B
:1016A0003DFFE1E7FFF77CFFDEE7FFF78BFFDBE7BE
:1016B000FA208000D8E7C0460070044044100000C3
:1016C00070B503251F4B01789A79847892082A40D7
:1016D000012A0DD101290BD15A780A40A24207D024
:1016E0003F261A7832401A709A7992082A42FBD122
:1016F0000E250726C27852002A401A7242790579CF
:10170000D20135402A430125D2B21A765A782C40AC
:10171000AA4322435A7040788A010243D2B21A7017
:101720005A78520705D5022903D10A009879104248
:10173000FCD003209A79920802409142FAD100200D
:1017400070BDC04600400640037902681B01D318F3
:101750008022FC33D96852040A4310B5DA608368EA
:10176000002B01D0C168984710BD000010B5024B96
:101770001868FFF7E9FF10BDC0E4FF1F10B5024B6A
:101780005868FFF7E1FF10BDC0E4FF1F10B5024B22
:101790009868FFF7D9FF10BDC0E4FF1F10B5024BDA
:1017A000D868FFF7D1FF10BDC0E4FF1F037842786F
:1017B000012B0AD17820002A06D080230C4A1B0274
:1017C00011680B43136000207047094B09481968E2
:1017D00001401960002A05D180211868C901014320
:1017E0001960F0E71A6804490A401A60EBE7C0463E
:1017F0000C3000F0FF7FFFFFFFBFFFFF10B5094C6B
:101800002168002904D0084B084A1B6810689847D3
:101810006168002904D0044B044A5B68506898470B
:1018200010BDC046D0E4FF1FD8E4FF1FE0E4FF1F57
:1018300010B5FFF7E3FF10BD01238B40117800299D
:1018400003D142699A43426170475278002A04D119
:101850008360426913434361F6E74360F9E70000A0
:10186000C37810B5DB0602D483789B0605D5044BFC
:101870001B689847BFF34F8F10BD024BF8E7C04677
:10188000F0E4FF1FF4E4FF1F10B5034B0348196891
:10189000FFF7E6FF10BDC046E8E4FF1F006006400A
:1018A00010B5034B03485968FFF7DAFF10BDC04677
:1018B000E8E4FF1F007006400123124A10B51468C7
:1018C00023431360022208240B785B0013408A78BC
:1018D000D20022401343CA782834920013434A7836
:1018E00012012240134303600B794A792D3C2240B8
:1018F0009B0013438A797821A2400A401343436036
:1019000010BDC0463880044000230122037043709C
:101910008370C3700271427183717047054A00235E
:10192000904204D0044BC018431E9841431C180039
:101930007047C0460040054000B0FABFF0B50F68E0
:1019400089B0BB00049304230093002304000D001E
:10195000059203970293069304990598FEF72EFECD
:1019600086B2002E00D10136009905987143FEF72A
:1019700025FE0099C31B0193731C594305980793D7
:10198000FEF71CFE019B381A984202D26B469E8BD2
:101990000190019B039A934203D80393009B069600
:1019A0000293009B01330093049BDB190493009B7B
:1019B000212BD1D164213800FEF700FE03235843C8
:1019C000039B98426AD32000FFF7A8FF344B8000A6
:1019D000C158344B0A0CD218012389B28B401068CD
:1019E00003431360A368304A1340029AA360043A89
:1019F0002368032A02D8802292021343F821E020B0
:101A00002A4A49051A40029BC000013B1B060B40B5
:101A10001343069A5B0BD204D20C5B03134323607F
:101A20002368234A134023606B7AA2681B02034099
:101A300020482979024004200A431A432B7A9B004C
:101A400003401343002901D0102213438021A360D7
:101A5000EB7989015B0322680B4017490A40134365
:101A60002360AB795A1E934180225B42920513405A
:101A7000124A9B18626813436360AA7AA368002A1B
:101A800002D0802212031343EA7A002A02D0802275
:101A9000D20213430020A36009B0F0BD0848FBE761
:101AA000C42E000000700440FFFFF3FFFFFFFFE0C3
:101AB000FFFFFFDFE8F8FFFFFFDFFFFF00C01FC0F1
:101AC00021050000E1235B020360002303714371E1
:101AD0008371C371037243728372C372704710B50E
:101AE000C02402680B02240223401343FF22036038
:101AF000836891431943816010BD00004268CB0F99
:101B000052005208DB071343094A1A40094B0B40A5
:101B10001343094A1340C02212020A401343436090
:101B200040680840411E88410449404208407047CF
:101B3000FFFFE0BF00001F40FF3FFFFF1A0500004E
:101B400010B5034B034A1B6811680348984710BD42
:101B500000E5FF1FF8E4FF1F0040054010B5034BF0
:101B6000034A1B6851680348984710BD00E5FF1FF2
:101B7000F8E4FF1F0050054010B5154C61680029BE
:101B800010D0144BDA6F920302D4DA6F520309D5E6
:101B9000DA6F920502D4DB6F5B0503D50E4B0F485D
:101BA0001B6898472168002910D00C4B1A689203D3
:101BB00002D41A68520309D51A68920502D41B6828
:101BC0005B0503D5064B05481B68984710BDC0460A
:101BD000B8E9FF1F04F0024004E5FF1F00F00240D7
:101BE00008E5FF1F07B50222074901A800F02CFAFB
:101BF000EFF3108372B6054A1360BFF36F8F01A82D
:101C0000FFF7D4FD07BDC0467A2A00000CE5FF1F90
:101C10006022437893431A0040231343437000200B
:101C20007047000010B50C78002C06D14A782023AC
:101C3000002A1CD082789A438270072104224378BC
:101C40008B431343437083788B431C430A4B84704C
:101C500019690A431A614378BFF34F8F30BFBFF34E
:101C60006F8F4078054B0007C017184010BD827871
:101C700013438370E1E7C04600ED00E03C0F000035
:101C8000064AC378890010B58958DB0603D5044B92
:101C90001B68984710BD034BFAE7C04610E5FF1FCD
:101CA00018E5FF1F1CE5FF1F10B500210148FFF7D5
:101CB000E7FF10BD0060074010B501210148FFF7A4
:101CC000DFFF10BD00700740031E04D0034BC01897
:101CD000431E9841831C18007047C0460040F9BF5E
:101CE000F7B50E6804000F00100031010092FEF7F6
:101CF00065FC85B2002D00D10135009B31005B00F1
:101D000018000093FEF75AFC6901401A83B2C91803
:101D100000980193FEF752FC331A0093864201D2D9
:101D2000831B009364213000FEF748FC03235843D3
:101D3000009B98423ED32000FFF7C6FF1E4B800059
:101D4000C1581E4B0A0CD218012389B28B4010686F
:101D5000034313600C22E3789343E3701F2321783D
:101D60002A0A99430A43EDB222706570A07A019A5B
:101D700098431A40104317220421A072A37893437A
:101D80007A7992000A4039791343002902D010224F
:101D90000A431343A370E378BA79DBB2002A01D077
:101DA00008221343FA79002A01D0042213430020A9
:101DB000E370FEBD0248FCE7CC2E0000007004403A
:101DC000F5030000E1235B0203600023037143710C
:101DD0008371C37170470000074B194003780A0AEA
:101DE0000B43DBB20370C378090C1343DBB2C3703F
:101DF000837919438171704740F00F0010B540247A
:101E000042790B0AA2431343DBB2437117231942F1
:101E100001D00379C3790B0701D50379C37903791D
:101E20004079000218430140481E8141484201495F
:101E3000084010BDEE0300000B4B0C4A0C4910B5D6
:101E40000C48D150FFF73CFC0B48FFF793FB2A23CB
:101E50000A4C23702000FFF7DBFEE378042BFCD153
:101E6000074B084A1A6010BD44100000007004407F
:101E700000000710D82E0000E02E000000E0074010
:101E800034E0FF1F80841E008022264BD200196898
:101E900030B50A431A608022196812010A431A6099
:101EA0008022196852010A431A6080221968920040
:101EB0000A431A608022196892010A431A60C022FC
:101EC00019481A4BC168920019401143C160016959
:101ED000174D1940114301618020164940000C69DB
:101EE0001C4004430C614C681C4004434C602C684B
:101EF0001C4004432C60104DAC691C401443AC6181
:101F0000EC691C401443EC610C4D6C6C1C40144398
:101F10006C642C6C1C4022432A64CA6C1340184326
:101F2000C86430BD3880044000B00440FFF8FFFFB3
:101F300000A004400090044000C0044000D00440D1
:101F40000823064A9178194202D091780B43937086
:101F500088230021024A5B01D150704700D007401E
:101F6000007004400C2210B5114B997911421CD01D
:101F700099791140042911D11B7A03391B075B0F92
:101F800099400C48FEF71AFB0B4B0C4AD158090F2D
:101F90000131FEF713FB0A4B186010BD9B7913400B
:101FA000082BFAD180200002EEE70648ECE7C04695
:101FB0000040064000127A00441000000070044007
:101FC00034E0FF1F006CDC0210B50A22002100F093
:101FD00031F910BD084B10B50400002B02D00021D0
:101FE00000E000BF054B1868836A002B00D09847BB
:101FF000200000F02FFDC04600000000E82E000089
:1020000070B500260C4D0D4C641BA410A64209D1DE
:10201000002601F03BF80A4D0A4C641BA410A642AE
:1020200005D170BDB300EB5898470136EEE7B30019
:10203000EB5898470136F2E7AC300000AC300000B6
:10204000AC300000B0300000002310B59A4200D13F
:1020500010BDCC5CC4540133F8E710B5884202D9F6
:102060008B18984203D3002307E08B5C8354013A1A
:10207000FBD210BDCC5CC45401339A42FAD1F8E7CC
:1020800003001218934200D1704719700133F9E729
:102090000EB400B50B499CB01DAB029006900791A1
:1020A00004910948094904CB0591006802A90193EC
:1020B00000F0F4F90023029A13701CB008BC03B0BE
:1020C0001847C046FFFFFF7F38E0FF1F0802FFFFF1
:1020D000C9B20378002B04D08B4200D17047013085
:1020E000F7E74B42594149420840F7E703000A78B5
:1020F00001311A700133002AF9D1704710B5037805
:10210000002B0FD10B785A4253415B42184010BD4F
:102110000023CA5C002AFAD0C45C944201D1013386
:10212000F7E701300378002BF2D11800EFE7000049
:10213000F0B51F000E0087B00590019102920C9837
:10214000347800F08BF8082200194378751C13408E
:1021500036D12D2C36D1B51C74780126002F62D0D3
:10216000102F09D1302C07D120222B789343582BE4
:1021700054D110276C7802352D4B3900F318180014
:102180000393FEF7A1FA04910121002349420200C2
:102190008C4618002100303909291AD80C00A742B2
:1021A00023DD591C09D06346824206D302D104992B
:1021B000A14202DB0123784320182C780135E9E79E
:1021C0002E00BCE72B2C01D01E00C7E7B51C74788D
:1021D000FAE721004139192901D8373CDFE721000E
:1021E0006139192901D8573CD9E75A1C08D1059AF9
:1021F00023331360029B0398002B09D107B0F0BD75
:10220000002E00D04042029A002AF7D0002B01D0C5
:102210006B1E0193029B019A1A60EFE73024002F96
:10222000AAD10827A8E7302C9ED00A27A4E7C046E9
:10223000FFFFFF7F37B51300064A05001068046AE8
:10224000002C00D1044C0A0000942900FFF770FF15
:102250003EBDC04638E0FF1F9CE0FF1FEC30006829
:10226000704782B0002900D101A9101E06D0002BB2
:1022700006D013780B601078431E984102B0704767
:1022800002204042FAE7000070B50500002910D096
:102290000C1F2368002B00DAE418280000F09BFBD9
:1022A0001D4A1368002B05D163601460280000F0FC
:1022B00093FB70BDA34209D9216860188342F3D112
:1022C00018685B6841182160EEE713005A68002A1D
:1022D00001D0A242F9D919685818A0420BD1206840
:1022E0000918581819608242E0D1106852684118E4
:1022F00019605A60DAE7A04202D90C232B60D5E7B7
:1023000021686018824203D1106852684118216028
:1023100062605C60CAE7C04620E5FF1F032370B51A
:10232000CD1C9D43083506000C2D1ED20C25A9425C
:102330001DD8300000F04FFB254A14682100002909
:1023400019D1244C2368002B03D1300000F01AFB74
:1023500020602900300000F015FB431C2BD10C231A
:102360003000336000F038FB03E0002DDFDA0C238F
:102370003360002070BD0B685B1B19D40B2B03D995
:102380000B60CC18256003E04B688C420DD11360C4
:10239000300000F021FB200007220B30231D90436A
:1023A000C31AE7D05A42E250E4E763600C00EFE75B
:1023B0000C004968C3E70323C41C9C43A042E1D03E
:1023C000211A300000F0DEFA431CDBD1C7E7C0461B
:1023D00020E5FF1F24E5FF1FF0B58E6885B00700DC
:1023E0000C00039201939E423CD890238A89DB0023
:1023F0001A4234D00325096923685B1A0293636982
:1024000002985D43EB0F5D19019B6D1001331B18A2
:10241000AB4200D91D00530532D529003800FFF723
:102420007DFF061E09D10C233B6040230120A289B9
:1024300040421343A38105B0F0BD029A2169FFF722
:1024400003FEA389144A1A4080231343A381029BED
:102450002661F61826606561019EED1AA560019B54
:102460009E4200D9019E320003992068FFF7F5FDD6
:10247000A36800209B1BA36023689E192660DAE7EF
:102480002A00380000F0A9FA061EE0D121693800C0
:10249000FFF7FAFEC7E7C0467FFBFFFFF0B59FB02E
:1024A000029005938B890F0016001B0611D50B694E
:1024B000002B0ED14021FFF731FF38603861002832
:1024C00005D10C23029A013813601FB0F0BD4023E0
:1024D0007B61002306AC6361203363761033A376FF
:1024E00035002B78002B01D0252B46D1AB1B049354
:1024F0000CD0320039000298FFF76EFF431C00D168
:10250000AEE06269049B9446634463612B78002BC0
:1025100000D1A5E0012200235242626002A9543298
:1025200052186E1C2360E360A3601370A3653178BA
:102530000522544800F044FA751C00281FD1226877
:10254000D30604D5532302A95B1820211970130761
:1025500004D5532302A95B182B21197033782A2B39
:1025600016D0350000210A20E3682A786E1C303A24
:10257000092A4ED9002918D010E00135B1E7414BA6
:102580002268C01A01238340134323602E00CEE744
:10259000059B191D1B680591002B01DB099304E0C5
:1025A0005B42E3600223134323602B782E2B0AD176
:1025B0006B782A2B35D1059B02351A1D1B680592B5
:1025C000002B2BDB0793304E29780322300000F0DC
:1025D000F7F9002806D04023801B8340226801358C
:1025E000134323602978062228486E1C217600F0C8
:1025F000E7F900283CD0264B002B25D10722059B6C
:1026000007339343083305936369039A9B18636107
:1026100066E7434301219B183500A6E701235B428F
:10262000D0E700230A201A000135636029786E1C68
:102630003039092903D9002BC5D00792C3E742439B
:10264000012352183500F1E705AB00933A00114B16
:102650002100029800E000BF0390039B0133D3D117
:10266000BB890B985B0600D42FE7012040422CE782
:1026700005AB00933A00074B2100029800F07AF86E
:10268000EAE7C046562F00005C2F0000602F0000D4
:1026900000000000D9230000F7B5150001938A68F7
:1026A0000B6900900C00934200DA130022002B60AB
:1026B00043321278002A01D001332B6023689B0635
:1026C00002D52B6802332B60062723681F4027D0D2
:1026D000230043331B785A1E93412268920630D45C
:1026E0002200019943320098089EB047431C25D030
:1026F000062320682A68E16803400025042B03D1E3
:102700008D1AEB43DB171D40A3682269934201DD5C
:102710009B1AED180027BD4220D1002010E00137A0
:10272000E3682A689B1ABB42D2DD220001231932DA
:1027300001990098089EB047431CF0D10120404207
:10274000FEBD3020E1184331087021005A1C45318C
:102750000978A218433202331170C1E72200012325
:102760001A3201990098089EB047431CE6D0013701
:10277000D1E70000F0B589B004920A004332059316
:10278000039002920A7E0C000E9B6E2A00D186E016
:102790001FD8632A33D008D8002A00D18CE0582AE9
:1027A0004DD0250042352A7030E0642A01D0692AD4
:1027B000F7D1196825680A1D280629D508681A6006
:1027C000002803DA2D23029A404213706B4E0A2729
:1027D0004FE0732A74D008D86F2A1FD0702AE0D136
:1027E000202209680A43226003E0752A16D0782A5D
:1027F000D7D12200782145321170614E22E02500A8
:102800001A684235111D196013682B70012365E0A9
:1028100008681A606906D3D500B2D1E7196825683F
:10282000081D186008682E0605D5544E08276F2A23
:102830001BD00A2719E06D06F7D580B2F5E74531C0
:102840004E4E0A7018682268011D0068196015064E
:1028500021D5D30702D520231A4322601027002850
:1028600003D1202322689A432260230000224333AD
:102870001A706368A360002B58DB0422216891431F
:102880002160002854D1029D002B5AD025003378B6
:1028900042352B7055E05506DBD580B2D9E71A6872
:1028A0000D68101D4969186013682E0601D519605E
:1028B00002E06D06FBD519800023029D23614FE0E5
:1028C0001A68111D1960156800216268280000F05F
:1028D00077F8002801D0401B606063682361002303
:1028E000029A13703CE023692A0004990398059D1D
:1028F000A847431C3ED023689B0715D4079BE0687C
:10290000984239DA180037E022000123193204997D
:102910000398059EB047431C2CD00135E368079A05
:102920009B1AAB42F0DCE9E70025F7E70028ADD0C1
:10293000029D3900FDF7C8FE735C013D2B70002835
:10294000F7D1082F09D12368DB0706D56368226910
:10295000934202DC3023013D2B70029B5B1B236101
:10296000059B07AA00932100049B0398FFF794FEA0
:10297000431CB8D10120404209B0F0BD672F0000D0
:10298000782F0000002370B5064C05000800236076
:1029900000F052F8431C03D12368002B00D02B60B9
:1029A00070BDC046C0E9FF1F0B1E04D0FF2A04D92A
:1029B0008A2303608B3B180070470A700123FAE7F3
:1029C000C9B28218904201D10020704703788B422F
:1029D000FBD00130F6E770477047F8B507000D00EF
:1029E0001600002905D11100FFF798FC0400200013
:1029F000F8BD002A03D1FFF747FC3400F7E700F0E9
:102A000012F82C00B042F2D231003800FFF786FCF9
:102A1000041EECD029003200FFF716FB2900380015
:102A2000FFF732FCE3E70B1F1B68181F002B01DACE
:102A30000B58C01870470000044A1368002B00D1DF
:102A4000034B1818106018007047C04628E5FF1F98
:102A5000C8E9FF1FFEE7C046363530302E3533005B
:102A600000000030323533342E3535340000363531
:102A700030302E30323335390000010141542B25DE
:102A80007325730D0A0073656E6420746F206D6F7B
:102A900064756C653A200D0A004E52420045525250
:102AA0004F52004F4B0043434C4B004346554E00A2
:102AB000434D45453D004E534F52463D302C32006C
:102AC0004E534F53543D004E534F43523D224447C3
:102AD00052414D222C31372C34323030302C3100E1
:102AE00043475041444452004353510043474143FC
:102AF0005400434744434F4E543D312C2249502209
:102B00002C22222C22220043455245473F00434FAE
:102B10005053004E50494E3D302C22313233342236
:102B20000043474D49004154004E474C4C0050472C
:102B3000535600476F74204750530D0A0044617488
:102B40006120696E76616C69642C207761697469B3
:102B50006E6720666F722076616C696420646174B0
:102B6000610D0A00256C640D0A00253032780001E1
:102B7000016C7074696D657220696E7420666C6199
:102B8000673A20256C780D0A005265696E646565A8
:102B90007220496F54206861732073746172746588
:102BA000640D0A436F6D6D616E642022696F74223B
:102BB00020746F2073746172742065786563757416
:102BC000696E67207265696E6465657220747261F2
:102BD000636B206379636C650D0A436F6D6D616E85
:102BE000642022677073696E666F3D3122206F72B8
:102BF0002022677073696E666F3D302220746F20EB
:102C0000737769746368204750532064617461204E
:102C10006F6E2F6F66660D0A004F7220656E7465C9
:102C200072206E6F726D616C20415420636F6D6D08
:102C3000616E6473206865726520666F722053410F
:102C400052412D4E320D0A4D6F64756C65732070C4
:102C50006F7765726564206F6E20616E6420626FAD
:102C60006F74696E67206E6F77210D0A0031313104
:102C700031310066616C736500576F6B656E206261
:102C80007920414343454C2C207265696E6465652B
:102C90007220697320212121414C4956452121216F
:102CA0000D0A0077616B6520776173203020676FB4
:102CB000696E6720746F20736C6565700D0A00740F
:102CC00072756500696F74005374617274696E6720
:102CD000205265696E6465657220496F542063797E
:102CE000636C650D0A00677073696E666F3D310035
:102CF000677073696E666F3D300072666F6666005E
:102D000072666F6E00B5620073656E6420746F202A
:102D10006770730D0A00466F756E64205542582027
:102D2000726573706F6E73650D0A00526F6765721E
:102D300020696E636C756465206D61696E2E630D2C
:102D40000A004346554E3D300030323533302E3583
:102D500036393531003D312C31005044502031207E
:102D60006163746976617465640D0A005265676910
:102D70007374657265640D0A004346554E3D31001B
:102D8000536F636B65742072656164790D0A00503E
:102D9000445020636F6E74657874203120646566DA
:102DA000696E65640D0A002B43455245473A203051
:102DB0002C310043455245475F4F4B0D0A002B55C0
:102DC000464F544153007265626F6F7465640D0A1B
:102DD0000074696D656F7574206572726F720D0A8B
:102DE00000302C223136372E39392E3230372E3101
:102DF0003333222C313838342C25642C222573228D
:102E00000073656E74002B4E50494E3A20224F4B92
:102E1000220061636B0D0A0069702020666F756E79
:102E2000640D0A007B0D0A0D0A2020202022736504
:102E30007269616C6E756D626572223A2225732229
:102E40002C0D0A0020202020226C6174223A2225B9
:102E500073222C0D0A0020202020226C6F6E672226
:102E60003A222573222C0D0A002020202022737480
:102E700061747573223A222573222C0D0A002020DA
:102E800020202262617474657279223A22256422BC
:102E90000D0A0D0A7D007265696E646565723132D6
:102EA0003334007265696E64656572007265696EBF
:102EB00064656572747261636B65720080841E0064
:102EC00000127A00140038101500381000000000BD
:102ED000000000000C00341001020000000000009F
:102EE00000000000000001003CE0FF1F00000000A7
:102EF00000000000000000000000000000000000D2
:102F000000000000000000000000000000000000C1
:102F100000000000000000000000000000000000B1
:102F200000000000000000000000000000000000A1
:102F30000000000000000000000000000000000091
:102F40000000000000000000000000004300504F9F
:102F5000534958002E00232D302B2000686C4C0064
:102F60006566674546470030313233343536373889
:102F700039414243444546003031323334353637E7
:102F800038396162636465660000202020202020BB
:102F90002020202828282828202020202020202009
:102FA0002020202020202020202088101010101009
:102FB0001010101010101010101004040404040459
:102FC000040404041010101010101041414141413C
:102FD00041010101010101010101010101010101A1
:102FE0000101010101101010101010424242424232
:102FF0004202020202020202020202020202020271
:103000000202020202101010102000000000000056
:1030100000000000000000000000000000000000B0
:1030200000000000000000000000000000000000A0
:103030000000000000000000000000000000000090
:103040000000000000000000000000000000000080
:103050000000000000000000000000000000000070
:103060000000000000000000000000000000000060
:103070000000000000000000000000000000000050
:10308000000000000000000000000000F8B5C0468D
:10309000F8BC08BC9E467047F8B5C046F8BC08BCF2
:0430A0009E46704791
:0830A400B4D3FF7F010000001E
:0430AC0039040000E3
:0430B0001104000007
:1030B400072B0000EC2A0000F22A0000E02A00009E
:1030C400132B0000C72A0000C02A0000D00700000C
:1030D40003000000AC2E0000962E0000A32E00007A
:1030E400A32E000000127A003CE0FF1F0000000045
:1030F4000C2F00002C2F0000EC2E0000000000001C
:1031040000000000000000000000000000000000BB
:1031140000000000000000000000000000000000AB
:10312400000000000000000000000000000000009B
:10313400000000000000000000000000000000008B
:103144000000000000000000000000004300000038
:10315400000000000000000000000000000000006B
:103164000000000000000000000000004300000018
:10317400000000000000000000000000000000004B
:1031840000000000000000000000000043000000F8
:10319400000000000000000000000000000000002B
:1031A40000000000000000000000000043000000D8
:1031B400000000000000000000000000000000000B
:1031C40000000000000000000000000043000000B8
:1031D40000000000000000000000000000000000EB
:1031E4000000000000000000000000004300000098
:1031F40000000000000000000000000000000000CB
:103204000000000000000000000000004300000077
:1032140000000000000000000000000000000000AA
:10322400000000000000000000000000A9290000C8
:103234006322000000000000892F0000542F0000CA
:10324400982A0000982A0000982A0000982A000072
:10325400982A0000982A0000982A0000982A000062
:10326400982A0000FFFFFFFFFFFFFFFFFFFFFFFFA4
:10327400FFFF0000010041534349490000000000E2
:10328400000000000000000000000000000000003A
:1032940000000000000041534349490000000000C1
:1032A400000000000000000000000000000000001A
:0832B400000000000000000012
:04000003000004D124
:00000001FF
