:1000000000600020E904000035050000390500000B
:1000100000000000000000000000000000000000E0
:100020000000000000000000000000003D0500008E
:10003000000000000000000041050000A5170000BE
:10004000490500004D050000510500005505000060
:10005000310500003105000031050000D11000001D
:10006000590500005D050000610500006505000000
:1000700041110000D91100008D1100003105000070
:100080003105000031050000310500003105000098
:100090003105000031050000310500007505000044
:1000A0003105000031050000310500003105000078
:1000B0001D11000031050000310500003105000070
:10040000FFFFFFFFFFFFFFFFFFFFFFFFFE1FFFFFDD
:1004100010B5064C2378002B07D1054B002B02D0DA
:10042000044800E000BF0123237010BD14E2FF1F49
:1004300000000000AC350000084B10B5002B03D0C5
:100440000749084800E000BF07480368002B00D1B7
:1004500010BD064B002BFBD09847F9E700000000C9
:1004600018E2FF1FAC35000010E2FF1F0000000083
:10047000164B002B00D1144B9D46402292029A1A33
:10048000924600218B460F461348144A121A02F076
:100490002AF80F4B002B00D098470E4B002B00D0B2
:1004A00098470020002104000D000D48002802D0CC
:1004B0000C4800E000BF01F0D7FF2000290000F049
:1004C00007FC01F0BBFFC0460000080000600020F0
:1004D000000000000000000014E2FF1FD0E9FF1F31
:1004E000000000000000000072B60A480A490160DE
:1004F0000A6882F30888094880470949094A0A4B73
:100500009B1A03DD043BC858D050FBDC62B6074899
:100510008047000008ED00E0000000000D2400000E
:10052000D435000000E0FF1F14E2FF1F710400003B
:10053000114800471148004711480047114800473B
:10054000114800471148004711480047114800472B
:10055000114800471148004711480047114800471B
:10056000114800471148004711480047114800470B
:1005700011480047114800473105000035050000CB
:10058000390500003D05000041050000A5170000E9
:10059000451A0000551A0000651A0000751A00007F
:1005A0005D1D0000751D00007D2100008D210000F3
:1005B0001520000031200000091B00004D20000024
:1005C00002B4714649084900095C49008E4402BCE6
:1005D0007047C046002243088B4274D303098B4204
:1005E0005FD3030A8B4244D3030B8B4228D3030C03
:1005F0008B420DD3FF22090212BA030C8B4202D3A5
:100600001212090265D0030B8B4219D300E0090ACC
:10061000C30B8B4201D3CB03C01A5241830B8B42D5
:1006200001D38B03C01A5241430B8B4201D34B03BE
:10063000C01A5241030B8B4201D30B03C01A524123
:10064000C30A8B4201D3CB02C01A5241830A8B42A8
:1006500001D38B02C01A5241430A8B4201D34B0291
:10066000C01A5241030A8B4201D30B02C01A5241F5
:10067000CDD2C3098B4201D3CB01C01A52418309A9
:100680008B4201D38B01C01A524143098B4201D3E3
:100690004B01C01A524103098B4201D30B01C01A0E
:1006A0005241C3088B4201D3CB00C01A5241830888
:1006B0008B4201D38B00C01A524143088B4201D3B5
:1006C0004B00C01A5241411A00D201465241104615
:1006D0007047FFE701B5002000F006F802BDC046F4
:1006E0000029F7D076E770477047C0460023C25C08
:1006F0000133002AFBD1581E704710B51D212A2056
:1007000000F0C6F903215B2000F0C2F910BD10B55E
:100710002D2000F0E9F97C2149420143C9B22D2086
:1007200000F0B6F92E2000F0DFF904210143C9B230
:100730002E2000F0ADF92C2000F0D6F9082101435D
:10074000C9B22C2000F0A4F9152000F0CDF97821D1
:100750000143C9B2152000F09BF9172000F0C4F93D
:10076000712149420143C9B2172000F091F910BD2F
:1007700010B50449044801F0F7FE431E9841C0B289
:1007800010BDC046432F0000BCE7FF1FF0B51500A9
:10079000FA2206000F000021264C274BFFB09200E2
:1007A0002000198001F09FFE24493B00320001A87F
:1007B00001F0A2FE01A800F04DFA214800F074FA01
:1007C00001A800F071FA1F4901A801F0CDFE002830
:1007D00009D01D4F00F0E0FF3F1800F0DDFF874219
:1007E00004D8022510E0FA27BF00F3E7174E33784C
:1007F000002BF2D02900200001F0B6FE00280ED018
:10080000200000F051FA0025FA2200210A4B920044
:100810002000198001F067FE28007FB0F0BD0C4970
:10082000200001F0A1FE002801D13070D5E701259C
:10083000EAE7C046BCE7FF1F34E2FF1F1C2F0000A1
:10084000262F0000392F00001027000036E2FF1F7E
:100850003D2F00007047002330B50022C418A25677
:100860000D2A0DD10022110084420CD162700022A9
:100870002170A270591C91420CDA181DC0B230BD13
:100880000133DBB2E9E7057801304919C9B25218E2
:10089000D2B2E9E70132D2B2EDE7000070B5C37819
:1008A0000D0003718378C3702E2383700A794A7117
:1008B000CA78CB7000230A710022C1188A56302AE8
:1008C00037D0214C200001F047FE20002E2101F0FE
:1008D00035FE441C0023E356302B2DD0200001F0C0
:1008E000A7FD0621FFF776FE184E0200310020001A
:1008F00001F002FE00230022E9188A56302A1DD09A
:10090000134C200001F028FE20002E2101F016FEDD
:10091000441C0023E356302B13D0200001F088FD47
:100920000621FFF757FE31000200200001F0E4FD30
:1009300070BD0133DBB2BFE70134CBE70133DBB27B
:10094000D9E70134E5E7C04690E7FF1F0430000017
:10095000A8E7FF1FF0B593B009AC01AB636005AB2E
:10096000E3606B46274D28492800A36101F0FCFD98
:1009700026490600280001F0F7FD0500002E34D0BE
:100980002349300001F0F0FD002801D000238370DE
:10099000002332001F0000215156002911D1A66901
:1009A0004131300001F0CAFD002815D0194800F08F
:1009B0007BF9E1686068FFF771FF0123180013B04D
:1009C000F0BD501C2C2905D117709A00A6500600C6
:1009D0000133DBB20200DEE75621300001F0AEFD4C
:1009E000002802D00C4800F05FF92B1EE6D0084921
:1009F000280001F0B9FD002203009042DED0827091
:100A00001300DBE738E5FF1FC92F0000CE2F0000E1
:100A1000362F0000D32F0000DD2F00008023164A60
:100A200030B5116885B00B4313608023134A9B01D6
:100A3000116801AC0B43136000F05EFF050020005D
:100A400001F0A2F80123237000230D4A2100626007
:100A50000C482A006370237201F0D8F8C0210A4ABA
:100A60000A481368C90003400B43136053680340EE
:100A70001943516005B030BD3480044038800440D3
:100A8000400D03000070064000D00440FFF8FFFF57
:100A900070B5002205000C0012481C2101F012F96B
:100AA000104A02211300D0780842FCD0D0780143CC
:100AB000D170102190780143917015710222D9787C
:100AC0001142FCD0D9780A43DA7002221C71D9781D
:100AD0001142FCD0D97803480A43DA7001F0D8F803
:100AE00070BDC0460070064070B5002205001C2194
:100AF0001A4801F0E7F8194B02221C00D97811427C
:100B0000FCD0D9780A43DA70102299780A439A7097
:100B10001D710223E2781A42FCD0E2781C211343B3
:100B2000E37001220D4801F0EBF80223E2781A424B
:100B3000FCD01822E370A3789343A3700823A27813
:100B40001343A37023790223E2781A42FCD0E370A6
:100B5000024801F09DF82079C0B270BD00700640D7
:100B600070B5084C084D200001F03AF9012300222D
:100B70002800210023716371A27101F007F9034B72
:100B8000AB6070BDB2E9FF1F00000440571B0000BE
:100B9000F0B5022087B000F0BFFE0190002000F009
:100BA000BBFE254D03AC0090280001F075FB200032
:100BB00001F0F4F996260123C020AB71EB71A3720A
:100BC000E3721E4A1E4BB6012E600396D158800573
:100BD0000143C020D150D15800050143194FD150D5
:100BE0001948009A210001F015F9019A29003800EE
:100BF00001F0E0FA03968026144D009A2100B60316
:100C0000280001F007F931000F4801F0D4F98023E2
:100C100080210F4C5B0123603800890101F046FB05
:100C20008023DB0123603100280001F0C4F9802318
:100C30009B01236007B0F0BDA0E7FF1F00700440D8
:100C40000410000000C00640004005400050054070
:100C500000E100E00023802110B5074AC3560904D3
:100C60000130002B00D110BD54680C42FCD0D36081
:100C70000023C3560130F4E700400540002310B5BF
:100C8000084CC3560130002900D110BD227952B260
:100C9000002AFBDADBB2E37100230139C356C9B283
:100CA0000130F0E700C0064030B580250400002385
:100CB00006492D04E256D8B2002A00D130BD48685A
:100CC0002842FCD0CA600133F4E7C046005005401A
:100CD0000823F0B5CF4AD04C9178A5440B439370CC
:100CE0008022CE4B1A6001F035FB01F00BFB00F0C7
:100CF00003FEFA218900FFF76DFCC94B01389842C9
:100D00000DD8C021C74A09065060C748036A1B02B4
:100D10001B0A0B4303620023936007331360FFF742
:100D20007DFEFFF735FFFFF7F2FCFFF7E6FCFFF76C
:100D300017FF022201260421BC4BBD4D1A70BD4B8A
:100D40002E701A79BC4F32431A715A780A435A707E
:100D50002522187A024380201A724023B74A146869
:100D60008443234313601368B54C834333431360B8
:100D700020003A0000F0CCFE3A001321200000F0E1
:100D8000C7FE102331003A00A360200000F0C0FE2F
:100D90000223AC48A360FFF787FFAB48FFF784FF4F
:100DA0008023AA4E1B03636008223100684601F0CD
:100DB0007FFB0322002102A801F095FB31000A22EB
:100DC0000B3103A801F074FB162300226B44A049E9
:100DD00009A81A7001F0C0FB2A236B446946180069
:100DE00001F0BAFB36236B4403A9180001F0B4FBF1
:100DF00042236B441800974901F0AEFB29232D22B2
:100E00006B44DA77944B1B78022B08D19348FFF799
:100E10004BFF01F051F92900844801F06DF98E4B28
:100E20001B78012B2BD141336B4418008C4901F006
:100E300093FB8C4B1D78EDB2002DFBD18A48FFF758
:100E400033FF8A48FFF730FF31000B22163106A826
:100E500001F02EFB23230C226B44854913A81D703F
:100E600001F026FB2A236B4406A9180001F074FB4D
:100E700013A936236B44180001F06EFB0DE07D4B87
:100E80001B78002B3DD07C4D7C49280001F06CFB89
:100E900000281FD07A48FFF707FF13A909A800F020
:100EA000BBF905007748FFF7FFFE774800F082FCAA
:100EB0000223FA206360000100F07CFC290013A8E3
:100EC00000F020FC7148FFF7EFFE002085239B0017
:100ED0009D44F0BD6E49280001F046FB071E4CD032
:100EE00001226C4B1A70644D2800FFF7FFFB0021B4
:100EF0000200280001F0F7FA00235E4A1370664AE8
:100F00001380664B1B78002B21D000F045FCFA23A0
:100F1000634DDB00C018286000F03EFC2B6898424F
:100F200003D2FFF725FC0028F6D05E4D2800FFF71E
:100F3000BBFE4E48FFF7B8FEFA22002152002800FF
:100F400001F0D1FA0023584A1380544A1370454BDC
:100F50001B78002B00D162E74E4B1B78002B00D191
:100F60005DE7FFF7F7FC002837D02A236B444F4991
:100F7000180001F0F1FA4E497BE74E49280001F0D4
:100F8000F3FA002802D0434B1F70ACE74A4928000F
:100F900001F0EAFA002802D00223A360A3E7474940
:100FA000280001F0E1FA002802D0022363609AE7EA
:100FB0004349280001F0D8FA00280AD04148FFF739
:100FC00073FEA81CFFF747FC01002800FFF756FE40
:100FD00089E72800FFF73EFE85E7234F38493800B0
:100FE00001F0C2FA051E08D03748FFF75DFE2979E7
:100FF00028000831C9B2FFF72DFC9622002192008B
:10100000380001F070FA0023304A1380154A13703B
:1010100005E7C04600D00740ECFDFFFF00E100E01F
:10102000FFFFFF0010E000E000ED00E000E00740FF
:10103000B0E9FF1F00C007400A3000000000044074
:1010400000F00F400C3000009C300000F82E000033
:10105000F0300000F630000030E4FF1FFC300000EC
:101060002631000032E2FF1F38E5FF1F362F000057
:10107000C83100002EE4FF1F3AE2FF1F2B310000B1
:101080002F3100009231000010270000B131000024
:101090004D3100002FE4FF1F38E2FF1F36E2FF1F33
:1010A00028E0FF1FBCE7FF1F34E2FF1F90E7FF1F90
:1010B000A8E7FF1F573100006131000067310000D1
:1010C0006C3100006F3100007D31000030E2FF1F05
:1010D00001220E4BD97911420DD00D490A700D49EC
:1010E000086802430A6080220B49086802430A60CC
:1010F00020225A717047202259791142F8D00220DB
:101100000349087059790A435A71F1E700C0074052
:1011100030E4FF1F38800440000004408022064B6A
:1011200019681143196019681142FCD10823034A58
:1011300091780B43937070470000044000D0074043
:1011400010B50D4C2021200000F044FF80220B4BF5
:10115000D203DA60E368D9B200290CD0084A094CFE
:1011600010882354138801339BB213800D2902D1B8
:101170000122054B1A7010BD0040054040F00F40A1
:1011800034E2FF1FBCE7FF1F36E2FF1F10B50E4C15
:101190002021200001F09CF80C49E3790878DBB2AB
:1011A0000B4A002806D110880A4C235413880133B7
:1011B0009BB21380F4231288FF339A4202D9F33B87
:1011C000FF3B0B7010BDC04600C0064032E2FF1F5F
:1011D00030E2FF1F38E5FF1F10220A4B0A48D9688A
:1011E0000A4BDA600A4A1388C1541388C9B2013322
:1011F0009BB213800A2904D1064B093919700023C8
:1012000013807047005005403AE2FF1F00F00F4086
:1012100038E2FF1F2EE4FF1FF0B5704BE3B01B68F0
:101220000090180002910193FFF760FA6B46059059
:101230001D7D6B4B0AAC1B6818000393FFF756FA31
:101240006B4606901E7E674B1B6818000493FFF7E1
:101250004DFA6B4607901F7F10232370AB19103394
:10126000FB18637000234D22A37004232271E370E6
:10127000D2182372BE3363720023A3720A23E3726F
:1012800000232373FF23162062710332A271E271DF
:10129000059A01991A4008ABC018657301F008F966
:1012A0000522002108A801F01EF928000E3008AB25
:1012B000C0B21900022220185F7001F0F9F8FF2374
:1012C000079A1035EDB21A40601904997D1901F0A2
:1012D000EFF8EDB208AB1900601902225E7001F060
:1012E000E7F8FF23069A0235EDB21A400399601918
:1012F00001F0DEF83C4B75191868FFF7F7F96B46FB
:101300003A4E03901B7B009A39493000019301F05B
:10131000F3F8009B07009A1D3018364901F0ECF8ED
:10132000009A3F18F0191232334901F0E5F8009A9B
:101330003F18F0191E32314901F0DEF8009B3F18CA
:101340000533DA7FF0192E4901F0D6F83F18300046
:10135000FFF7AAFC302308AA137013006A4612791B
:1013600008A91A71FBB20093019BFAB20233D31899
:101370008022DBB252421A43DB098B70EDB262ABC2
:10138000581961384A70FF38052201F091F8FF239F
:10139000039A05351A40144BEDB21968601901F033
:1013A00087F831000026019B3A005D19EDB2601903
:1013B00001F07EF8009B5D19EDB2F3B29D4202D8B8
:1013C000280063B0F0BDA25D0E49029801F094F8C8
:1013D000029B01361B180293EFE7C0462CE0FF1F6B
:1013E00030E0FF1F38E0FF1F34E0FF1F31E4FF1F34
:1013F000B6320000D6320000E8320000FB320000B6
:1014000010330000283300000B4B10B518680B4A4E
:101410000B49FFF7BBF90B4B1870002803D10A48A2
:10142000FFF742FC10BD012801D10848F8E7022867
:10143000F8D10748F4E7C04618E0FF1F503200001B
:10144000382F0000B9E9FF1F583200006B3200004E
:1014500063320000094B10B51868094A0949FFF7C3
:1014600095F9094B1870002803D10848FFF71CFCB8
:1014700010BD0128FCD10648F8E7C04614E0FF1F64
:1014800098320000382F0000B9E9FF1FA432000095
:101490006B320000094B10B51868094A0949FFF77B
:1014A00075F9094B1870002803D10848FFF7FCFBB9
:1014B00010BD0128FCD10648F8E7C04610E0FF1F28
:1014C000432F00005E310000B9E9FF1FFE3100002C
:1014D0006B320000094B10B51868094A0949FFF73B
:1014E00055F9094B1870002803D10848FFF7DCFBB9
:1014F00010BD0128FCD10648F8E7C04610E0FF1FE8
:10150000432F0000EB310000B9E9FF1FEE3100006E
:101510006B320000022310B50B4C23702378002B94
:1015200000D110BD094B0A4A0A491868FFF72EF985
:101530002070002803D10848FFF7B6FBEEE701282A
:10154000ECD10648F8E7C046B9E9FF1F00E0FF1FED
:1015500032320000382F00003E3200006B320000B3
:101560000B4B10B518680B4A0B49FFF70FF90B4CE2
:101570002070FA20800000F01DF923780848002B25
:1015800002D0012B02D10748FFF78EFB10BDC046E9
:1015900008E0FF1F432F0000382F0000B9E9FF1FAC
:1015A0001A3200006B3200000B4B10B518680B4A62
:1015B0000B49FFF7EBF80B4C2070FA20800000F08D
:1015C000F9F823780848002B02D0012B02D10748F4
:1015D000FFF76AFB10BDC04604E0FF1F432F000069
:1015E000D4310000B9E9FF1FD93100006B3200008F
:1015F000094B10B51868094A0949FFF7C7F8094BA4
:101600001870002803D10848FFF74EFB10BD0128D1
:10161000FCD10648F8E7C0460CE0FF1F432F00004E
:10162000382F0000B9E9FF1FAA3200006B3200001A
:10163000094B10B51868094A0949FFF7A7F8094B83
:101640001870002803D10848FFF72EFB10BD0128B1
:10165000FCD10648F8E7C0461CE0FF1F432F0000FE
:10166000382F0000B9E9FF1F0B3200006B32000079
:1016700010B5FEB003000A0001A80C4900F03CFFC1
:101680000B4B0C4A186801A9FFF780F80A4B041E9F
:1016900018700A4802D0012C05D10948FFF704FB55
:1016A00020007EB010BD0024FAE7C046733200006F
:1016B00024E0FF1F432F0000B9E9FF1F9332000011
:1016C0006B320000094B10B51868094A0949FFF749
:1016D0005DF8094B1870002803D10848FFF7E4FAB9
:1016E00010BD0128FCD10648F8E7C04620E0FF1FE6
:1016F000432F0000382F0000B9E9FF1F49320000D6
:101700006B320000F8B50F000600FFF77DFEFFF713
:10171000A1FEFA20800000F04DF8FFF7BBFEFFF7B6
:10172000F9FEFA20800000F045F8FFF719FFFA20D3
:10173000FA25800000F03EF80024AD00FFF7CAFE55
:10174000134800F037F8FFF72FFF124800F032F887
:10175000012C04D1FFF7DEFE280000F02BF8FFF784
:1017600047FF280000F026F8FFF762FF280000F08E
:1017700021F839003000FFF77BFF04000128DDD09D
:10178000FA20000100F016F8FFF79CFFF8BDC046F4
:1017900098080000B80B0000014B18687047C0465D
:1017A000C8E4FF1F024A1368013313607047C04644
:1017B000C8E4FF1F034B1A6880181A689042FCD8CF
:1017C0007047C046C8E4FF1F0222084B187810403B
:1017D00004D19A791207920F012A05D101225B7870
:1017E0001340034A9B0098587047C046004006408B
:1017F000543300000020044B1B785BB2834201DAB3
:10180000024B18687047C04600500640C0E9FF1FF1
:101810000C4B10B51C682403A40F022C0CD0032C15
:101820000DD0002C01D0002010BDFFF7E3FF802376
:101830001B029842F7D1F7E7034B1868F4E7FA2048
:101840008000F1E700700440BCE9FF1F4168074ACF
:10185000074BD1500378C0209B040003116803405C
:10186000044801400B4313607047C04600700440B9
:1018700044100000FFFFF3FF70B5074B1C7A1D7E7C
:10188000FFF7A2FF0723E4B2EDB264081D401C403D
:101890006419E04070BDC04600400640054A137E12
:1018A0005BB2002B04DB937900201B079B0F00D158
:1018B0000148704700400640006CDC0210B50B4C3C
:1018C000A3791B079B0F012B07D0002B0CD0002006
:1018D000022B08D1064B186805E0FFF775FF237A45
:1018E0001B075B0FD84010BD0248FCE700400640D4
:1018F000C0E9FF1F006CDC0210B5FFF7DFFF044BEF
:10190000044AD158090F0131FEF764FE10BDC046EC
:10191000441000000070044070B513280BD8FEF787
:101920004FFE0C0C160A160A0A23260A0A0A290A6E
:101930000A0A0A2C2C2F002070BDFFF7BFFF124BA4
:10194000124AD158090F0131FEF744FEF4E70F4D5A
:101950000D4CFFF7B3FF2959090F0131FEF73AFE8D
:1019600029594903490FEEE7FFF752FFE4E7FFF774
:1019700041FFE1E7FFF780FFDEE7FFF78FFFDBE7DF
:10198000FA208000D8E7C0464410000000700440F0
:10199000032130B5214B9A7992080A40012A24D0BC
:1019A0000E210724C27852000A401A724279017946
:1019B000D20121400A43D2B21A7659788278063C85
:1019C000A14322400A435A70017840788A010243B9
:1019D000D2B21A705A78520718D403209A79920812
:1019E00002409142FAD1002030BD0478012CD7D1B9
:1019F0005A78857822409542D2D01A783E342240D7
:101A00001A709A7992080A42FBD1C9E70229E4D1F7
:101A10000A0098791042FCD0DFE7C046004006403B
:101A2000037902681B01D318802210B5FC33D968F2
:101A300052040A43DA608368002B01D0C1689847DA
:101A400010BD000010B5024B1868FFF7E9FF10BD8C
:101A5000CCE4FF1F10B5024B5868FFF7E1FF10BD43
:101A6000CCE4FF1F10B5024B9868FFF7D9FF10BDFB
:101A7000CCE4FF1F10B5024BD868FFF7D1FF10BDB3
:101A8000CCE4FF1F0378012B0BD143787820002B87
:101A900014D080230C4A1B0211680B4313600020F2
:101AA0000CE0094B09491A680A401A60407800287E
:101AB00005D180221968D2010A431A6070471A685A
:101AC00003490A401A60EAE70C3000F0FF7FFFFF8D
:101AD000FFBFFFFF10B5094C2168002904D0084B57
:101AE000084A1B68106898476168002904D0044BB5
:101AF000044A5B685068984710BDC046DCE4FF1F8D
:101B0000E4E4FF1FECE4FF1F10B5FFF7E3FF10BD97
:101B100010B514780123002C04D18B4042699A43FC
:101B2000426110BD52788B40002A06D183600123A8
:101B30008B40426913434361F3E74360F7E70000DA
:101B4000C37810B5DB0602D483789B0605D5044B19
:101B50001B689847BFF34F8F10BD024BF8E7C04694
:101B6000FCE4FF1F00E5FF1F054A0023904204D05C
:101B7000044BC018431E9841431C18007047C046D0
:101B8000006006400090F9BF034B436000234370A0
:101B90000372013303707047A0860100F0B5002482
:101BA00001260F0085B002900392019400947642C2
:101BB0000025154A6B00995A0398A140FEF70AFDCB
:101BC000B84212D2381AB0421AD30135402DF0D1A2
:101BD000022C13D13F22009B01999B0111400B4322
:101BE000029ADBB2537005B0F0BDC01BB042ECD21C
:101BF000009401950028EDD00600E6E70134D7E710
:101C000000940195F8E7C04664330000F8B504007D
:101C10000D001700FFF7A8FF1B4B8000C1581B4B9E
:101C20000A0CD218012389B28B4010687F26034327
:101C300013600022FF2322706270A270E370AF3B3A
:101C40006271A371E271A27820003240A270A27981
:101C50001A43A271A2791343A3711223E3703A00CD
:101C60006968FFF79BFF0F216A78A379D20133409F
:101C700013432A7ADBB28B430A401343A3712B78B8
:101C8000DB01DBB2A370F8BD5C33000000700440E0
:101C90003821020083788B4383701839D07808404C
:101CA000FCD17047C3788279DBB2520602D580221C
:101CB000D20113438279D20602D580225201134306
:101CC0001800704770B505000E001400FFF7EAFF1A
:101CD000830610D43023AA781343AB7001232A7BE8
:101CE0001A42FCD0013C63425C4100207600344340
:101CF000E4B22C7170BD0148FCE7C0464C04000002
:101D000070B504000E001500FFF7CCFF2023184229
:101D100002D0A2781A421CD03F226378DBB21A406C
:101D200062701422A1780A43A2706370C046C04654
:101D3000C046C046C046C0460123227B1A42FCD0A2
:101D4000013D6B425D41002076003543EDB22571C7
:101D500070BD0148FCE7C0464C04000010B5034BC1
:101D600003481968FFF7ECFE10BDC046F4E4FF1FFE
:101D70000060064010B5034B03485968FFF7E0FECA
:101D800010BDC046F4E4FF1F007006400123134A53
:101D900030B514680825234313600222CC780B78F1
:101DA00094405B0013409218144023438C78E40065
:101DB0002C4023434C78283594402C4023437824EE
:101DC00003608B79DB0023400C79A400224013438D
:101DD0004A7903210A401343436030BD38800440F0
:101DE00000230122037043708370C370027142713B
:101DF00083717047054A0023904204D0044BC018F9
:101E0000431E9841431C18007047C04600400540DF
:101E100000B0FABFF0B50F6889B0BB00049304238B
:101E20000093002304000D0005920397029306938C
:101E300004990598FEF7CEFB86B2002E00D101363C
:101E4000009905987143FEF7C5FB0099C31B0193E8
:101E5000731C594305980793FEF7BCFB019B381A86
:101E6000834202D96B469E8B0190019B039A934259
:101E700003D80393009B06960293009B01330093C3
:101E8000049BDB190493009B212BD1D164213800E2
:101E9000FEF7A0FB03235843039B834267D820002F
:101EA000FFF7A8FF334B8000C158334B0A0CD21800
:101EB000012389B28B40106803431360A3682F4A43
:101EC0001340029AA360043A2368032A02D88022AE
:101ED00092021343F821E020294A49051A40029B47
:101EE000C000013B1B060B401343069A5B0BD20458
:101EF000D20C5B03134323602368224A1340236000
:101F00006B7AA2681B0203401F4829790240042013
:101F10000A431A432B7A9B0003401343002901D044
:101F2000102213438021A360EB7989015B032268AF
:101F30000B4016490A4013432360AB79002B14D1A0
:101F4000134B626813436360AA7AA368002A02D025
:101F5000802212031343EA7A002A02D08022D2029E
:101F600013430020A36009B0F0BD0A4BE9E70A481B
:101F7000F9E7C046E433000000700440FFFFF3FFC0
:101F8000FFFFFFE0FFFFFFDFE8F8FFFFFFDFFFFFDE
:101F900000C01FC000C01FE021050000E1235B025C
:101FA00003600023037143718371C3710372437231
:101FB0008372C372704710B5C02402680B022402FA
:101FC00023401343FF2203608368914319438160D8
:101FD00010BD00004268CB0F52005208DB071343CC
:101FE000084A1A40084B0B401343084A1340C022CA
:101FF00012020A40134343604068084000D004487E
:102000007047C046FFFFE0BF00001F40FF3FFFFFDB
:102010001A05000010B5034B034A1B6811680348FA
:10202000984710BD0CE5FF1F04E5FF1F0040054069
:1020300010B5034B034A1B6851680348984710BD0D
:102040000CE5FF1F04E5FF1F0050054010B5154CBF
:102050006168002910D0144BDA6F920302D4DA6F52
:10206000520309D5DA6F920502D4DB6F5B0503D505
:102070000E4B0F481B6898472168002910D00C4B65
:102080001A68920302D41A68520309D51A68920595
:1020900002D41B685B0503D5064B05481B689847AF
:1020A00010BDC046C4E9FF1F04F0024010E5FF1F49
:1020B00000F0024014E5FF1F07B50222074901A8FE
:1020C00000F0F6F9EFF3108372B6054A1360BFF320
:1020D0006F8F01A8FFF7D6FC07BDC0461A2F00007E
:1020E00018E5FF1F6022437893431A0040231343EF
:1020F000437000207047000010B50C78002C06D10A
:102100004A782023002A1CD082789A4382700721C3
:10211000042243788B431343437083788B431C43DF
:102120000A4B847019690A431A614378BFF34F8FD1
:1021300030BFBFF36F8F08234078184000D00448A9
:1021400010BD827813438370E1E7C04600ED00E0E4
:102150003C0F0000C27810B5054B8900D20604D5AB
:10216000044A12685958904710BD034AF9E7C0461F
:102170001CE5FF1F24E5FF1F28E5FF1F10B5002108
:102180000148FFF7E7FF10BD0060074010B50121CF
:102190000148FFF7DFFF10BD00700740031E04D0A9
:1021A000034BC018431E9841831C18007047C0465B
:1021B0000040F9BFF7B50E6804000F0010003101B0
:1021C0000092FEF707FA85B2002D00D10135009B81
:1021D00031005B0018000093FEF7FCF96901401A1A
:1021E00083B2C91800980193FEF7F4F9331A0093EB
:1021F000864201D2831B009364213000FEF7EAF986
:1022000003235843009B83423ED82000FFF7C6FFBC
:102210001E4B8000C1581E4B0A0CD218012389B2F4
:102220008B401068034313600C22E3789343E37000
:102230001F2321782A0A99430A43EDB22270657060
:10224000A07A019A98431A40104317220421A072E1
:10225000A37893437A7992000A403979134300298D
:1022600002D010220A431343A370E378BA79DBB299
:10227000002A01D008221343FA79002A01D004224F
:1022800013430020E370FEBD0248FCE7EC3300007E
:1022900000700440F5030000E1235B0203600023AB
:1022A000037143718371C37170470000074B19407C
:1022B00003780A0A0B43DBB20370C378090C13439B
:1022C000DBB2C370837919438171704740F00F000E
:1022D0004022437993430A0A1343DBB24371172325
:1022E000194201D00379C3790B0701D50379C3796A
:1022F0000379407900021843084000D00048704735
:10230000EE0300000B4B0C490C4A10B50C48D150A1
:10231000FFF73EFB0B48FFF799FA2A230A4C23707C
:102320002000FFF7DFFEE378042BFCD1074A084BBF
:102330001A6010BD44100000000007100070044037
:10234000F83300000034000000E0074080841E00E5
:102350003CE0FF1F8022264BD200196830B50A43AB
:102360001A608022196812010A431A6080221968D3
:1023700052010A431A608022196892000A431A60C7
:102380008022196892010A431A60C02219481A4B28
:10239000C168920019401143C1600169174D19408D
:1023A000114301618020164940000C691C40044320
:1023B0000C614C681C4004434C602C681C40044376
:1023C0002C60104DAC691C401443AC61EC691C409E
:1023D0001443EC610C4D6C6C1C4014436C642C6C0D
:1023E0001C4022432A64CA6C13401843C86430BDA1
:1023F0003880044000B00440FFF8FFFF00A0044014
:102400000090044000C0044000D004400823064A65
:102410009178194202D091780B4393708823002160
:10242000024A5B01D150704700D007400070044061
:1024300010B50A22002100F035F910BD084B10B587
:102440000400002B02D0002100E000BF054B1868FB
:10245000836A002B00D09847200000F04BFDC04657
:10246000000000000834000070B500260C4D0D4C33
:10247000641BA410A64209D1002601F097F80A4D6A
:102480000A4C641BA410A64205D170BDB300EB58E2
:1024900098470136EEE7B300EB5898470136F2E76C
:1024A000CC350000CC350000CC350000D035000024
:1024B000002310B59A4200D110BDCC5CC454013346
:1024C000F8E710B5884202D98B18984208D3002348
:1024D0009A4207D0CC5CC4540133F9E78B5C835437
:1024E000013AFBD210BD03008218934200D170471D
:1024F00019700133F9E700000EB410B59DB002A9C0
:10250000029008610B4882248860486101204042A3
:102510001FABC881084804CBA400006801938C81DC
:1025200000F0F4F90023029A13701DB010BC08BC2F
:1025300003B01847FFFFFF7F40E0FF1FC9B20378D9
:10254000002B04D0994200D170470130F7E74B428D
:10255000594149420840F7E7031C0A7801311A70D3
:102560000133002AF9D1704710B502000078002825
:1025700004D1097800290DD010BD0132107800284F
:10258000FAD00023C85C002804D0D45C8442F4D183
:102590000133F7E71000EFE7F0B51F000E0087B03A
:1025A0000590039102920C98347800F08FF808227D
:1025B00000194378751C13400CD12D2C0CD101331C
:1025C0002C780193B51C002F0CD0102F14D1302C77
:1025D0000AD011E02E00E6E701932B2CF3D12C78E2
:1025E000B51CF0E7302C2FD120222B789343582BA9
:1025F00051D110276C780235019B294A39009E1869
:102600003000FEF76DF8300004913900FDF7E2FF6D
:1026100001210023494202008C4618002100303974
:10262000092913D80C00A7421CDD591C09D06346A8
:10263000824206D302D10499A14202DB01237843EE
:1026400020182C780135E9E70A27D5E72100413920
:10265000192901D8373CE6E721006139192901D849
:10266000573CE0E75A1C08D1059A23331360029BBC
:102670003000002B0BD107B0F0BD019A002A00D02A
:102680004042029A002AF6D0039A002B00D06A1E1C
:10269000029B1A60EFE73024002FADD10837ABE77B
:1026A000FFFFFF7F37B51300064A05001068046A74
:1026B000002C00D1044C0A0000942900FFF76CFFA5
:1026C0003EBDC04640E0FF1FA4E0FF1FEC300068A5
:1026D000704782B0002900D101A9101E06D0002B3E
:1026E00006D013780B601078431E984102B07047F3
:1026F00002204042FAE7000070B50500002910D022
:102700000C1F2368002B00DAE418280000F0B3FB4C
:102710001D4A1368002B05D163601460280000F087
:10272000ABFB70BDA34209D9216860188342F3D185
:1027300018685B6841182160EEE713005A68002AA8
:1027400001D0A242F9D919685818A0420BD12068CB
:102750000918581819608242E0D11068526841186F
:1027600019605A60DAE7A04202D90C232B60D5E742
:1027700021686018824203D11068526841182160B4
:1027800062605C60CAE7C0462CE5FF1F032370B59A
:10279000CD1C9D43083506000C2D1ED20C25A942E8
:1027A0001DD8300000F067FB254A1468210000297D
:1027B00019D1244C2368002B03D1300000F032FBE8
:1027C00020602900300000F02DFB431C2CD10C238D
:1027D0003000336000F050FB03E0002DDFDA0C2303
:1027E0003360002070BD0B685B1B1AD40B2B03D920
:1027F0000B60CC18256003E08C420ED16368136037
:10280000300000F039FB200007220B30231D9043DD
:10281000C31AE7D05A42E250E4E74B6863600C0009
:10282000EEE70C004968C2E70323C41C9C43A042A6
:10283000E0D0211A300000F0F5FA431CDAD1C6E7E7
:102840002CE5FF1F30E5FF1FF0B58E6885B007004F
:102850000C00039201939E4239D890238A89DB00B1
:102860001A4234D00325096923685B1A029363690D
:1028700002985D43EB0F5D19019B6D1001331B182E
:10288000AB4200D91D00530532D529003800FFF7AF
:102890007DFF061E09D10C233B6040230120A28945
:1028A00040421343A38105B0F0BD029A2169FFF7AE
:1028B000FFFDA389144A1A4080231343A381029B7E
:1028C0002661F61826606561019EED1AA560019BE0
:1028D000B34200D21E00320003992068FFF7F1FDD9
:1028E000A36800209B1BA36023689E192660DAE77B
:1028F0002A00380000F0C1FA061EE0D12169380034
:10290000FFF7FAFEC7E7C0467FFBFFFFF0B59FB0B9
:10291000029005938B890F0016001B0611D50B69D9
:10292000002B0ED14021FFF731FF386038610028BD
:1029300005D10C23029A013813601FB0F0BD40236B
:102940007B61002306AD6B6120336B761033AB7671
:1029500034002378002B47D1A31B04930DD0A31B75
:10296000320039000298FFF76FFF431C00D1B5E039
:102970006A69049B944663446B612378002B00D101
:10298000ACE00122002352426A6002A9543252187C
:1029900001342B60EB60AB601370AB65584E0522C1
:1029A0002178300000F05CFA621C002820D12968F0
:1029B000CB0604D5532302AE20309B1918700B07A9
:1029C00004D553232B2002AE9B19187023782A2B91
:1029D00016D000200A21099B2278303A092A55D9BD
:1029E000002815D0099313E0252BB5D00134B0E7AA
:1029F0000123801B8340296814000B432B60CDE723
:102A0000059B181D1B680590002B39DB09931400EA
:102A100023782E2B0BD16378621C2A2B3ED1059B89
:102A200002341A1D1B680592002B34DB0793354EC8
:102A300021780322300000F013FA002806D040234A
:102A4000801B83402A68013413432B6021780622BF
:102A50002D48661C297600F003FA002846D02B4B3F
:102A6000002B2FD12968059B0722C90528D59B1863
:102A70009343083305936B69039A9B186B6167E76F
:102A80005B42EB6002230B432B60C0E74B430134F6
:102A90009B180120A0E701235B42C7E70023140035
:102AA0000A201A006B6021783039092903D9002BDC
:102AB000BDD00792BBE74243013452180123F2E72D
:102AC0000733D5E705AB00933A00114B2900029874
:102AD00000E000BF0390039B0133CCD1BB890B986E
:102AE0005B0600D429E70120404226E705AB0093AE
:102AF0003A00074B2900029800F07AF8EAE7C0464E
:102B0000763400007C3400008034000000000000B7
:102B100049280000F7B5150001938A680B690090F9
:102B20000C00934200DA130022002B60433212782B
:102B3000002A01D001332B6023689B0602D52B6845
:102B400002332B60062723681F4027D0230043331E
:102B50001B785A1E93412268920630D422000199B4
:102B600043320098089EB047431C25D006232068B6
:102B70002A68E16803400025042B03D18D1AEB433A
:102B8000DB171D40A3682269934201DD9B1AED18F3
:102B90000027BD4220D1002010E00137E3682A68F9
:102BA0009B1A9F42D2DA2200012319320199009820
:102BB000089EB047431CF0D101204042FEBD3020AA
:102BC000E1184331087021005A1C45310978A218D8
:102BD000433202331170C1E7220001231A320199F6
:102BE0000098089EB047431CE6D00137D1E70000AB
:102BF000F0B58BB006920A00433207930590049219
:102C00000A7E0C00109B6E2A00D18FE017D8632A31
:102C10002CD008D8002A00D199E0582A54D0260098
:102C20004236327029E0642A01D0692AF7D121683E
:102C30001A68080623D5111D1960156825E0732A46
:102C400000D188E008D86F2A29D0702AE7D1202245
:102C500009680A43226003E0752A20D0782ADED171
:102C600022007821453211706C4A30E00E001A685B
:102C70004236111D196013683370012379E049064B
:102C8000D9D5111D19600023D55E002D03DA2D233F
:102C9000049A6D421370624B0A2703932FE0206859
:102CA0001968050603D5081D18600D6805E0400683
:102CB000F9D50D68081D1860ADB2594B082703936C
:102CC0006F2A18D00A2716E045310A70544A039239
:102CD0001A682168101D18601568080622D5CB07F0
:102CE00002D52023194321601027002D03D1202372
:102CF00022689A4322602300002243331A706368DB
:102D0000A360002B5CDB0422216891432160002D2D
:102D100058D1049E002B64D02600039B42361B78BA
:102D200033705EE04806DAD5ADB2D8E709681A68B4
:102D3000080605D5111D1960136862691A6006E05E
:102D40004906F7D5111D19601368A28A1A8000235D
:102D5000049E236154E01A68111D19601668002151
:102D60006268300000F07CF8002801D0801B6060B1
:102D7000636823610023049A137041E023693200E1
:102D800006990598079DA847431C43D02368002552
:102D90009B070FD4099BE06898423DDA18003BE09E
:102DA00022000123193206990598079EB047431C5B
:102DB00030D00135E368099A9B1A9D42F0DBE9E7C0
:102DC000002DA9D0049E28003900FDF789FC039B43
:102DD000013E5B5C280033703900FDF7FBFB051EEC
:102DE000F1D1082F09D12368DB0706D56368226972
:102DF000934202DC3023013E3370049B9B1B236112
:102E0000079B09AA00932100069B0598FFF782FE05
:102E1000431CB3D1012040420BB0F0BD98340000F8
:102E200087340000002370B5064C050008002360BD
:102E300000F052F8431C03D12368002B00D02B6014
:102E400070BDC046CCE9FF1F0B1E04D0FF2A04D979
:102E50008A2303608B3B180070470A700123FAE74E
:102E6000C9B28218904201D10020704703788B428A
:102E7000FBD00130F6E770477047F8B507000D004A
:102E80001600002905D11100FFF780FC0400200086
:102E9000F8BD002A03D1FFF72FFC3400F7E700F05C
:102EA00012F82C008642F2D931003800FFF76EFC90
:102EB000041EECD029003200FFF7FAFA290038008E
:102EC000FFF71AFCE3E70B1F1B68181F002B01DA42
:102ED0000B58C01870470000044A1368002B03D039
:102EE0001818106018007047014BF9E734E5FF1F10
:102EF000D0E9FF1FFEE7C046363530302E353300AF
:102F000000000030323533342E353534000036358C
:102F100030302E30323335390000010141542B2539
:102F20007325730D0A0073656E6420746F206D6FD6
:102F300064756C653A200D0A004E524200455252AB
:102F40004F52004F4B0043434C4B004346554E00FD
:102F5000434D45453D004E534F52463D302C3200C7
:102F60004E534F53543D004E534F43523D2244471E
:102F700052414D222C31372C34323030302C31003C
:102F80004347504144445200435351004347414357
:102F90005400434744434F4E543D312C2249502264
:102FA0002C22222C22220043455245473F00434F0A
:102FB0005053004E50494E3D302C22313233342292
:102FC0000043474D49004154004E474C4C00504788
:102FD000535600476F74204750530D0A00446174E4
:102FE0006120696E76616C69642C2077616974690F
:102FF0006E6720666F722076616C6964206461740C
:10300000610D0A00256C640D0A0001015265696EAC
:103010006465657220496F54206861732073746120
:10302000727465640D0A436F6D6D616E6420226970
:103030006F742220746F20737461727420657865D8
:10304000637574696E67207265696E646565722068
:10305000747261636B206379636C650D0A436F6DF5
:103060006D616E642022677073696E666F3D3122F8
:10307000206F722022677073696E666F3D30222068
:10308000746F2073776974636820475053206461BC
:103090007461206F6E2F6F66660D0A004F72206597
:1030A0006E746572206E6F726D616C204154206386
:1030B0006F6D6D616E6473206865726520666F72F6
:1030C00020534152412D4E320D0A4D6F64756C658F
:1030D0007320706F7765726564206F6E20616E6417
:1030E00020626F6F74696E67206E6F77210D0A0022
:1030F00031313131310066616C736500576F6B653A
:103100006E20627920414343454C2C207265696EE4
:103110006465657220697320212121414C4956451F
:103120002121210D0A007472756500696F740053C6
:1031300074617274696E67205265696E6465657248
:1031400020496F54206379636C650D0A00677073C2
:10315000696E666F3D3100677073696E666F3D30F2
:103160000072666F66660072666F6E00B56200730D
:10317000656E6420746F206770730D0A00466F756A
:103180006E642055425820726573706F6E73650DC2
:103190000A00776169742031307365632062656667
:1031A0006F7265206E6220737461727475700D0A9F
:1031B00000526F67657220696E636C756465206D7F
:1031C00061696E2E630D0A0030323533302E35368C
:1031D000393531003D312C310050445020312061CF
:1031E00063746976617465640D0A003D320044655C
:1031F0002D726567697374657265640D0A005265A6
:1032000067697374657265640D0A00536F636B655B
:10321000742072656164790D0A0050445020636F18
:103220006E74657874203120646566696E65640D1E
:103230000A002B43455245473A20302C3100434584
:103240005245475F4F4B0D0A006563686F0D0A00DA
:103250002B55464F544153007265626F6F7465641D
:103260000D0A0074696D656F7574206572726F72F6
:103270000D0A00302C223136372E39392E323037B4
:103280002E313333222C313838342C25642C22252E
:1032900073220073656E74002B4E50494E3A202203
:1032A0004F4B220061636B0D0A0069702020666F2E
:1032B000756E640D0A007B0D0A0D0A202020202265
:1032C00073657269616C6E756D626572223A222552
:1032D00073222C0D0A0020202020226C6174223AD7
:1032E000222573222C0D0A0020202020226C6F6ED4
:1032F00067223A222573222C0D0A0020202020224A
:10330000737461747573223A222573222C0D0A009E
:10331000202020202262617474657279223A22256D
:1033200064220D0A0D0A7D0025303278007265692D
:103330006E6465657231323334007265696E64653E
:103340006572007265696E64656572747261636B43
:103350006572000080841E0000127A00060034109E
:10336000070034101400160018001A001C001E007C
:10337000220028001C002000240028002C0030001F
:103380003800440030003800400048005000580029
:103390006800800050006000700080009000A00075
:1033A000C000F000A000C000E000000120014001CA
:1033B0008001E00140018001C00100024002800262
:1033C0000003C003800200038003000480040005A2
:1033D0000006800700050006000700080009000A33
:1033E000000C000F14003810150038100000000009
:1033F000000000000C00341001020000000000007A
:10340000000000000000010044E0FF1F0000000079
:1034100000000000000000000000000000000000AC
:10342000000000000000000000000000000000009C
:10343000000000000000000000000000000000008C
:10344000000000000000000000000000000000007C
:10345000000000000000000000000000000000006C
:103460000000000000000000000000004300504F7A
:10347000534958002E00232D302B2000686C4C003F
:103480006566674546470030313233343536373864
:1034900039414243444546003031323334353637C2
:1034A0003839616263646566000020202020202096
:1034B00020202028282828282020202020202020E4
:1034C00020202020202020202020881010101010E4
:1034D0001010101010101010101004040404040434
:1034E0000404040410101010101010414141414117
:1034F000410101010101010101010101010101017C
:10350000010101010110101010101042424242420C
:10351000420202020202020202020202020202024B
:103520000202020202101010102000000000000031
:10353000000000000000000000000000000000008B
:10354000000000000000000000000000000000007B
:10355000000000000000000000000000000000006B
:10356000000000000000000000000000000000005B
:10357000000000000000000000000000000000004B
:10358000000000000000000000000000000000003B
:10359000000000000000000000000000000000002B
:1035A000000000000000000000000000F8B5C04668
:1035B000F8BC08BC9E467047F8B5C046F8BC08BCCD
:0435C0009E4670476C
:0835C400ACCEFF7F0100000006
:0435CC0039040000BE
:0435D00011040000E2
:1035D400A72F00008C2F0000922F0000802F0000E6
:1035E400AE2F0000B32F0000392F0000672F00001A
:1035F400562F0000602F0000D00700004333000066
:103604002D3300003A3300003A33000000127A00F0
:1036140044E0FF1F000000002C3400004C34000084
:103624000C34000000000000000000000000000056
:103634000000000000000000000000000000000086
:103644000000000000000000000000000000000076
:103654000000000000000000000000000000000066
:103664000000000000000000000000000000000056
:103674000000000043000000000000000000000003
:103684000000000000000000000000000000000036
:1036940000000000430000000000000000000000E3
:1036A4000000000000000000000000000000000016
:1036B40000000000430000000000000000000000C3
:1036C40000000000000000000000000000000000F6
:1036D40000000000430000000000000000000000A3
:1036E40000000000000000000000000000000000D6
:1036F4000000000043000000000000000000000083
:1037040000000000000000000000000000000000B5
:103714000000000043000000000000000000000062
:103724000000000000000000000000000000000095
:103734000000000043000000000000000000000042
:103744000000000000000000000000000000000075
:1037540000000000492E0000D326000000000000F5
:10376400A934000074340000382F0000382F000002
:10377400382F0000382F0000382F0000382F0000A9
:10378400382F0000382F0000382F0000FFFFFFFF04
:10379400FFFFFFFFFFFFFFFFFFFF0000010041539A
:1037A4004349490000000000000000000000000040
:1037B4000000000000000000000000000000415371
:1037C4004349490000000000000000000000000020
:1037D40000000000000000000000000000000000E5
:0437E40000000000E1
:04000003000004E90C
:00000001FF
