:1000000000600020D10400001D0500002105000053
:1000100000000000000000000000000000000000E0
:1000200000000000000000000000000025050000A6
:10003000000000000000000029050000611600001B
:100040003105000035050000390500003D050000C0
:10005000190500001905000019050000FD10000039
:100060004105000045050000490500004D05000060
:100070006911000001120000B5110000190500000F
:1000800019050000190500001905000019050000F8
:100090001905000019050000190500005D050000A4
:1000A00019050000190500001905000019050000D8
:1000B0005111000019050000190500001905000084
:10040000FFFFFFFFFFFFFFFFFFFFFFFFFE1FFFFFDD
:1004100010B5064C2378002B07D1054B002B02D0DA
:10042000044800E000BF0123237010BD04E2FF1F59
:1004300000000000A4340000044B10B5002B03D0D2
:100440000349044800E000BF10BDC04600000000A2
:1004500008E2FF1FA4340000164B002B00D1144B00
:100460009D46402292029A1A924600218B460F46E0
:100470001348144A121A01F0C9FF0F4B002B00D089
:1004800098470E4B002B00D0984700200021040015
:100490000D000D48002802D00C4800E000BF01F01C
:1004A00075FF2000290000F015FC01F059FFC0463F
:1004B00000000800006000200000000000000000B4
:1004C00004E2FF1FC0E9FF1F000000000000000061
:1004D00072B60A480A4901600A6882F30888094826
:1004E00080470949094A0A4B9B1A03DD043BC85857
:1004F000D050FBDC62B607488047000008ED00E002
:1005000000000000CD220000CC34000000E0FF1FFE
:1005100004E2FF1F5904000011480047114800473A
:10052000114800471148004711480047114800474B
:10053000114800471148004711480047114800473B
:10054000114800471148004711480047114800472B
:10055000114800471148004711480047114800471B
:10056000190500001D0500002105000025050000FB
:100570002905000061160000011900001119000092
:100580002119000031190000151C00002D1C00006D
:100590003520000045200000CD1E0000E91E0000AF
:1005A000C5190000051F000002B471464908490042
:1005B000095C49008E4402BC7047C04600224308D3
:1005C0008B4274D303098B425FD3030A8B4244D31B
:1005D000030B8B4228D3030C8B420DD3FF2209025D
:1005E00012BA030C8B4202D31212090265D0030B1C
:1005F0008B4219D300E0090AC30B8B4201D3CB0312
:10060000C01A5241830B8B4201D38B03C01A524153
:10061000430B8B4201D34B03C01A5241030B8B4255
:1006200001D30B03C01A5241C30A8B4201D3CB0240
:10063000C01A5241830A8B4201D38B02C01A524125
:10064000430A8B4201D34B02C01A5241030A8B4228
:1006500001D30B02C01A5241CDD2C3098B4201D340
:10066000CB01C01A524183098B4201D38B01C01ABE
:10067000524143098B4201D34B01C01A5241030935
:100680008B4201D30B01C01A5241C3088B4201D3E4
:10069000CB00C01A524183088B4201D38B00C01A91
:1006A000524143088B4201D34B00C01A5241411AB8
:1006B00000D20146524110467047FFE701B50020C5
:1006C00000F006F802BDC0460029F7D076E7704773
:1006D0007047C0460023C25C0133002AFBD1581E7C
:1006E000704710B51D212A2000F0D2F903215B20AC
:1006F00000F0CEF910BD10B52D2000F0F5F97C21E9
:1007000049420143C9B22D2000F0C2F92E2000F069
:10071000EBF904210143C9B22E2000F0B9F92C20D5
:1007200000F0E2F908210143C9B22C2000F0B0F931
:10073000152000F0D9F978210143C9B2152000F045
:10074000A7F9172000F0D0F9712149420143C9B23D
:10075000172000F09DF910BD10B50449044801F0C0
:1007600093FE431E9841C0B210BDC0462F2E00001C
:10077000ACE7FF1FF3B517000022254DFFB00B00BB
:100780002A802449020003A801F048FE03A800F0D3
:1007900063FA214800F08AFA03A800F087FA1F499B
:1007A00003A801F071FE444244411D481D4B6442C0
:1007B0000440E41800F04EFF0319019300F04AFFD3
:1007C000019B984201D302240EE0174E3378002B90
:1007D000F4D0164C3900200001F056FE00280DD050
:1007E000200000F063FA00249622002192000F48B6
:1007F000298001F00BFE20007FB0F6BD0C492000DF
:1008000001F042FE002801D13070D7E70124EBE768
:1008100024E2FF1F082E0000122E0000252E0000EB
:10082000D8DCFFFF1027000026E2FF1FACE7FF1F08
:10083000292E000037B504004518AC4200D137BD61
:1008400022780449684601F0E9FD684600F02EFA76
:100850000134F2E7F62E0000002330B50022C41860
:10086000A2560D2A0DD10022110084420CD16270D3
:1008700000222170A270591C91420CDA181DC0B2DE
:1008800030BD0133DBB2E9E7057801304919C9B25F
:100890005218D2B2E9E70132D2B2EDE770B5C378AF
:1008A0000D0003718378C3702E2383700A794A7117
:1008B000CA78CB7000230A710022C1188A56302AE8
:1008C00037D0214C200001F0D7FD20002E2101F06F
:1008D000C5FD441C0023E356302B2DD0200001F031
:1008E00039FD0621FFF76AFE184E02003100200094
:1008F00001F094FD00230022E9188A56302A1DD009
:10090000134C200001F0B8FD20002E2101F0A6FDBF
:10091000441C0023E356302B13D0200001F01AFDB5
:100920000621FFF74BFE31000200200001F076FDAA
:1009300070BD0133DBB2BFE70134CBE70133DBB27B
:10094000D9E70134E5E7C04680E7FF1FF02E00003D
:1009500098E7FF1FF0B593B009AC01AB636005AB3E
:10096000E3606B46274E28493000A36101F08CFDFF
:1009700026490500300001F087FD0600002D34D027
:100980002349280001F080FD002801D00023837056
:10099000002329001F000022AA56002A11D1A569B0
:1009A0004121280001F05AFD002815D0194800F017
:1009B0007DF9E1686068FFF771FF0123180013B04B
:1009C000F0BD681C2C2A05D19A00A150010001330A
:1009D0002F70DBB20500DEE75621280001F03EFD56
:1009E000002802D00C4800F061F9331EE6D0084917
:1009F000300001F049FD002203009042DED08270F9
:100A00001300DBE728E5FF1FB52E0000BA2E00001B
:100A1000222E0000BF2E0000C92E00008023164A9F
:100A200030B5116885B00B4313608023134A9B01D6
:100A3000116801AC0B43136000F0C0FE05002000FC
:100A400000F0FCFF0123237000230D4A21006260A7
:100A50000C482A006370237201F034F8C0210A4A5E
:100A60000A481368C90003400B43136053680340EE
:100A70001943516005B030BD3480044038800440D3
:100A8000400D03000070064000D00440FFF8FFFF57
:100A900070B5002205000C0012481C2101F06EF810
:100AA000104A02211300D0780842FCD0D0780143CC
:100AB000D170102190780143917015710222D9787C
:100AC0001142FCD0D9780A43DA7002221C71D9781D
:100AD0001142FCD0D97803480A43DA7001F034F8A7
:100AE00070BDC0460070064070B5002205001C2194
:100AF0001A4801F043F8194B02221C00D978114220
:100B0000FCD0D9780A43DA70102299780A439A7097
:100B10001D710223E2781A42FCD0E2781C211343B3
:100B2000E37001220D4801F047F80223E2781A42EF
:100B3000FCD01822E370A3789343A3700823A27813
:100B40001343A37023790223E2781A42FCD0E370A6
:100B5000024800F0F9FF2079C0B270BD0070064075
:100B600070B5084C084D200001F094F801230022D4
:100B70002800210023716371A27101F063F8034B17
:100B8000AB6070BDA2E9FF1F0000044087130000A6
:100B9000F0B587B001F0ACFB022000F01FFE019021
:100BA000002000F01BFE254D03AC0090280001F052
:100BB000CFFA200001F04CF996260123C020AB713A
:100BC000EB71A372E3721E4A1E4BB6012E600396B0
:100BD000D15880050143C020D150D15800050143B0
:100BE000194FD1501948009A210001F06DF8019A6F
:100BF0002900380001F03AFA03968026144D009A35
:100C00002100B603280001F05FF831000F4801F021
:100C10002CF9802380210F4C5B012360380089016F
:100C200001F0A0FA8023DB0123603100280001F0ED
:100C30001CF980239B01236007B0F0BD90E7FF1FE4
:100C4000007004400410000000C006400040054051
:100C50000050054000E100E00023802110B5074A64
:100C6000C35609040130002B00D110BD54680C425A
:100C7000FCD0D3600023C3560130F4E700400540A8
:100C8000002310B5084CC3560130002900D110BD17
:100C9000227952B2002AFBDADBB2E3710023013978
:100CA000C356C9B20130F0E700C0064030B5802518
:100CB0000400002306492D04E256D8B2002A00D1D0
:100CC00030BD48682842FCD0CA600133F4E7C04612
:100CD000005005400823F0B5D54AD64C9178A5447C
:100CE0000B4393708022D44B1A6001F093FA01F009
:100CF00069FA00F063FDFA218900FFF75FFCCF4B32
:100D0000013898420DD8C021CD4A09065060CD481F
:100D1000036A1B021B0A0B43036200239360073321
:100D20001360FFF77BFEC84CFFF7E5FCFFF7D9FC2B
:100D3000FFF72EFFC54F04213A00200000F046FEC9
:100D400009A8FFF7B3FFFFF70BFF2A230126C04DC9
:100D50002B70C04B1E70C04B1A7932431A7104229B
:100D600059780A435A702522197A0A4380211A7247
:100D70004023BA4A10688843034313601368200075
:100D80008B43334313606D393A0000F01FFE3A0085
:100D90003100200000F01AFE0223B148A360FFF7E3
:100DA00085FFB048FFF782FFAF4F08223900684641
:100DB00001F010FB0322002102A801F027FB3900FB
:100DC0000A220B3103A801F005FB162300226B4415
:100DD000A64911A81A7001F04FFB4A236B446946DB
:100DE000180001F049FB56236B4403A9180001F0D9
:100DF00043FB62236B4418009D4901F03DFB4923EE
:100E00002D226B44DA779B4B9B481A78022A07D035
:100E10001A789A48002A03D01B78012B08D19848E9
:100E2000FFF744FF01F0A4F88A49280001F0C0F858
:100E3000904B1B78012B2BD161336B4418009149E7
:100E400001F01AFB904B1D78EDB2002DFBD18F48BD
:100E5000FFF72CFF8E48FFF729FF39000B221631D0
:100E600006A801F0B7FA23230C226B4489491BA87A
:100E70001D7001F0AFFA4A236B4406A9180001F077
:100E8000FBFA1BA956236B44180001F0F5FA0DE09C
:100E9000814B1B78002B3CD0804D8149280001F00C
:100EA000F3FA00281BD07F48FFF700FF1BA911A809
:100EB00000F0C2F901001BA800F0A8FB7A48FFF778
:100EC000F5FE7A497A4A7B48FFF754FC0223A36077
:100ED00001F04EF85F495E4801F06AF8FEE7764996
:100EE000280001F0D1FA061E56D00122734B1A7069
:100EF00080231B03A360694D2800FFF7EBFB002153
:100F00000200280001F082FA0023634A13706C4A41
:100F100013806C4B1B78002B21D000F09BFBFA2335
:100F2000694DDB00C018286000F094FB2B689842E4
:100F300003D2FFF711FC0028F6D0644D2800FFF71C
:100F4000B5FE5348FFF7B2FEFA22002152002800F6
:100F500001F05CFA00235E4A13805A4A13704A4B30
:100F60001B78002B00D163E7544B1B78002B00D17A
:100F70005EE7464D2800FFF799FE4548FFF796FECD
:100F8000FFF7E8FC002838D04A236B445149180089
:100F900001F072FA504975E75049280001F074FADF
:100FA000002805D0454B1E7080231B036360A2E719
:100FB0004B49280001F068FA002801D0022399E784
:100FC0004849280001F060FA002801D00223EDE72B
:100FD0004549280001F058FA00280AD04348FFF795
:100FE00065FE4348FFF738FC01002800FFF748FE84
:100FF00081E72800FFF730FE7DE73B49280001F03C
:1010000043FA061E08D03B48FFF750FE3179300006
:101010000831C9B2FFF70EFC962200219200280089
:1010200001F0F4F90023344A1380174A1370FFE6E5
:1010300000D00740CCFDFFFF00E100E0FFFFFF0014
:1010400010E000E000ED00E000F00F40FB2E00009B
:1010500000E00740A0E9FF1F00C007400000044077
:10106000FD2E00008D2F0000E42D0000E12F000078
:10107000E72F000020E4FF1FED2F000017300000D5
:10108000333000004C30000022E2FF1F28E5FF1F34
:10109000222E0000D63000001EE4FF1F2AE2FF1FB0
:1010A0005130000055300000B8300000242E000000
:1010B0002F2E0000CF300000733000001FE4FF1F10
:1010C00028E2FF1F26E2FF1F1CE0FF1FACE7FF1F07
:1010D00024E2FF1F80E7FF1F98E7FF1F7D3000001D
:1010E000873000008D300000923000009530000005
:1010F0002CE2FF1FA330000020E2FF1F012010B5EB
:10110000104BDA79024211D0C0240F4A1168A14372
:101110001160802114682143812411601168A1436A
:1011200011600A4A107020225A7110BD202259798C
:101130001142F8D002200549087059790A435A71C2
:10114000F1E7C04600C007400000044020E4FF1F54
:101150008022044B19681143196019681142FCD1AF
:101160007047C0460000044010B50D4C20212000FF
:1011700000F08AFE80220B4BD203DA60E368D9B21A
:1011800000290CD0084A094C1088235413880133D5
:101190009BB213800D2902D10122054B1A7010BD9C
:1011A0000040054040F00F4024E2FF1FACE7FF1F66
:1011B00026E2FF1F10B50E4C2021200000F0E4FFB6
:1011C0000C49E3790878DBB20B4A002806D1108875
:1011D0000A4C2354138801339BB21380F4231288E2
:1011E000FF339A4202D9F33BFF3B0B7010BDC04660
:1011F00000C0064022E2FF1F20E2FF1F28E5FF1F7C
:10120000094A0A4B0A48D9681388C1541388C9B2DD
:1012100001339BB213800D2904D1064B0C39197090
:10122000002313807047C04628E2FF1F005005408E
:101230002AE2FF1F1EE4FF1FF0B56C4BE3B01B68F2
:101240000090180002910193FFF744FA6B46059055
:101250001D7D674B0AAC1B6818000393FFF73AFA31
:101260006B4606901E7E634B1B6818000493FFF7C5
:1012700031FA6B4607901F7F10232370AB19103390
:10128000FB1863708023DB0063805B4B1620A38018
:101290005A4B059AE3805A4B01992381A0231B01E5
:1012A000638100232373FF231A4008ABC0186573C2
:1012B00001F090F80522002108A801F0A7F8280005
:1012C0000E3008AAC0B2577008A90222201801F0F7
:1012D00081F8FF23079A1035EDB21A40601904997E
:1012E0007D1901F077F8EDB208AA56706019022254
:1012F00008A901F06FF8FF23069A0235EDB21A40F3
:101300000399601901F066F83E4A75191068FFF7F5
:10131000E1F96B4603903C4E1A7B3C490192300048
:10132000009A01F07BF8009A0700063280193849CC
:1013300001F074F8009A3F18B8191232354901F0DB
:101340006DF8009A3F18B8191E32334901F066F85B
:10135000009A3F18531DDA7FB819304901F05EF842
:101360003F183000FFF7A2FC302308AA13706B4629
:101370001979EDB21171FAB20092019A08A9931C81
:10138000FAB2D3188022DBB252421A434A7062AAE0
:1013900050196138DB090522FF388B7001F01AF80B
:1013A000FF23039A05351A40164BEDB219686019F0
:1013B00001F010F831000026019B3A005D19EDB2F2
:1013C000601901F007F8009B5D19EDB2F3B29D4280
:1013D00002D8280063B0F0BDA25D1149029801F067
:1013E0001DF8029B013602330293EFE720E0FF1F56
:1013F00024E0FF1F2CE0FF1F4D510000545400005B
:1014000004C2FFFF28E0FF1F21E4FF1FB1310000ED
:10141000D1310000E3310000F63100000B32000052
:10142000F62E0000094B10B51868094A0949FFF764
:10143000A1F9094B1870002803D10848FFF736FCC2
:1014400010BD0128FCD10648F8E7C04610E0FF1F98
:1014500093310000242E0000A9E9FF1F9F310000F6
:1014600066310000022310B50B4C23702378002B4B
:1014700000D110BD094B0A4A0A491868FFF77AF9EA
:101480002070002803D10848FFF710FCEEE7012880
:10149000ECD10648F8E7C046A9E9FF1F00E0FF1FAE
:1014A00034310000242E000040310000663100007D
:1014B0000B4B10B518680B4A0B49FFF75BF90B4C47
:1014C0002070FA20800000F0D3F823780848002B21
:1014D00002D0012B02D10748FFF7E8FB10BDC04640
:1014E00008E0FF1F2F2E0000242E0000A9E9FF1F97
:1014F0001C31000066310000094B10B51868094A1C
:101500000949FFF737F9094B1870002803D108483B
:10151000FFF7CCFB10BD0128FCD10648F8E7C04618
:1015200004E0FF1F2F2E0000E2300000A9E9FF1F9A
:10153000E730000066310000094B10B51868094A11
:101540000949FFF717F9094B1870002803D108481B
:10155000FFF7ACFB10BD0128FCD10648F8E7C046F8
:101560000CE0FF1F2F2E0000242E0000A9E9FF1F12
:10157000A531000066310000094B10B51868094A12
:101580000949FFF7F7F8094B1870002803D10848FC
:10159000FFF78CFB10BD0128FCD10648F8E7C046D8
:1015A00014E0FF1F2F2E0000242E0000A9E9FF1FCA
:1015B0000D3100006631000010B5FEB003000A00D6
:1015C00001A80C4900F02AFF0B4B0C4A186801A92E
:1015D000FFF7D0F80A4B041E18700A4802D0012CFD
:1015E00005D10948FFF762FB20007EB010BD002442
:1015F000FAE7C0466E31000018E0FF1F2F2E0000F2
:10160000A9E9FF1F8E3100006631000070B50E4A57
:1016100004000D000D480E49FFF7ACF8FFF702FF7C
:10162000C82000F025F8FFF743FFFFF765FFFFF73D
:1016300019FFFFF781FFFFF79FFF29002000FFF749
:10164000BBFF0128F1D070BD2F2E00000631000035
:10165000242E0000014B18687047C046B8E4FF1FF5
:10166000024A1368013313607047C046B8E4FF1F95
:10167000034B1A6880181A689042FCD87047C0461D
:10168000B8E4FF1F0222084B1878104004D19A7961
:101690001207920F012A05D101225B781340034AF9
:1016A0009B0098587047C046004006404C320000EE
:1016B0000020044B1B785BB2834201DA024B1868AE
:1016C0007047C04600500640B0E9FF1F0C4B10B5F4
:1016D0001C682403A40F022C0CD0032C0DD0002C6A
:1016E00001D0002010BDFFF7E3FF80231B029842CA
:1016F000F7D1F7E7034B1868F4E7FA208000F1E729
:1017000000700440ACE9FF1F4168074A074BD15005
:101710000378C0209B040003116803400448014083
:101720000B4313607047C046007004404410000033
:10173000FFFFF3FF70B5074B1C7A1D7EFFF7A2FF7A
:101740000723E4B2EDB264081D401C406419E04078
:1017500070BDC04600400640074A137E5BB2002BB6
:1017600008DB90790007800F43425841034B404209
:10177000184070470148FCE700400640006CDC025E
:1017800010B50B4CA3791B079B0F012B07D0002B27
:101790000CD00020022B08D1064B186805E0FFF79B
:1017A00071FF237A1B075B0FD84010BD0248FCE78E
:1017B00000400640B0E9FF1F006CDC0210B5FFF7E7
:1017C000DFFF044A044BD158090F0131FEF7F6FE42
:1017D00010BDC046007004404410000070B51328CE
:1017E0000BD8FEF7E1FE0C0C160A160A0A23260A8D
:1017F0000A0A290A0A0A0A2C2C2F002070BDFFF7BA
:10180000BFFF124A124BD158090F0131FEF7D6FE25
:10181000F4E70E4D0E4CFFF7B3FF2959090F0131C4
:10182000FEF7CCFE29594903490FEEE7FFF74EFFBB
:10183000E4E7FFF73DFFE1E7FFF77CFFDEE7FFF7B7
:101840008BFFDBE7FA208000D8E7C0460070044039
:101850004410000070B503251F4B01789A798478F5
:1018600092082A40012A0DD101290BD15A780A4049
:10187000A24207D03F261A7832401A709A7992080D
:101880002A42FBD10E250726C27852002A401A723E
:1018900042790579D20135402A430125D2B21A7620
:1018A0005A782C40AA4322435A7040788A01024356
:1018B000D2B21A705A78520705D5022903D10A000C
:1018C00098791042FCD003209A7992080240914204
:1018D000FAD1002070BDC04600400640037902687E
:1018E0001B01D3188022FC33D96852040A4310B577
:1018F000DA608368002B01D0C168984710BD0000F2
:1019000010B5024B1868FFF7E9FF10BDBCE4FF1FDC
:1019100010B5024B5868FFF7E1FF10BDBCE4FF1F94
:1019200010B5024B9868FFF7D9FF10BDBCE4FF1F4C
:1019300010B5024BD868FFF7D1FF10BDBCE4FF1F04
:1019400003784278012B0AD17820002A06D0802320
:101950000C4A1B0211680B43136000207047094BAF
:101960000948196801401960002A05D180211868CA
:10197000C90101431960F0E71A6804490A401A6076
:10198000EBE7C0460C3000F0FF7FFFFFFFBFFFFF1B
:1019900010B5094C2168002904D0084B084A1B687F
:1019A000106898476168002904D0044B044A5B68BA
:1019B0005068984710BDC046CCE4FF1FD4E4FF1F19
:1019C000DCE4FF1F10B5FFF7E3FF10BD01238B40E0
:1019D0001178002903D142699A43426170475278D5
:1019E000002A04D18360426913434361F6E74360F0
:1019F000F9E70000C37810B5DB0602D483789B06B4
:101A000005D5044B1B689847BFF34F8F10BD024BA1
:101A1000F8E7C046ECE4FF1FF0E4FF1F054A00238F
:101A2000904204D0044BC018431E9841431C180038
:101A30007047C046006006400090F9BF034B43600A
:101A4000002343700372013303707047A0860100C6
:101A5000F0B500240126270085B002900191039281
:101A6000009476420025164A6B00D15A0398A14093
:101A7000FEF7A4FD019B984210D2181AB04213D36E
:101A80000135402DEFD1022C17D13C00009DA4015F
:101A90002543029BEDB25D7005B0F0BD019BC01AFD
:101AA000B042EDD2002803D0009527000600E7E7FA
:101AB000022CECD100952700E7E70134D2E7C046BD
:101AC0005C320000F8B504000D001700FFF7A6FF18
:101AD0001B4B8000C1581B4B0A0CD218012389B242
:101AE0008B4010687F26034313600022FF2322707F
:101AF0006270A270E370AF3B6271A371E271A27871
:101B000020003240A270A2791A43A271A279134335
:101B1000A3711223E3703A006968FFF799FF0F2160
:101B20006A78A379D201334013432A7ADBB28B431C
:101B30000A401343A3712B78DB01DBB2A370F8BD1D
:101B400054320000007004403821020083788B4337
:101B500083701839D0780840FCD17047C3788279F7
:101B6000DBB2520602D58022D20113438279D2061B
:101B700002D58022520113431800704770B505004A
:101B80000E001400FFF7EAFF830610D43023AA7872
:101B90001343AB7001232A7B1A42FCD0013C634201
:101BA0005C41002076003443E4B22C7170BD0148E2
:101BB000FCE7C0464C04000070B504000E001500A0
:101BC000FFF7CCFF2023184202D0A2781A421CD083
:101BD0003F226378DBB21A4062701422A1780A4374
:101BE000A2706370C046C046C046C046C046C046EC
:101BF0000123227B1A42FCD0013D6B425D41002053
:101C000076003543EDB2257170BD0148FCE7C04652
:101C10004C04000010B5034B03481968FFF7EAFEB7
:101C200010BDC046E4E4FF1F0060064010B5034B42
:101C300003485968FFF7DEFE10BDC046E4E4FF1F0D
:101C4000007006400123124A10B514682343136044
:101C5000022208240B785B0013408A78D2002240CD
:101C60001343CA782834920013434A781201224061
:101C7000134303600B794A792D3C22409B001343A8
:101C80008A797821A2400A401343436010BDC046C0
:101C90003880044000230122037043708370C370B6
:101CA0000271427183717047054A0023904204D04B
:101CB000044BC018431E9841431C18007047C0468F
:101CC0000040054000B0FABFF0B50F6889B0BB0016
:101CD000049304230093002304000D00059203974E
:101CE0000293069304990598FEF768FC86B2002ECD
:101CF00000D10136009905987143FEF75FFC009909
:101D0000C31B0193731C594305980793FEF756FCB8
:101D1000019B381A984202D26B469E8B0190019B20
:101D2000039A934203D80393009B06960293009B69
:101D300001330093049BDB190493009B212BD1D129
:101D400064213800FEF73AFC03235843039B984272
:101D50006AD32000FFF7A8FF344B8000C158344BF2
:101D60000A0CD218012389B28B4010680343136018
:101D7000A368304A1340029AA360043A2368032AF6
:101D800002D8802292021343F821E0202A4A490512
:101D90001A40029BC000013B1B060B401343069AEE
:101DA0005B0BD204D20C5B03134323602368234AEA
:101DB000134023606B7AA2681B02034020482979F4
:101DC000024004200A431A432B7A9B00034013432A
:101DD000002901D0102213438021A360EB798901EF
:101DE0005B0322680B4017490A4013432360AB7919
:101DF0005A1E934180225B4292051340124A9B185F
:101E0000626813436360AA7AA368002A02D0802222
:101E100012031343EA7A002A02D08022D20213432B
:101E20000020A36009B0F0BD0848FBE7DC320000E9
:101E300000700440FFFFF3FFFFFFFFE0FFFFFFDF45
:101E4000E8F8FFFFFFDFFFFF00C01FC02105000013
:101E5000E1235B0203600023037143718371C3714B
:101E6000037243728372C372704710B5C024026854
:101E70000B02240223401343FF2203608368914333
:101E80001943816010BD00004268CB0F5200520818
:101E9000DB071343094A1A40094B0B401343094A15
:101EA0001340C02212020A401343436040680840B6
:101EB000411E88410449404208407047FFFFE0BF8F
:101EC00000001F40FF3FFFFF1A05000010B5034B45
:101ED000034A1B6811680348984710BDFCE4FF1FC4
:101EE000F4E4FF1F0040054010B5034B034A1B6894
:101EF00051680348984710BDFCE4FF1FF4E4FF1F3E
:101F00000050054010B5154C6168002910D0144BE5
:101F1000DA6F920302D4DA6F520309D5DA6F9205B1
:101F200002D4DB6F5B0503D50E4B0F481B68984747
:101F30002168002910D00C4B1A68920302D41A6849
:101F4000520309D51A68920502D41B685B0503D5B4
:101F5000064B05481B68984710BDC046B4E9FF1FF3
:101F600004F0024000E5FF1F00F0024004E5FF1FFF
:101F700007B50222074901A800F02CFAEFF31083FD
:101F800072B6054A1360BFF36F8F01A8FFF7D8FC44
:101F900007BDC046062E000008E5FF1F60224378FB
:101FA00093431A00402313434370002070470000FE
:101FB00010B50C78002C06D14A782023002A1CD0BA
:101FC00082789A4382700721042243788B4313431B
:101FD000437083788B431C430A4B847019690A430E
:101FE0001A614378BFF34F8F30BFBFF36F8F4078D4
:101FF000054B0007C017184010BD8278134383704B
:10200000E1E7C04600ED00E03C0F0000064AC3785F
:10201000890010B58958DB0603D5044B1B68984727
:1020200010BD034BFAE7C0460CE5FF1F14E5FF1F88
:1020300018E5FF1F10B500210148FFF7E7FF10BDAD
:102040000060074010B501210148FFF7DFFF10BD18
:1020500000700740031E04D0034BC018431E984174
:10206000831C18007047C0460040F9BFF7B50E68E2
:1020700004000F00100031010092FEF79FFA85B2B4
:10208000002D00D10135009B31005B00180000934A
:10209000FEF794FA6901401A83B2C91800980193B7
:1020A000FEF78CFA331A0093864201D2831B009309
:1020B00064213000FEF782FA03235843009B9842C4
:1020C0003ED32000FFF7C6FF1E4B8000C1581E4BB9
:1020D0000A0CD218012389B28B40106803431360A5
:1020E0000C22E3789343E3701F2321782A0A994353
:1020F0000A43EDB222706570A07A019A98431A40A3
:10210000104317220421A072A37893437A79920096
:102110000A4039791343002902D010220A4313439D
:10212000A370E378BA79DBB2002A01D00822134306
:10213000FA79002A01D0042213430020E370FEBD87
:102140000248FCE7E432000000700440F5030000A0
:10215000E1235B0203600023037143718371C37148
:1021600070470000074B194003780A0A0B43DBB2A3
:102170000370C378090C1343DBB2C370837919432E
:102180008171704740F00F0010B5402442790B0A6E
:10219000A2431343DBB243711723194201D00379E1
:1021A000C3790B0701D50379C3790379407900021C
:1021B00018430140481E814148420149084010BD72
:1021C000EE0300000B4B0C4A0C4910B50C48D150E3
:1021D000FFF740FB0B48FFF797FA2A230A4C2370BE
:1021E0002000FFF7DBFEE378042BFCD1074B084A05
:1021F0001A6010BD44100000007004400000071079
:10220000F0320000F832000000E0074030E0FF1F2D
:1022100080841E008022264BD200196830B50A4304
:102220001A608022196812010A431A608022196814
:1022300052010A431A608022196892000A431A6008
:102240008022196892010A431A60C02219481A4B69
:10225000C168920019401143C1600169174D1940CE
:10226000114301618020164940000C691C40044361
:102270000C614C681C4004434C602C681C400443B7
:102280002C60104DAC691C401443AC61EC691C40DF
:102290001443EC610C4D6C6C1C4014436C642C6C4E
:1022A0001C4022432A64CA6C13401843C86430BDE2
:1022B0003880044000B00440FFF8FFFF00A0044055
:1022C0000090044000C0044000D004400823064AA7
:1022D0009178194202D091780B43937088230021A2
:1022E000024A5B01D150704700D0074000700440A3
:1022F0000C2210B5114B997911421CD099791140DB
:10230000042911D11B7A03391B075B0F99400C4834
:10231000FEF754F90B4B0C4AD158090F0131FEF767
:102320004DF90A4B186010BD9B791340082BFAD168
:1023300080200002EEE70648ECE7C0460040064079
:1023400000127A00441000000070044030E0FF1FCB
:10235000006CDC0210B50A22002100F031F910BD3A
:10236000084B10B50400002B02D0002100E000BF94
:10237000054B1868836A002B00D09847200000F0B6
:102380002FFDC046000000000033000070B500269D
:102390000C4D0D4C641BA410A64209D1002601F07F
:1023A00081F80A4D0A4C641BA410A64205D170BDE9
:1023B000B300EB5898470136EEE7B300EB58984767
:1023C0000136F2E7C4340000C4340000C434000015
:1023D000C8340000002310B59A4200D110BDCC5C77
:1023E000C4540133F8E710B5884202D98B189842DB
:1023F00003D3002307E08B5C8354013AFBD210BD6A
:10240000CC5CC45401339A42FAD1F8E703001218A5
:10241000934200D1704719700133F9E70EB400B54B
:102420000B499CB01DAB029006900791049109489E
:10243000094904CB0591006802A9019300F0F4F961
:102440000023029A13701CB008BC03B01847C046A2
:10245000FFFFFF7F34E0FF1F0802FFFFC9B20378D0
:10246000002B04D08B4200D170470130F7E74B427C
:10247000594149420840F7E703000A7801311A70D0
:102480000133002AF9D1704710B50378002B0FD122
:102490000B785A4253415B42184010BD0023CA5C7E
:1024A000002AFAD0C45C944201D10133F7E701302D
:1024B0000378002BF2D11800EFE70000F0B51F0001
:1024C0000E0087B00590019102920C98347800F0CC
:1024D0008BF8082200194378751C134036D12D2C37
:1024E00036D1B51C74780126002F62D0102F09D187
:1024F000302C07D120222B789343582B54D110270E
:102500006C7802352D4B3900F31818000393FEF751
:10251000DBF8049101210023494202008C46180097
:102520002100303909291AD80C00A74223DD591C93
:1025300009D06346824206D302D10499A14202DB4C
:102540000123784320182C780135E9E72E00BCE7F9
:102550002B2C01D01E00C7E7B51C7478FAE72100C8
:102560004139192901D8373CDFE7210061391929A0
:1025700001D8573CD9E75A1C08D1059A2333136078
:10258000029B0398002B09D107B0F0BD002E00D0AC
:102590004042029A002AF7D0002B01D06B1E019313
:1025A000029B019A1A60EFE73024002FAAD1082776
:1025B000A8E7302C9ED00A27A4E7C046FFFFFF7F84
:1025C00037B51300064A05001068046A002C00D1D4
:1025D000044C0A0000942900FFF770FF3EBDC0467E
:1025E00034E0FF1F98E0FF1FEC300068704782B0B6
:1025F000002900D101A9101E06D0002B06D01378A7
:102600000B601078431E984102B070470220404290
:10261000FAE7000070B50500002910D00C1F2368F0
:10262000002B00DAE418280000F09BFB1D4A136819
:10263000002B05D163601460280000F093FB70BD8F
:10264000A34209D9216860188342F3D118685B68F6
:1026500041182160EEE713005A68002A01D0A24217
:10266000F9D919685818A0420BD1206809185818D0
:1026700019608242E0D110685268411819605A60AE
:10268000DAE7A04202D90C232B60D5E72168601855
:10269000824203D1106852684118216062605C6018
:1026A000CAE7C0461CE5FF1F032370B5CD1C9D4340
:1026B000083506000C2D1ED20C25A9421DD830006D
:1026C00000F04FFB254A14682100002919D1244C41
:1026D0002368002B03D1300000F01AFB2060290092
:1026E000300000F015FB431C2BD10C23300033606D
:1026F00000F038FB03E0002DDFDA0C23336000200C
:1027000070BD0B685B1B19D40B2B03D90B60CC1865
:10271000256003E04B688C420DD11360300000F05F
:1027200021FB200007220B30231D9043C31AE7D062
:102730005A42E250E4E763600C00EFE70C0049689E
:10274000C3E70323C41C9C43A042E1D0211A3000FC
:1027500000F0DEFA431CDBD1C7E7C0461CE5FF1FD3
:1027600020E5FF1FF0B58E6885B007000C000392CE
:1027700001939E423CD890238A89DB001A4234D0D0
:102780000325096923685B1A0293636902985D4314
:10279000EB0F5D19019B6D1001331B18AB4200D983
:1027A0001D00530532D529003800FFF77DFF061EB6
:1027B00009D10C233B6040230120A28940421343EE
:1027C000A38105B0F0BD029A2169FFF703FEA3893A
:1027D000144A1A4080231343A381029B2661F618F2
:1027E00026606561019EED1AA560019B9E4200D99D
:1027F000019E320003992068FFF7F5FDA3680020D1
:102800009B1BA36023689E192660DAE72A00380024
:1028100000F0A9FA061EE0D121693800FFF7FAFEA0
:10282000C7E7C0467FFBFFFFF0B59FB0029005935E
:102830008B890F0016001B0611D50B69002B0ED1DA
:102840004021FFF731FF38603861002805D10C23A3
:10285000029A013813601FB0F0BD40237B61002352
:1028600006AC6361203363761033A37635002B7892
:10287000002B01D0252B46D1AB1B04930CD032008A
:1028800039000298FFF76EFF431C00D1AEE0626989
:10289000049B9446634463612B78002B00D1A5E030
:1028A000012200235242626002A9543252186E1C67
:1028B0002360E360A3601370A36531780522544858
:1028C00000F044FA751C00281FD12268D30604D5F5
:1028D000532302A95B1820211970130704D5532331
:1028E00002A95B182B21197033782A2B16D03500DA
:1028F00000210A20E3682A786E1C303A092A4ED952
:10290000002918D010E00135B1E7414B2268C01A08
:1029100001238340134323602E00CEE7059B191D3E
:102920001B680591002B01DB099304E05B42E36027
:102930000223134323602B782E2B0AD16B782A2B8A
:1029400035D1059B02351A1D1B680592002B2BDB28
:102950000793304E29780322300000F0F7F9002861
:1029600006D04023801B8340226801351343236037
:102970002978062228486E1C217600F0E7F9002805
:102980003CD0264B002B25D10722059B07339343D0
:10299000083305936369039A9B18636166E74343B1
:1029A00001219B183500A6E701235B42D0E70023F5
:1029B0000A201A000135636029786E1C3039092914
:1029C00003D9002BC5D00792C3E742430123521815
:1029D0003500F1E705AB00933A00114B2100029856
:1029E00000E000BF0390039B0133D3D1BB890B9858
:1029F0005B0600D42FE7012040422CE705AB009393
:102A00003A00074B2100029800F07AF8EAE7C04646
:102A10006E330000743300007833000000000000C3
:102A200065270000F7B5150001938A680B690090CF
:102A30000C00934200DA130022002B60433212781C
:102A4000002A01D001332B6023689B0602D52B6836
:102A500002332B60062723681F4027D0230043330F
:102A60001B785A1E93412268920630D422000199A5
:102A700043320098089EB047431C25D006232068A7
:102A80002A68E16803400025042B03D18D1AEB432B
:102A9000DB171D40A3682269934201DD9B1AED18E4
:102AA0000027BD4220D1002010E00137E3682A68EA
:102AB0009B1ABB42D2DD22000123193201990098F2
:102AC000089EB047431CF0D101204042FEBD30209B
:102AD000E1184331087021005A1C45310978A218C9
:102AE000433202331170C1E7220001231A320199E7
:102AF0000098089EB047431CE6D00137D1E700009C
:102B0000F0B589B004920A00433205930390029213
:102B10000A7E0C000E9B6E2A00D186E01FD8632A25
:102B200033D008D8002A00D18CE0582A4DD0250097
:102B300042352A7030E0642A01D0692AF7D1196839
:102B400025680A1D280629D508681A60002803DAB6
:102B50002D23029A404213706B4E0A274FE0732ACE
:102B600074D008D86F2A1FD0702AE0D120220968BB
:102B70000A43226003E0752A16D0782AD7D12200B2
:102B8000782145321170614E22E025001A684235E5
:102B9000111D196013682B70012365E008681A6025
:102BA0006906D3D500B2D1E719682568081D1860F9
:102BB00008682E0605D5544E08276F2A1BD00A2711
:102BC00019E06D06F7D580B2F5E745314E4E0A7033
:102BD00018682268011D00681960150621D5D30701
:102BE00002D520231A4322601027002803D1202376
:102BF00022689A4322602300002243331A706368DC
:102C0000A360002B58DB0422216891432160002837
:102C100054D1029D002B5AD02500337842352B70B9
:102C200055E05506DBD580B2D9E71A680D68101D4E
:102C30004969186013682E0601D5196002E06D0617
:102C4000FBD519800023029D23614FE01A68111DF6
:102C50001960156800216268280000F077F80028E4
:102C600001D0401B6060636823610023029A1370E7
:102C70003CE023692A0004990398059DA847431C5A
:102C80003ED023689B0715D4079BE068984239DA49
:102C9000180037E022000123193204990398059E99
:102CA000B047431C2CD00135E368079A9B1AAB420E
:102CB000F0DCE9E70025F7E70028ADD0029D3900F8
:102CC000FDF702FD735C013D2B700028F7D1082F42
:102CD00009D12368DB0706D563682269934202DCC9
:102CE0003023013D2B70029B5B1B2361059B07AAD0
:102CF00000932100049B0398FFF794FE431CB8D176
:102D00000120404209B0F0BD7F3300009033000045
:102D1000002370B5064C05000800236000F052F84F
:102D2000431C03D12368002B00D02B6070BDC0462C
:102D3000BCE9FF1F0B1E04D0FF2A04D98A230360BD
:102D40008B3B180070470A700123FAE7C9B282185A
:102D5000904201D10020704703788B42FBD00130B4
:102D6000F6E770477047F8B507000D001600002918
:102D700005D11100FFF798FC04002000F8BD002ADF
:102D800003D1FFF747FC3400F7E700F012F82C00FE
:102D9000B042F2D231003800FFF786FC041EECD0BE
:102DA00029003200FFF716FB29003800FFF732FC3C
:102DB000E3E70B1F1B68181F002B01DA0B58C01824
:102DC00070470000044A1368002B00D1034B181809
:102DD000106018007047C04624E5FF1FC0E9FF1FC0
:102DE000FEE7C046363530302E3533000000003067
:102DF000323533342E3535340000363530302E3010
:102E0000323335390000010141542B257325730DF0
:102E10000A0073656E6420746F206D6F64756C6555
:102E20003A200D0A004E5242004552524F52004F76
:102E30004B0043434C4B004346554E00434D4545E4
:102E40003D004E534F52463D302C32004E534F53AF
:102E5000543D004E534F43523D22444752414D2270
:102E60002C31372C34323030302C31004347504134
:102E700044445200435351004347414354004347A5
:102E800044434F4E543D312C224950222C22222CB7
:102E900022220043455245473F00434F5053004EC6
:102EA00050494E3D302C2231323334220043474DBD
:102EB00049004154004E474C4C0050475356004780
:102EC0006F74204750530D0A004461746120696E8D
:102ED00076616C69642C2077616974696E6720661D
:102EE0006F722076616C696420646174610D0A0000
:102EF000256C640D0A0025303278000101526569A5
:102F00006E6465657220496F542068617320737424
:102F100061727465640D0A436F6D6D616E64202289
:102F2000696F742220746F207374617274206578E5
:102F300065637574696E67207265696E6465657234
:102F400020747261636B206379636C650D0A436F53
:102F50006D6D616E642022677073696E666F3D31BE
:102F600022206F722022677073696E666F3D302277
:102F700020746F207377697463682047505320640E
:102F8000617461206F6E2F6F66660D0A004F7220AC
:102F9000656E746572206E6F726D616C2041542095
:102FA000636F6D6D616E6473206865726520666F16
:102FB0007220534152412D4E320D0A4D6F64756C93
:102FC000657320706F7765726564206F6E20616E27
:102FD0006420626F6F74696E67206E6F77210D0ACF
:102FE0000031313131310066616C736500576F6BB0
:102FF000656E20627920414343454C2C20726569FF
:103000006E6465657220697320212121414C495607
:10301000452121210D0A0077616B652077617320BE
:103020003020676F696E6720746F20736C65657000
:103030000D0A0077616B65206F6E2031206A65652F
:103040007375732074756C65650D0A00747275650F
:1030500000696F74005374617274696E6720526501
:10306000696E6465657220496F54206379636C658D
:103070000D0A00677073696E666F3D31006770738B
:10308000696E666F3D300072666F66660072666FCD
:103090006E00B5620073656E6420746F2067707394
:1030A0000D0A00466F756E64205542582072657394
:1030B000706F6E73650D0A00526F67657220696EDE
:1030C000636C756465206D61696E2E630D0A004343
:1030D00046554E3D300030323533302E3536393599
:1030E00031003D312C310050445020312061637457
:1030F0006976617465640D0A005265676973746569
:103100007265640D0A004346554E3D3100536F63AE
:103110006B65742072656164790D0A00504450201B
:10312000636F6E74657874203120646566696E65BE
:10313000640D0A002B43455245473A20302C31009C
:1031400043455245475F4F4B0D0A002B55464F54A0
:103150004153007265626F6F7465640D0A00746993
:103160006D656F7574206572726F720D0A00302C78
:10317000223136372E39392E3230372E3133332241
:103180002C313838342C25642C22257322007365A9
:103190006E74002B4E50494E3A20224F4B22006154
:1031A000636B0D0A0069702020666F756E640D0AEE
:1031B000007B0D0A0D0A20202020227365726961B0
:1031C0006C6E756D626572223A222573222C0D0A8F
:1031D0000020202020226C6174223A222573222CA8
:1031E0000D0A0020202020226C6F6E67223A2225D3
:1031F00073222C0D0A002020202022737461747524
:1032000073223A222573222C0D0A0020202020222E
:1032100062617474657279223A222564220D0A0D66
:103220000A7D007265696E646565723132333400FF
:103230007265696E64656572007265696E64656564
:1032400072747261636B65720000000080841E00FE
:1032500000127A0006003410070034101400160023
:1032600018001A001C001E00220028001C0020006C
:10327000240028002C0030003800440030003800C2
:103280004000480050005800680080005000600076
:10329000700080009000A000C000F000A000C000FE
:1032A000E0000001200140018001E00140018001B7
:1032B000C0010002400280020003C003800200033C
:1032C0008003000480040005000680070005000656
:1032D000000700080009000A000C000F1400381055
:1032E0001500381000000000000000000C00341031
:1032F00001020000000000000000000000000100CA
:1033000038E0FF1F00000000000000000000000087
:1033100000000000000000000000000000000000AD
:10332000000000000000000000000000000000009D
:10333000000000000000000000000000000000008D
:10334000000000000000000000000000000000007D
:10335000000000000000000000000000000000006D
:10336000000000004300504F534958002E00232D09
:10337000302B2000686C4C0065666745464700307E
:1033800031323334353637383941424344454600CB
:1033900030313233343536373839616263646566CB
:1033A0000000202020202020202020282828282835
:1033B000202020202020202020202020202020200D
:1033C0002020881010101010101010101010101065
:1033D0001010040404040404040404041010101065
:1033E0001010104141414141410101010101010120
:1033F0000101010101010101010101010110101090
:1034000010101042424242424202020202020202F2
:103410000202020202020202020202020210101062
:10342000102000000000000000000000000000006C
:10343000000000000000000000000000000000008C
:10344000000000000000000000000000000000007C
:10345000000000000000000000000000000000006C
:10346000000000000000000000000000000000005C
:10347000000000000000000000000000000000004C
:10348000000000000000000000000000000000003C
:10349000000000000000000000000000000000002C
:1034A00000000000F8B5C046F8BC08BC9E46704756
:0C34B000F8B5C046F8BC08BC9E4670474A
:0834BC009CCFFF7F010000001E
:0434C40039040000C7
:0434C80011040000EB
:1034CC00932E0000782E00007E2E00006C2E000043
:1034DC009F2E0000532E00004C2E0000D007000041
:1034EC00393200002332000030320000303200004C
:1034FC0000127A0038E0FF1F0000000024330000A7
:10350C004433000004330000000000000000000001
:10351C00000000000000000000000000000000009F
:10352C00000000000000000000000000000000008F
:10353C00000000000000000000000000000000007F
:10354C00000000000000000000000000000000006F
:10355C00000000000000000043000000000000001C
:10356C00000000000000000000000000000000004F
:10357C0000000000000000004300000000000000FC
:10358C00000000000000000000000000000000002F
:10359C0000000000000000004300000000000000DC
:1035AC00000000000000000000000000000000000F
:1035BC0000000000000000004300000000000000BC
:1035CC0000000000000000000000000000000000EF
:1035DC00000000000000000043000000000000009C
:1035EC0000000000000000000000000000000000CF
:1035FC00000000000000000043000000000000007C
:10360C0000000000000000000000000000000000AE
:10361C00000000000000000043000000000000005B
:10362C00000000000000000000000000000000008E
:10363C000000000000000000352D0000EF25000008
:10364C0000000000A13300006C330000242E0000A9
:10365C00242E0000242E0000242E0000242E000016
:10366C00242E0000242E0000242E0000242E000006
:10367C00FFFFFFFFFFFFFFFFFFFFFFFFFFFF00004C
:10368C0001004153434949000000000000000000C4
:10369C00000000000000000000000000000000001E
:1036AC0000004153434949000000000000000000A5
:1036BC0000000000000000000000000000000000FE
:0436CC0000000000FA
:04000003000004D124
:00000001FF
