:1000000000600020D10400001D0500002105000053
:1000100000000000000000000000000000000000E0
:1000200000000000000000000000000025050000A6
:100030000000000000000000290500002D05000060
:100040003105000035050000390500003D050000C0
:100050001905000019050000190500001905000028
:100060004105000045050000490500004D05000060
:100070005105000055050000590500001905000054
:1000800019050000190500001905000019050000F8
:100090001905000019050000190500005D050000A4
:1000A00019050000190500001905000019050000D8
:1000B00019050000190500001905000019050000C8
:10040000FFFFFFFFFFFFFFFFFFFFFFFFFE3FFFFFBD
:1004100010B5064C2378002B07D1054B002B02D0DA
:10042000044800E000BF0123237010BD64E0FF1FFB
:100430000000000058090000044B10B5002B03D049
:100440000349044800E000BF10BDC04600000000A2
:1004500068E0FF1F58090000164B002B00D1144B19
:100460009D46402292029A1A924600218B460F46E0
:100470001348144A121A00F05BFA0F4B002B00D0FD
:1004800098470E4B002B00D0984700200021040015
:100490000D000D48002802D00C4800E000BF00F01D
:1004A00023FA2000290000F07FF800F007FAC04688
:1004B00000000800006000200000000000000000B4
:1004C00064E0FF1FE4E0FF1F0000000000000000E8
:1004D00072B60A480A4901600A6882F30888094826
:1004E00080470949094A0A4B9B1A03DD043BC85857
:1004F000D050FBDC62B607488047000008ED00E002
:1005000000000000990800008009000000E0FF1FC3
:1005100064E0FF1F590400001148004711480047DC
:10052000114800471148004711480047114800474B
:10053000114800471148004711480047114800473B
:10054000114800471148004711480047114800472B
:10055000114800471148004711480047114800471B
:10056000190500001D0500002105000025050000FB
:10057000290500002D05000095060000A5060000D5
:10058000B5060000C506000039070000510700004D
:1005900035080000450800006907000085070000D5
:1005A00009070000A107000010B500F073F900F082
:1005B00053F900F04FF9C046FDE700004168074AD3
:1005C000074BD1500378C0209B04000311680340FF
:1005D000044801400B4313607047C046007004405C
:1005E00044100000FFFFF3FF70B503251F4B017897
:1005F0009A79847892082A40012A0DD101290BD1D9
:100600005A780A40A24207D03F261A7832401A7020
:100610009A7992082A42FBD10E250726C278520009
:100620002A401A7242790579D20135402A430125C0
:10063000D2B21A765A782C40AA4322435A70407894
:100640008A010243D2B21A705A78520705D502299C
:1006500003D10A0098791042FCD003209A799208BD
:1006600002409142FAD1002070BDC04600400640D1
:10067000037902681B01D3188022FC33D968520425
:100680000A4310B5DA608368002B01D0C16898472F
:1006900010BD000010B5024B1868FFF7E9FF10BD50
:1006A00080E0FF1F10B5024B5868FFF7E1FF10BD57
:1006B00080E0FF1F10B5024B9868FFF7D9FF10BD0F
:1006C00080E0FF1F10B5024BD868FFF7D1FF10BDC7
:1006D00080E0FF1F10B5094C2168002904D0084BA9
:1006E000084A1B68106898476168002904D0044BC9
:1006F000044A5B685068984710BDC04690E0FF1FF1
:1007000098E0FF1FA0E0FF1F10B5FFF7E3FF10BD4B
:10071000C37810B5DB0602D483789B0605D5044B5D
:100720001B689847BFF34F8F10BD024BF8E7C046D8
:10073000B0E0FF1FB4E0FF1F10B5034B034819687A
:10074000FFF7E6FF10BDC046A8E0FF1F00600640AF
:1007500010B5034B03485968FFF7DAFF10BDC046D8
:10076000A8E0FF1F0070064010B5034B034A1B684A
:1007700011680348984710BDC0E0FF1FB8E0FF1F95
:100780000040054010B5034B034A1B6851680348FD
:10079000984710BDC0E0FF1FB8E0FF1F00500540A4
:1007A00010B5154C6168002910D0144BDA6F920314
:1007B00002D4DA6F520309D5DA6F920502D4DB6FE7
:1007C0005B0503D50E4B0F481B689847216800292D
:1007D00010D00C4B1A68920302D41A68520309D540
:1007E0001A68920502D41B685B0503D5064B0548C1
:1007F0001B68984710BDC046DCE0FF1F04F00240B4
:10080000C4E0FF1F00F00240C8E0FF1F064AC378A3
:10081000890010B58958DB0603D5044B1B6898473F
:1008200010BD034BFAE7C046CCE0FF1FD4E0FF1F2A
:10083000D8E0FF1F10B500210148FFF7E7FF10BD0A
:100840000060074010B501210148FFF7DFFF10BD30
:100850000070074070470000074A084B084910B570
:100860000848D150FFF7C0FE0748FFF7A7FE074B27
:10087000074A1A6010BDC0460070044044100000D2
:1008800000000710440900004C09000000E0FF1FB1
:10089000006CDC02704700000823064A9178194278
:1008A00002D091780B43937088230021024A5B01A8
:1008B000D150704700D0074000700440084B10B57D
:1008C0000400002B02D0002100E000BF054B186897
:1008D000836A002B00D09847200000F031F8C04612
:1008E000000000005409000070B500260C4D0D4CAE
:1008F000641BA410A64209D1002600F02DF80A4D71
:100900000A4C641BA410A64205D170BDB300EB587D
:1009100098470136EEE7B300EB5898470136F2E707
:100920007809000078090000780900007C090000BF
:1009300003001218934200D1704719700133F9E790
:10094000FEE7C046000201000001000000000000B8
:100950000000010004E0FF1FF8B5C046F8BC08BC69
:100960009E467047F8B5C046F8BC08BC9E46704726
:08097000E8FAFF7F010000001E
:04097800390400003E
:04097C001104000062
:1009800000127A00000000000000000000000000DB
:100990000000000000000000000000000000000057
:1009A0000000000000000000000000000000000047
:1009B0000000000000000000000000000000000037
:1009C0000000000000000000000000000000000027
:1009D0000000000000000000000000000000000017
:0409E0000000000013
:04000003000004D124
:00000001FF
