:1000000000000320C50400001105000015050000D4
:100010000D0500000D0500000D05000000000000AA
:1000200000000000000000000000000019050000B2
:100030000D050000000000001D0500002105000066
:1000400025050000290500002D05000031050000F0
:1000500035050000390500003D05000041050000A0
:1000600045050000490500004D0500005105000050
:1000700055050000590500005D0500006105000000
:10008000650500000D0500000D0500000D050000D0
:100090000D050000C90C00000D0500000D05000055
:1000A000690500006D050000710500007505000080
:1000B000790500007D050000810500008505000030
:1000C000890500008D0500009105000095050000E0
:1000D00099050000110D0000A10500000D050000AC
:1000E0000D0500000D0500000D0500000D050000C8
:1000F0000D0500000D0500000D0500000D050000B8
:100100000D0500000D0500000D0500000D050000A7
:100110000D0500000D0500000D0500000D05000097
:100120000D0500000D0500000D0500000D05000087
:100130000D0500000D0500000D0500000D05000077
:100140000D050000A5050000A9050000AD05000093
:10015000B1050000B50500000D0500000D0500000B
:100160000D0500000D050000B9050000BD050000EB
:10017000C1050000C5050000C9050000CD0500004F
:10018000D1050000D5050000BD1200005D12000081
:100190007D1200009D1200000D0500000D050000FD
:1001A0000D0500000D0500000D0500000D05000007
:1001B0000D0500000D0500000D0500000D050000F7
:1001C0000D0500000D0500000D0500000D050000E7
:1001D0000D0500000D0500000D0500000D050000D7
:1003F0000D0500000D0500000D050000FFFFFFFFCB
:10040000FFFFFFFFFFFFFFFFFFFFFFFFFEFFFFFFFD
:1004100010B5054C237833B9044B13B10448AFF33E
:1004200000800123237010BD7800FF1F0000000032
:10043000202E000008B5034B1BB103490348AFF35E
:10044000008008BD000000007C00FF1F202E00007F
:10045000154B002B08BF134B9D46A3F5803A002196
:100460008B460F461348144A121A01F04FFB0F4BEC
:10047000002B00D098470E4B002B00D0984700204F
:10048000002104000D000D48002802D00C48AFF3F5
:10049000008001F0F3FA2000290000F09BFB01F03E
:1004A000D9FA00BF0000080000000320000000008F
:1004B000000000007800FF1FB801FF1F00000000CF
:1004C0000000000072B60A480A4901600A6882F317
:1004D0000888094880470949094A0A4B9A42BEBF21
:1004E00051F8040B42F8040BF8E762B6064880475F
:1004F00008ED00E000000000291A0000482E00006E
:100500000000FF1F7800FF1F51040000FFF7FEBF2F
:1005100035480047354800473548004735480047CB
:1005200035480047354800473548004735480047BB
:1005300035480047354800473548004735480047AB
:10054000354800473548004735480047354800479B
:10055000354800473548004735480047354800478B
:10056000354800473548004735480047354800477B
:10057000354800473548004735480047354800476B
:10058000354800473548004735480047354800475B
:10059000354800473548004735480047354800474B
:1005A000354800473548004735480047354800473B
:1005B000354800473548004735480047354800472B
:1005C0003448004733480047324800473148004725
:1005D000304800473048004730480047304800471F
:1005E000304800473048004711050000150500005D
:1005F000190500001D050000210500001D11000067
:100600003111000045110000591100006D1100006A
:100610008111000095110000A9110000BD1100001A
:10062000D1110000E5110000F91100000D120000C9
:100630002112000035120000491200000D050000D3
:1006400021150000351500004D100000611000005C
:10065000BD150000DD1500000D0500009D1800000F
:100660000D050000C91800000D050000F518000078
:100670000D050000211900000D0500007510000097
:100680004D1900000D050000791900000D0500004E
:1006900049150000D9120000FD1500000D050000ED
:1006A0000D0500000D0500000D050000034613F8C0
:1006B000012B002AFBD1181A0138704700000000F6
:1006C00001F0FF01102A2BDB10F0070F08D010F803
:1006D000013B013A8B422DD010F0070F42B3F6D107
:1006E000F0B441EA012141EA014122F007047FF020
:1006F00000070023F0E80256083C85EA010586EA77
:10070000010685FA47F5A3FA87F586FA47F6A5FAB2
:1007100087F68EB9EED1F0BC01F0FF0102F00702BE
:1007200032B110F8013B013A83EA010313B1F8D169
:100730000020704701387047002D06BF354603384A
:10074000073815F0010F07D1013015F4807F02BF83
:10075000013015F4C03F0130F0BC0138704700BFD4
:1007600010B414460A4621465DF8044B00F058B810
:1007700010B503461446084639B1013B012B04D895
:10078000114600F066F8204610BD4FF0FF34FAE73E
:100790000B4618B91146184600F05DB84FF0FF300F
:1007A00070470000F0B505790F4C1646012D026820
:1007B000257185B00F46226001D0062D11D1684603
:1007C00000F0D6FF324669462068009700F04CFFE3
:1007D0002368DA7842F00802DA70DA7842F004022C
:1007E000DA7005B0F0BD00BF9400FF1F10B50B4BD1
:1007F00004461879012801D006280DD118682AB1BD
:100800000A46214601F009F8002010BD0A4621469B
:10081000BDE8104001F00CB80120F6E79400FF1F7E
:1008200013B5144600901A468DF80410684600234C
:100830002146FFF7B7FF002002B010BD10B50C46EF
:1008400021B120B10122FFF7D1FF00B100242046E1
:1008500010BDFFF7F3BFF8B505460F460024BC42B4
:1008600004D315D100232B552046F8BD2E190022A4
:1008700001213046FFF7BAFF70B92B5D0D2B01D077
:100880000A2B03D124B934704FF0FF340134E6E76A
:10089000254400236B70E7E74FF0FF34E4E708B529
:1008A0001D212A2000F0D8F803215B20BDE8084074
:1008B00000F0D2B808B52D2000F0FCF860F07B0104
:1008C000C9B22D2000F0C8F82E2000F0F3F840F057
:1008D0000401C9B22E2000F0BFF82C2000F0EAF885
:1008E00040F00801C9B22C2000F0B6F8152000F045
:1008F000E1F840F07801C9B2152000F0ADF81720FA
:1009000000F0D8F860F07001C9B21720BDE80840C7
:1009100000F0A2B81FB5174A174C136843F00063E4
:100920001360164B1A6842F400621A601A6842F4A7
:1009300080621A60204600F075FA03228DF80520C7
:1009400001218DF807208DF80820042200238DF85E
:1009500006108DF80B1020460DEB02018DF80430C7
:100960008DF809208DF80A308DF80C3000F0F6F97A
:1009700004B010BD3C80044000B003403880044007
:1009800070B59AB00D4604466422002101A801F01A
:10099000BDF82B4622461149114D124E01A801F017
:1009A000D5F801A800F006F92B78002BFCD00E48F2
:1009B00001F0B4F8002431460B482C7001F0E6F841
:1009C0000028F1D00848FFF771FE0246064821468C
:1009D0001AB0BDE8704001F099B800BFB02C00001B
:1009E0009D00FF1FBA2C00006801FF1F1FB5164AAB
:1009F000136843F040031360536843F4005353609B
:100A000000F006FB044601A800F0B6FC01230F4AE3
:100A10008DF8043002920023224601A90C488DF87B
:100A200005308DF80C3000F0E1FC0A4A136E23F417
:100A3000E06343F4A0631366536E23F4E06343F46E
:100A4000A063536604B010BD34800440400D030021
:100A50000060064000D0044038B5002205460C4630
:100A600013481D2100F01CFD114BDA789007FCD5CE
:100A7000DA7842F00202DA709A7842F010029A7044
:100A80001D710B4B1A46D9788907FCD5D97841F0EE
:100A90000201D9701C71D3789B07FCD5D378044828
:100AA00043F00203D370BDE8384000F0E1BC00BF62
:100AB0000060064010B5002204461D211B4800F0CE
:100AC000EFFC1A4BDA789007FCD5DA7842F0020294
:100AD000DA709A7842F010029A701C71134BDA782F
:100AE0009107FCD5DA78114842F00202DA701D2134
:100AF000012200F0EEFC0D4BDA789207FCD50222C1
:100B0000DA709A78094C02F0E7029A709A7842F00B
:100B100008029A701B79E3789B07FCD50223E370E7
:100B2000024800F0A5FC207910BD00BF006006401F
:100B3000012800D8704700BF0138F9E738B5094CE3
:100B4000094D204600F030FD0123002221462846B1
:100B500023716371A27100F001FD41F28733AB6034
:100B600038BD00BF9C01FF1F0000044070B500F0BD
:100B70004FFA0D4C0D4D0646204600F0F9FD4FF49E
:100B8000165332462360214601232846E37223731D
:100B900000F06AFD4FF40051284600F0F8FD044BC8
:100BA00020225A6070BD00BF5801FF1F00D00640D0
:100BB00000E100E090F900300549421C03B970479C
:100BC00008790006FCD5DBB2CB7112F9013BF5E7E1
:100BD00000D0064008B52E4A2E4C93782E4E2F4D4D
:100BE00043F0080393702E4B4FF400121A6000F08C
:100BF000D7FE00F0C7FEFFF7F9FEFFF78BFEFFF709
:100C0000B5FFFFF757FEFFF74AFEFFF797FF254BAB
:100C100002221A70244B01221A70244B1A7942F0D6
:100C200001021A719A7842F020029A701A7A42F000
:100C30004A021A721E4A136823F0800343F04003ED
:100C40001360136823F0800343F001031360204610
:100C5000184A152100F050FB2046164A162100F0D4
:100C60004BFB4FF48003A3601348FFF761FF636001
:100C7000124C31462846FFF783FE2046FFF758FF07
:100C80000F491048FFF77CFE2046FFF751FFF0E7C1
:100C900000D0074040F00F40BF2C00000000FF1FB5
:100CA00000E100E000E007409A01FF1F00C007409C
:100CB00000000440BD2C0000A0860100CC9303007E
:100CC000C82C00000600FF1F0D4BDA79D20710D5A3
:100CD0000C4B01221A700C4A136843F00103136095
:100CE0000A4A136843F080031360054B04229A718B
:100CF00070479B795B0742BF024B02221A70F4E7F0
:100D000000C007409E00FF1F3880044000000440E0
:100D100010B50D4C2021204600F05FFD0B4B0C4818
:100D20004FF40012DA600B4AE1791378C9B2C1546A
:100D300013780133DBB20A29137004D1064B012169
:100D400019700023137010BD00D0064040F00F4012
:100D50006801FF1F9C00FF1F9D00FF1F2A4B984248
:100D600030B54BD003F5002398420CBF012302237A
:100D7000264A52F82340230C03F1804303F58E23C7
:100D8000A4B21D680122A2402A431A600B794A7856
:100D90004C799B0003F00C0302F003021A43CB785A
:100DA000042C4FEA431318BF42F0100203F0600313
:100DB0001343CA790AB143F080038360C3688A7918
:100DC000042C23F00F031CBF04F0030423430AB1D7
:100DD00043F004038A780AB143F00803C360026A4F
:100DE0000B7822F0030203F00303134303620B7A30
:100DF00033B1436A43F00803436230BD0023B7E7D1
:100E0000436A23F00803F7E700B00340CC2C00004E
:100E1000036A426A03F08003520648BF43F040036E
:100E200018467047F7B5056A15F040051EBF036AFE
:100E300023F040030362436A43F0C003014618BF36
:100E4000012543620B6818063BD40846FFF7E0FF14
:100E50004206F7D501240B6901931DB10B6A43F0DB
:100E600040030B620846FFF7D3FF43062BD42CBB8D
:100E7000CB6C8F6C4E6C0D6CC86B8A6B3B443344EF
:100E80002B44034413440193019B5B0843F4004348
:100E90000193019BCB62CB6E8F6E4E6E0D6EC86D53
:100EA0008A6D3B4433442B44034413440193019B18
:100EB0005B0843F400430193019B0B63204603B09E
:100EC000F0BD0024C7E70124F8E70000084B1B7BB6
:100ED00003F00303012B08D004D3022B054818BFED
:100EE00000207047044B18687047044BFBE700BFB5
:100EF00000400640006CDC02A801FF1FA401FF1F98
:100F000008B5FFF7E3FFA0B10D4A13785178127BC3
:100F1000C3F3C20311F0300F20FA03F002F0030212
:100F200000D00AB1022A04D1062B03D0072B05D02A
:100F3000400908BD1423B0FBF3F0FAE70C23FAE7ED
:100F400000400640064B9A79D20755BF054B064A2A
:100F50001868187A42BFC0F342031068D84070473F
:100F6000004006401000FF1F0C00FF1F08B5104B8B
:100F70005A78910701D5002008BD9A799206FAD4D3
:100F80009B79DB0610D4FFF7BBFF0028F3D0084A9B
:100F9000D378D278C3F341135B0003EBD213054A35
:100FA00032F813305843E7E7034B1868EDE700BF0A
:100FB00000400640D42C00001000FF1F08B5094A6D
:100FC000907910F040000CD0FFF780FF137903F008
:100FD0001F030133B0FBF3F0537903F01F03183301
:100FE000584308BD00400640084B9B79C3F381037A
:100FF000022B09D0032B03D0012B03D1FFF7A2BF93
:10100000FFF7DCBFFFF7B2BFFFF760BF004006404D
:1010100008B5FFF7E9FF044A41F24403D3581B0F18
:101020000133B0FBF3F008BD0070044008B503685D
:10103000002BB4BF034B044B1B689847BFF34F8F83
:1010400008BD00BFAC00FF1FB000FF1F024B0348EC
:101050001968FFF7EBBF00BFA000FF1F00C00240F0
:10106000024B03485968FFF7E1BF00BFA000FF1F14
:1010700000D00240024B03489968FFF7D7BF00BF7A
:10108000A000FF1F00C00A4030B48268017CD17705
:10109000C368046805462BB924B141680122A446FF
:1010A00030BC604702EB411241F21C0041F21801D2
:1010B0005158125A02F08002002AA1EB030114BF1A
:1010C000012200224FEA511114D0C9B26B7C5BB2ED
:1010D000994217D1EB7C287D98421BD1EB7C5BB207
:1010E00049B26974E97CC91A49B2E974A4B1696862
:1010F0002846D4E709B10139E7E7297D013901F034
:10110000FF01E3E76B7C5BB2CB1AE9D5287D43FA9C
:1011100080F3E5E70023E3E730BC704708B5034BF5
:101120001868FFF7B1FFBFF34F8F08BDB400FF1F72
:1011300008B5034B5868FFF7A7FFBFF34F8F08BDF3
:10114000B400FF1F08B5034B9868FFF79DFFBFF37E
:101150004F8F08BDB400FF1F08B5034BD868FFF7D9
:1011600093FFBFF34F8F08BDB400FF1F08B5034BBB
:101170001869FFF789FFBFF34F8F08BDB400FF1F49
:1011800008B5034B5869FFF77FFFBFF34F8F08BDCA
:10119000B400FF1F08B5034B9869FFF775FFBFF355
:1011A0004F8F08BDB400FF1F08B5034BD869FFF788
:1011B0006BFFBFF34F8F08BDB400FF1F08B5034B93
:1011C000186AFFF761FFBFF34F8F08BDB400FF1F20
:1011D00008B5034B586AFFF757FFBFF34F8F08BDA1
:1011E000B400FF1F08B5034B986AFFF74DFFBFF32C
:1011F0004F8F08BDB400FF1F08B5034BD86AFFF737
:1012000043FFBFF34F8F08BDB400FF1F08B5034B6A
:10121000186BFFF739FFBFF34F8F08BDB400FF1FF6
:1012200008B5034B586BFFF72FFFBFF34F8F08BD77
:10123000B400FF1F08B5034B986BFFF725FFBFF302
:101240004F8F08BDB400FF1F08B5034BD86BFFF7E5
:101250001BFFBFF34F8F08BDB400FF1F08B5044A42
:10126000044B11681B6804489847BFF34F8F08BDB3
:10127000F400FF1F0001FF1F00000C4008B5044AE6
:10128000044B11681B6804489847BFF34F8F08BD93
:10129000F400FF1FFC00FF1F00000C4008B5044ACB
:1012A000044B11681B6804489847BFF34F8F08BD73
:1012B000F400FF1FF800FF1F00000C4008B5044BAE
:1012C0000448196800239847BFF34F8F08BD00BF3B
:1012D000F400FF1F00000C4008B5044A044B1168DD
:1012E0001B6804489847BFF34F8F08BD0401FF1FD8
:1012F0000801FF1F00400240012303FA01F11378A7
:1013000023B9436923EA01014161704753781BB94E
:10131000816043691943F7E74160FAE710B5C27885
:10132000D20603460C4602D48278920607D5064AB6
:101330002146126818469047BFF34F8F10BD034BEC
:101340001B689847F8E700BF1801FF1F1C01FF1F2B
:10135000084B98420AD003F58053984208D003F511
:10136000FE2398420CBF02200320704700207047E4
:101370000120704700600640034B43600023437028
:101380000372012303707047A0860100F0B50025A9
:10139000DFF854E02F462E464FF0FF3C00243EF885
:1013A0001430AB40B2FBF3F38B420ED2CB1A634541
:1013B0000FD30134402CF2D1022D13D13C463546D7
:1013C00044EA8514E4B24470F0BD5B1A6345F0D280
:1013D0001BB127462E469C46EBE7022DF0D127464F
:1013E0002E46EBE70135D9E7F02C000070B5044636
:1013F0000D46FFF7ADFF1D4B53F82000030C03F122
:10140000804303F58E2380B21E6801218140314361
:1014100019600023FF2123706370A370E1705021D5
:101420006371A171E371A37803F07F03A370A379C3
:101430000B43A371A3790B43A3711223E370696873
:101440002046FFF7A3FFA3796A7803F07F0343EAFE
:10145000C2132A7A03F0F00302F00F021343A371C0
:101460002B78DB01DBB2A37070BD00BFE42C000061
:10147000837803F0C7038370C37813F02003FBD194
:1014800018467047C378827951068279DBB248BF2B
:1014900043F48043D20648BF43F480531846704754
:1014A00070B505460C461646FFF7ECFF10F020001D
:1014B0000CD1AB786400012E14BF224644F0010227
:1014C00043F03003D2B2AB702A7170BD40F24C4091
:1014D000FBE770B50E4604461546FFF7D3FF8106BD
:1014E00002D5A3789A0618D56378DBB203F03F02E1
:1014F0006270A27842F01402A270637000BF00BF55
:1015000000BF00BF00BF00BF6B1E5D425D4145EAEA
:101510004601C9B22171002070BD40F24C40FBE78A
:10152000024B03481968FFF7F9BE00BF0C01FF1F0B
:1015300000600640024B03485968FFF7EFBE00BF4A
:101540000C01FF1F00700640024B03489968FFF72B
:10155000E5BE00BF0C01FF1F00600E40114A13687A
:1015600043F0010313600B788A785B00D20002F02D
:10157000080203F002031343CA7843EA82034A785D
:10158000120102F03002134303604B790A7903F031
:10159000030343EA82038A79D20002F078021343FC
:1015A0004360704738800440002301220370437079
:1015B0008370C370027142718371704708B5044A29
:1015C000044B11681B6804489847BFF34F8F08BD50
:1015D000AC01FF1F2401FF1F00F0024008B5044AC0
:1015E000044B51681B6804489847BFF34F8F08BDF0
:1015F000AC01FF1F2001FF1F00F0024008B5044AA4
:10160000044B11681B6804489847BFF34F8F08BD0F
:101610002801FF1F2C01FF1F00100B40114B9842A7
:1016200016D003F58053984214D003F580539842A6
:1016300012D003F58053984210D003F5FA23984254
:101640000ED003F58053984214BF06200520704742
:101650000020704701207047022070470320704728
:101660000420704700A00640F8B50B681D01B2FBCE
:10167000F5F5ADB2002D08BF012504466801520002
:10168000B2FBF3F6361AB6B23044B2FBF0F2934234
:1016900034BFD21A9A1A6420B3FBF0F303EB43036E
:1016A000934260D32046FFF7B9FF304B53F8200038
:1016B000030C03F1804303F58E2380B21F680122DF
:1016C00082403A431A60E37803F0F303E37023782F
:1016D00003F0E00343EA1523DBB2EDB2237065703B
:1016E000A37A06F01F0603F0E0031E43A6728A7A6F
:1016F000A378920002F0040203F0E80313430A798E
:1017000012B142F010021343A3704B7922785B01AF
:1017100003F0200302F0DF02134323708B79E3749C
:10172000CB796375237C43F088032374637C43F097
:10173000C00363740B7A1BB1637B43F008036373CC
:101740004B7A1BB1637B43F001036373E378CA7A7E
:10175000DBB20AB143F008030A7B0AB143F0040389
:10176000E3700020F8BD40F2F530FBE7702D00007B
:101770004FF4E13303604FF480720023037143712F
:10178000C280037243728372C3720373704721F085
:10179000784121F47001037821F4736121F00F0185
:1017A0000B43DBB20370C37843EA1123DBB2C3708F
:1017B000837943EA1143DBB28371437C43EA1161CD
:1017C0004174704702794179037B807C1B0443EAB2
:1017D0000123134343EA0060704710B5437903F0D7
:1017E0003F0343EA1123DBB243710B0E837411F004
:1017F000170F1CBF0379C3790B070C4605D5037976
:10180000C379437C43F040034374FFF7DBFF20427E
:1018100040F2EE3008BF002010BD0A44914200D1D2
:10182000704703791B06FCD511F8013BC371F5E73E
:1018300070B505460C468E18B4420CD1002070BD20
:101840002846FFF7BFFF03070CD441070DD48207DA
:101850000ED4C3070FD4AB7D002BF1D0EB7904F885
:10186000013BE9E740F2F130E9E740F2F230E6E728
:1018700040F2F330E3E74FF47D70E0E708B5044A47
:10188000044B11681B6804489847BFF34F8F08BD8D
:101890003001FF1F4801FF1F00A0064008B5FFF7F9
:1018A000EDFFBFF34F8F08BD08B5044A044B5168E4
:1018B0001B6804489847BFF34F8F08BD3001FF1FD6
:1018C0004801FF1F00B0064008B5FFF7EDFFBFF36A
:1018D0004F8F08BD08B5044A044B91681B68044843
:1018E0009847BFF34F8F08BD3001FF1F4801FF1F0E
:1018F00000C0064008B5FFF7EDFFBFF34F8F08BDEE
:1019000008B5044A044BD1681B6804489847BFF3E4
:101910004F8F08BD3001FF1F4801FF1F00D0064058
:1019200008B5FFF7EDFFBFF34F8F08BD08B5044AB8
:10193000044B11691B6804489847BFF34F8F08BDDB
:101940003001FF1F4801FF1F00A00E4008B5FFF740
:10195000EDFFBFF34F8F08BD08B5044A044B516932
:101960001B6804489847BFF34F8F08BD3001FF1F25
:101970004801FF1F00B00E4008B5FFF7EDFFBFF3B1
:101980004F8F08BD10B5FFF743FB012203464FF40C
:10199000E1310248BDE81040FEF7E2BE00A006407B
:1019A0001E4B1F491A6842F480621A601A6842F49A
:1019B00000621A601B4B1A6C22F4E06242F440721F
:1019C0001A645A6C22F4E06242F440725A645A6D0E
:1019D00022F4E06242F480725A659A6D22F4E06269
:1019E00042F480729A6503F580539A6922F4E062AA
:1019F00042F480729A611A6C22F4E06242F44072FE
:101A00001A645A6C22F4E06242F440725A6441F261
:101A100010028B5823F003038B507047388004402A
:101A20000070044000A00440084AD2F8883043F413
:101A30007003C2F88830064B4CF22052DA814DF622
:101A40002812DA814FF4E9721A80704700ED00E045
:101A50000020054008B5074B044613B10021AFF341
:101A60000080054B1868836A03B19847204601F04F
:101A70001DF900BF00000000882D000070B50D4E5C
:101A80000D4CA41BA4100025A54209D10B4E0C4CF3
:101A900001F0C6F9A41BA4100025A54205D170BD14
:101AA00056F8253098470135EEE756F82530984727
:101AB0000135F2E7402E0000402E0000402E0000CD
:101AC000442E000010B5431E0A44914200D110BDBF
:101AD00011F8014B03F8014FF7E7884210B501EB0D
:101AE000020307D8421E99420AD011F8014B02F8AE
:101AF000014FF8E78342F5D98118D21AD34200D1B9
:101B000010BD13F8014D01F8014DF7E702440346FB
:101B1000934200D1704703F8011BF9E70FB40A4B59
:101B200013B51C6824B1A36913B9204600F088F8E6
:101B300005AB049AA1680193204600F0DFFA02B0D9
:101B4000BDE8104004B070471400FF1F0EB400B58C
:101B50009CB01DAB029006906FF0004109480791C0
:101B60000491094953F8042B05910068019302A9D7
:101B700000F0A4F9029B00221A701CB05DF804EB7F
:101B800003B070471400FF1F0802FFFFF0B5037891
:101B90007BB1044623782046661C7BB14A1E631E37
:101BA00012F8015F4DB113F8017FAF423446F7D010
:101BB000F0E70B78002B18BF0020F0BD1846FCE7BB
:101BC000002310B50446C0E9003383608181436679
:101BD000C281C0E904338361194608225C30FFF7F3
:101BE00095FF054B6362054BA362054BE362054B12
:101BF0002462236310BD00BF552600007726000035
:101C0000AF260000D3260000014900F085B800BFD0
:101C1000AD29000070B54A1E682555430E4605F1F2
:101C2000740100F097F8044640B10021C0E90016A5
:101C30000C30A06005F16802FFF768FF204670BD18
:101C4000836910B5044633BBC0E912330365124BF8
:101C5000124A1B688262984204BF0123836100F02C
:101C60001FF86060204600F01BF8A060204600F0DE
:101C700017F80022E06004216068FFF7A1FF01224D
:101C80000921A068FFF79CFF02221221E068FFF7FC
:101C900097FF0123A36110BD882D0000091C0000DF
:101CA000F8B51B4B1E68B369074613B93046FFF7FA
:101CB000C7FF4836D6E90134013B03D5336833B159
:101CC0003668F7E7B4F90C506DB16834F4E70421D5
:101CD0003846FFF79FFF30600028F1D10C233B60AE
:101CE00004462046F8BD0B4B6566C4E90055A56067
:101CF000C4E90335C4E905550822294604F15C000E
:101D0000FFF704FFC4E90D55C4E91255E9E700BF28
:101D1000882D00000100FFFF2DE9F8438046894629
:101D200000F14804002614B93046BDE8F883D4E930
:101D30000175013F01D52468F5E7AB89012B07D96F
:101D4000B5F90E30013303D029464046C847064353
:101D50006835EEE770B5CD1C25F0030508350C2D70
:101D600038BF0C25002D064601DBA94203D90C2300
:101D70003360002070BD00F0B9FE214A146821468E
:101D800091B9204C23681BB9304600F053FC206009
:101D90002946304600F04EFC431C24D10C2333600E
:101DA000304600F0A4FEE4E70B685B1B18D40B2B55
:101DB0000FD90B60CD50CC18304600F098FE04F1DE
:101DC0000B00231D20F00700C31AD3D05A42E25063
:101DD000D0E78C424B6816BF636013600C46EBE79C
:101DE0000C464968CCE7C41C24F00304A04205D08B
:101DF000211A304600F01EFC0130CFD02560DBE711
:101E00004C01FF1F5001FF1F2DE9F0478E689E42D5
:101E100082460C469046994637D88A8912F4906FCC
:101E200031D0256809696F1A6569022305EB4505FC
:101E300095FBF3F509F101033B449D4238BF1D4674
:101E4000530530D52946FFF785FF064650B90C23C8
:101E5000CAF80030A38943F04003A3814FF0FF305C
:101E6000BDE8F0873A462169FFF72CFEA38923F4E9
:101E7000906343F08003A381266165613E44ED1BBE
:101E80002660A5604E464E4500D94E463246414634
:101E90002068FFF722FEA3689B1BA36023681E44F3
:101EA00026600020DCE72A4600F070FE0646002887
:101EB000E2D12169504600F01BFEC8E72DE9F04F42
:101EC0009DB0804603938B891D060C4616460FD5A0
:101ED0000B696BB94021FFF73DFF2060206128B9F5
:101EE0000C23C8F800304FF0FF30C7E04023636197
:101EF0000023099320238DF8293030238DF82A30D0
:101F00004FF0010B37463D4615F8013B0BB1252B31
:101F10003ED1B7EB060A0BD0534632462146404627
:101F2000FFF772FF013000F0A480099B534409932E
:101F30003B78002B00F09D8000234FF0FF32CDE96D
:101F40000523049307938DF853301A932F460522E7
:101F500017F8011B4F48FEF7B3FB049BD0B9D90615
:101F600044BF20228DF853201A0744BF2B228DF83E
:101F700053202A782A2A15D0079A2F4600200A25AE
:101F8000394611F8013B303B092B4DD9B8B10FE070
:101F90002F46B8E73F4A801A0BFA00F01843049026
:101FA0003D46D3E7039A111D12680391002A01DB15
:101FB000079204E0524243F00203079204933B78F5
:101FC0002E2B0CD17B782A2B33D1039B1A1D1B6837
:101FD0000392002BB8BF4FF0FF33023705932E4D0D
:101FE000397803222846FEF76BFB38B14023401BAB
:101FF00003FA00F0049B0343013704933978274820
:102000008DF8281006227E1CFEF75AFB002838D0D7
:10201000234B13BB039B073323F0070308330393BE
:10202000099B4B4409936DE705FB023201200F46E3
:10203000A6E700230137059319460A25384610F80C
:10204000012B303A092A03D9002BC8D00591C6E7E5
:1020500005FB012101230746F0E703AB009322466D
:10206000104B04A94046AFF30080B0F1FF3F81461A
:10207000D6D1A3895B063FF536AF09981DB0BDE800
:10208000F08F03AB00932246064B04A9404600F0B4
:10209000BFF9EAE7EC2D0000F22D0000F62D00005C
:1020A00000000000091E00009368013B002B10B4E3
:1020B000936008DA9469A34201DB0A2903D15DF831
:1020C000044B00F00BBB1368581C106019700846D5
:1020D0005DF8044B7047F8B506460F461446D51810
:1020E000AC4201D1002007E03A4614F8011B30460B
:1020F000FFF7DAFF431CF3D1F8BD00002DE9F04FE4
:102100009DB00C4617460393064618B183690BB978
:10211000FFF796FD7B4B9C4257D17468A389180743
:102120005DD52369002B5AD00023099320238DF815
:10213000293030238DF82A304FF0010BB846454640
:1021400015F8013B0BB1252B54D1B8EB070A0BD086
:1021500053463A4621463046FFF7BDFF013000F0B6
:10216000C280099B5344099398F80030002B00F07B
:10217000BA8000234FF0FF32CDE905230493079383
:102180008DF853301A93A846052218F8011B5E48B3
:10219000FEF796FA049B78BBD90644BF20228DF83F
:1021A00053201A0744BF2B228DF853202A782A2A5D
:1021B0002AD0079AA84600200A25414611F8013B7B
:1021C000303B092B69D960B324E0504B9C4201D1CC
:1021D000B468A3E74E4B9C4208BFF4689EE72146D3
:1021E000304600F0DFFA00289ED04FF0FF301DB0DF
:1021F000BDE8F08FA846A2E7434A801A0BFA00F028
:10220000184304904546BEE7039A111D12680391D6
:10221000002A01DB079204E0524243F002030792D6
:10222000049398F800302E2B0ED198F801302A2B09
:1022300038D1039B1A1D1B680392002BB8BF4FF0C7
:10224000FF3308F102080593324D98F8001003227D
:102250002846FEF735FA40B14023401B03FA00F050
:10226000049B034308F10108049398F800102A48DE
:102270008DF82810062208F10107FEF721FA002840
:1022800037D0264B1BBB039B073323F007030833D0
:102290000393099B4B44099350E705FB023201204D
:1022A00088468AE7002308F10108059319460A25A4
:1022B000404610F8012B303A092A03D9002BC3D02D
:1022C0000591C1E705FB012101238046F0E703AB3F
:1022D00000932246124B04A93046AFF30080B0F1C0
:1022E000FF3F8146D5D1A3895B063FF57EAF0998B4
:1022F0007DE703AB00932246094B04A9304600F06A
:1023000087F8ECE7AC2D0000EC2D0000CC2D000090
:102310008C2D0000F22D0000F62D000000000000C2
:10232000D72000002DE9F04791461F468A680B69C7
:10233000DDF820809342B8BF1346C9F8003091F809
:10234000432006460C4612B10133C9F80030236819
:10235000990642BFD9F800300233C9F80030256829
:1023600015F0060507D104F1190AE368D9F8002031
:102370009B1AAB4228DC94F843302268003318BF24
:10238000012392062DD404F1430239463046C0475A
:10239000013020D02368E568D9F8002003F0060357
:1023A000042B08BFAD1AA36822690CBF25EAE575A6
:1023B00000259342C4BF9B1AED184FF000091A3450
:1023C0004D451AD1002008E00123524639463046D7
:1023D000C047013003D14FF0FF30BDE8F087013531
:1023E000C3E7E1185A1C302081F84300224494F8D6
:1023F000451082F843100233C5E7012322463946CF
:102400003046C0470130E6D009F10109D8E70000A5
:102410002DE9F04301F1430C0C46097E85B06E298D
:102420001746064698460C9A00F0B38022D86329D6
:1024300036D00AD8002900F0B980582900F08380EE
:1024400004F1420584F8421032E0642901D0692980
:10245000F6D120681368050603F104012AD51B682C
:102460001160002B03DA2D225B4284F843206F4871
:102470000A2239E0732900F09D8008D86F2920D006
:102480007029DDD1236843F02003236003E0752920
:1024900017D07829D4D1782384F84530644855E0A2
:1024A0001368191D1B68116004F1420584F842305D
:1024B00001238CE01B68116010F0400F18BF1BB2A5
:1024C000CFE713682568181D1060280601D51B6822
:1024D00002E06806FBD51B8854486F2914BF0A2206
:1024E0000822002184F843106568A560002DC0F221
:1024F0009580216821F004012160002B3DD1002D41
:1025000040F08E806546082A0BD12368DB0708D58A
:10251000236962689A42DEBF302305F8013C05F169
:10252000FF35ACEB05032361CDF800803B4603AAE1
:1025300021463046FFF7F6FE01304DD14FF0FF3017
:1025400005B0BDE8F083394884F845101368216868
:102550001D1D1B6815600A060BD5CA0744BF41F054
:10256000200121601BB9226822F020022260102283
:10257000B7E74D0648BF9BB2EFE76546B3FBF2F104
:1025800002FB1133C35C05F8013D0B460029F5D170
:10259000B9E7136825686169181D106028061B6873
:1025A00001D5196002E06A06FBD51980002323617A
:1025B0006546B9E71368191D11601D68626800213E
:1025C0002846FEF77DF808B1401B60606368236110
:1025D000002384F84330A7E723692A46394630466A
:1025E000C0470130AAD023689B0713D4E068039B3F
:1025F0009842B8BF1846A3E701234A4639463046F9
:10260000C04701309AD00135E368039A9B1AAB4268
:10261000F2DCEBE7002504F11909F5E7002BACD15A
:10262000037884F8423004F142056CE7FD2D000088
:102630000E2E000038B5064C0023054608462360E0
:1026400000F026FB431C02D1236803B12B6038BD88
:10265000B401FF1F10B50C46B1F90E1000F0BCFA22
:102660000028ABBF636DA3891B1823F48053ACBF54
:102670006365A38110BD2DE9F0411F468B89DB0501
:1026800005460C46164605D502230022B1F90E1068
:1026900000F0B6F9A389B4F90E1023F48053A38196
:1026A00032463B462846BDE8F04100F069B810B517
:1026B0000C46B1F90E1000F0A3F9431CA38915BF15
:1026C000606523F4805343F48053A38118BFA38132
:1026D00010BDB1F90E1000F0D3B80000F8B50E46E9
:1026E0001446054618B183690BB9FFF7A9FA214BC7
:1026F0009C422AD16C68A369A360A3891A072ED5CE
:10270000236963B323692068C01A6369F6B2834200
:10271000374604DC2146284600F048F928BBA36868
:10272000013BA36023685A1C22601E70636901305C
:10273000834204D0A389DB0719D50A2E17D121467D
:10274000284600F033F990B10FE00B4B9C4201D1C9
:10275000AC68D0E7094B9C4208BFEC68CBE7214648
:10276000284600F01FF80028CCD04FF0FF3738463D
:10277000F8BD00BFAC2D0000CC2D00008C2D00005A
:1027800038B5074C054608461146002222601A4615
:10279000FDF7EEFF431C02D1236803B12B6038BD67
:1027A000B401FF1F324B70B51D6806460C4625B1BB
:1027B000AB6913B92846FFF743FA2E4B9C420FD161
:1027C0006C68B4F90C309AB215072CD4D00611D429
:1027D0000922326043F04003A3814FF0FF303EE016
:1027E000254B9C4201D1AC68EBE7244B9C4208BFCF
:1027F000EC68E6E7510712D5616B41B104F144037F
:10280000994202D0304600F073F900236363A38934
:1028100023F02403A3810023636023692360A38939
:1028200043F00803A38123694BB9A38903F4207300
:10283000B3F5007F03D02146304600F017F9A28996
:1028400012F001030CD00023A36063695B42A36113
:10285000236953B9B4F90C3013F08000BAD170BDBC
:10286000920758BF6369A360F2E70020F7E700BF53
:102870001400FF1FAC2D0000CC2D00008C2D00009B
:1028800038B5064C002305460846236000F0E0F901
:10289000431C02D1236803B12B6038BDB401FF1F74
:1028A0008A892DE9F041054610070C4658D44B683B
:1028B000002B05DC0B6C002B02DC0020BDE8F08156
:1028C000E66A002EF9D0002312F480522F68216AA4
:1028D0002B6032D0606DA3895A0705D56368C01A92
:1028E000636B0BB1236CC01A00230246E66A216AAF
:1028F0002846B047431CA38906D129681D2948D81A
:10290000294ACA40D60744D500226260D904226908
:10291000226004D5421C01D12B6803B96065616B4C
:102920002F600029C9D004F14403994202D02846FF
:1029300000F0DEF800206063C0E701232846B047BE
:10294000411CC8D12B68002BC5D01D2B01D0162BE4
:1029500001D12F60B1E7A38943F04003A381ADE724
:102960000F69002FA9D093070E6808BF4B690F604D
:1029700018BF0023A6EB07088B60B8F1000F9CDDA1
:1029800043463A46216AA66A2846B047002806DC34
:10299000A38943F04003A3814FF0FF308EE7074443
:1029A000A8EB0008E9E700BF0100402038B50B693B
:1029B00005460C46DBB118B183690BB9FFF740F946
:1029C0000C4B9C4209D16C68B4F90C307BB12146A8
:1029D0002846BDE83840FFF763BF074B9C4201D152
:1029E000AC68F1E7054B9C4208BFEC68ECE70020BF
:1029F00038BD00BFAC2D0000CC2D00008C2D000098
:102A000038B5074C054608461146002222601A4692
:102A100000F036F9431C02D1236803B12B6038BDA6
:102A2000B401FF1F70B50E46B1F90E10002996B023
:102A300014461D4607DA00232B60B3891A0610D40A
:102A40004FF480630EE06A4600F0D8F80028F2DB0D
:102A5000019A02F47042A2F500535A425A412A6088
:102A6000EEE740230020236016B070BD8B8973B55C
:102A70009D0706460C4607D504F1470323602361F2
:102A80000123636102B070BD01AB6A46FFF7CAFF64
:102A9000009905463046FFF75DF948B9B4F90C30A6
:102AA0009A05EFD423F0030343F00203A381E3E785
:102AB0000D4BB362A389206043F08003A381009B88
:102AC0006361019B20615BB1B4F90E10304600F0E8
:102AD000A7F828B1A38923F0030343F00103A381DE
:102AE000A3891D43A581CDE7091C000070477047ED
:102AF00038B50546002945D051F8043C0C1F002B81
:102B0000B8BFE418FFF7F2FF1F4A1368104633B945
:102B1000636014602846BDE83840FFF7E8BFA34271
:102B20000CD921686218934204BF1A685B6863601D
:102B300004BF521822600460ECE713465A680AB1D9
:102B4000A242FAD919685818A0420BD12068014452
:102B5000581882421960DDD1106852685A600144E9
:102B60001960D7E702D90C232B60D3E7206821181E
:102B70008A4204BF11685268626004BF091821606C
:102B80005C60C7E738BD00BF4C01FF1FF8B50746C2
:102B900014460E4621B91146BDE8F840FFF7DAB8F1
:102BA00022B9FFF7A5FF25462846F8BD00F048F8F2
:102BB000A0420FD221463846FFF7CCF80546002840
:102BC000F2D031462246FEF77DFF31463846FFF708
:102BD0008FFFE9E73546E7E738B5074C0546084675
:102BE0001146002222601A46FDF7D2FD431C02D195
:102BF000236803B12B6038BDB401FF1F38B5074C03
:102C00000023054608461146236000F029F8431CBE
:102C100002D1236803B12B6038BD00BFB401FF1F90
:102C200038B5064C002305460846236000F020F81E
:102C3000431C02D1236803B12B6038BDB401FF1FD0
:102C400051F8043C181F002BBCBF0B58C01870472C
:102C5000024B58221A604FF0FF307047B401FF1F3B
:102C6000024B58221A604FF0FF307047B401FF1F2B
:102C7000024B58221A600020704700BFB401FF1FAA
:102C8000024B58221A604FF0FF307047B401FF1F0B
:102C9000044A05491368002B08BF0B46184410600E
:102CA000184670475401FF1F00000020FEE700BFD8
:102CB00041542B257325730D0A004F4B000101224F
:102CC0006A65657375732200390000001B003C10B3
:102CD0001B0030108002DC020005B8058007950853
:102CE000000A710B0600341007003410060028108B
:102CF0001400160018001A001C001E0022002800F4
:102D00001C002000240028002C0030003800440063
:102D10003000380040004800500058006800800033
:102D200050006000700080009000A000C000F00023
:102D3000A000C000E0000001200140018001E0018E
:102D400040018001C0010002400280020003C00374
:102D50008002000380030004800400050006800751
:102D600000050006000700080009000A000C000F1B
:102D70000A0034100B0034100C0034100D00341015
:102D80000A0028100B0028101800FF1F0000000088
:102D90000000000000000000000000000000000033
:102DA0000000000000000000000000000000000023
:102DB0000000000000000000000000000000000013
:102DC0000000000000000000000000000000000003
:102DD00000000000000000000000000000000000F3
:102DE000000000000000000000000000232D302B38
:102DF0002000686C4C0065666745464700303132FC
:102E00003334353637383941424344454600303152
:102E100032333435363738396162636465660000B1
:102E2000F8B500BFF8BC08BC9E467047F8B500BFB7
:082E3000F8BC08BC9E46704787
:082E380018D6FF7F0100000025
:042E40003504000055
:042E44001104000075
:102E4800434D45453D004350494E3D0000093D0076
:102E5800008000001800FF1F00000000AC2D0000DB
:102E6800CC2D00008C2D00000000000000000000A8
:102E7800000000000000000000000000000000004A
:102E8800000000000000000000000000000000003A
:102E9800000000000000000000000000000000002A
:102EA800000000000000000000000000000000001A
:082EB800000000000000000012
:04000003000004C530
:00000001FF
